{
  "contractName": "Crowdsale",
  "abi": [
    {
      "inputs": [
        {
          "internalType": "uint256",
          "name": "_start",
          "type": "uint256"
        },
        {
          "internalType": "uint256",
          "name": "_end",
          "type": "uint256"
        },
        {
          "internalType": "contract Melody",
          "name": "_token",
          "type": "address"
        },
        {
          "internalType": "uint256",
          "name": "_goal",
          "type": "uint256"
        },
        {
          "components": [
            {
              "internalType": "uint256",
              "name": "rate",
              "type": "uint256"
            },
            {
              "internalType": "uint256",
              "name": "lower_limit",
              "type": "uint256"
            },
            {
              "internalType": "uint256",
              "name": "upper_limit",
              "type": "uint256"
            }
          ],
          "internalType": "struct Crowdsale.PaymentTier[]",
          "name": "_payment_tier",
          "type": "tuple[]"
        }
      ],
      "stateMutability": "nonpayable",
      "type": "constructor"
    },
    {
      "anonymous": false,
      "inputs": [
        {
          "indexed": true,
          "internalType": "address",
          "name": "from",
          "type": "address"
        },
        {
          "indexed": false,
          "internalType": "uint256",
          "name": "amount",
          "type": "uint256"
        }
      ],
      "name": "Buy",
      "type": "event"
    },
    {
      "anonymous": false,
      "inputs": [],
      "name": "Finalize",
      "type": "event"
    },
    {
      "anonymous": false,
      "inputs": [],
      "name": "Finalized",
      "type": "event"
    },
    {
      "anonymous": false,
      "inputs": [
        {
          "indexed": true,
          "internalType": "address",
          "name": "previousOwner",
          "type": "address"
        },
        {
          "indexed": true,
          "internalType": "address",
          "name": "newOwner",
          "type": "address"
        }
      ],
      "name": "OwnershipTransferred",
      "type": "event"
    },
    {
      "anonymous": false,
      "inputs": [
        {
          "indexed": false,
          "internalType": "uint256",
          "name": "amount",
          "type": "uint256"
        }
      ],
      "name": "Redeemed",
      "type": "event"
    },
    {
      "inputs": [],
      "name": "completed",
      "outputs": [
        {
          "internalType": "bool",
          "name": "",
          "type": "bool"
        }
      ],
      "stateMutability": "view",
      "type": "function",
      "constant": true
    },
    {
      "inputs": [],
      "name": "end",
      "outputs": [
        {
          "internalType": "uint256",
          "name": "",
          "type": "uint256"
        }
      ],
      "stateMutability": "view",
      "type": "function",
      "constant": true
    },
    {
      "inputs": [],
      "name": "owner",
      "outputs": [
        {
          "internalType": "address",
          "name": "",
          "type": "address"
        }
      ],
      "stateMutability": "view",
      "type": "function",
      "constant": true
    },
    {
      "inputs": [],
      "name": "renounceOwnership",
      "outputs": [],
      "stateMutability": "nonpayable",
      "type": "function"
    },
    {
      "inputs": [],
      "name": "start",
      "outputs": [
        {
          "internalType": "uint256",
          "name": "",
          "type": "uint256"
        }
      ],
      "stateMutability": "view",
      "type": "function",
      "constant": true
    },
    {
      "inputs": [
        {
          "internalType": "address",
          "name": "newOwner",
          "type": "address"
        }
      ],
      "name": "transferOwnership",
      "outputs": [],
      "stateMutability": "nonpayable",
      "type": "function"
    },
    {
      "stateMutability": "payable",
      "type": "receive",
      "payable": true
    },
    {
      "inputs": [],
      "name": "buy",
      "outputs": [],
      "stateMutability": "payable",
      "type": "function",
      "payable": true
    },
    {
      "inputs": [
        {
          "internalType": "uint256",
          "name": "funds",
          "type": "uint256"
        }
      ],
      "name": "computeTokensAmount",
      "outputs": [
        {
          "internalType": "uint256",
          "name": "",
          "type": "uint256"
        },
        {
          "internalType": "uint256",
          "name": "",
          "type": "uint256"
        }
      ],
      "stateMutability": "view",
      "type": "function",
      "constant": true
    },
    {
      "inputs": [],
      "name": "finalize",
      "outputs": [],
      "stateMutability": "nonpayable",
      "type": "function"
    },
    {
      "inputs": [],
      "name": "redeem",
      "outputs": [],
      "stateMutability": "payable",
      "type": "function",
      "payable": true
    },
    {
      "inputs": [],
      "name": "getBalance",
      "outputs": [
        {
          "internalType": "uint256",
          "name": "",
          "type": "uint256"
        }
      ],
      "stateMutability": "view",
      "type": "function",
      "constant": true
    },
    {
      "inputs": [],
      "name": "getMinted",
      "outputs": [
        {
          "internalType": "uint256",
          "name": "",
          "type": "uint256"
        }
      ],
      "stateMutability": "view",
      "type": "function",
      "constant": true
    },
    {
      "inputs": [],
      "name": "getStartingTime",
      "outputs": [
        {
          "internalType": "uint256",
          "name": "",
          "type": "uint256"
        }
      ],
      "stateMutability": "view",
      "type": "function",
      "constant": true
    },
    {
      "inputs": [],
      "name": "getEndingTime",
      "outputs": [
        {
          "internalType": "uint256",
          "name": "",
          "type": "uint256"
        }
      ],
      "stateMutability": "view",
      "type": "function",
      "constant": true
    },
    {
      "inputs": [],
      "name": "getGoal",
      "outputs": [
        {
          "internalType": "uint256",
          "name": "",
          "type": "uint256"
        }
      ],
      "stateMutability": "view",
      "type": "function",
      "constant": true
    },
    {
      "inputs": [],
      "name": "getTiers",
      "outputs": [
        {
          "components": [
            {
              "internalType": "uint256",
              "name": "rate",
              "type": "uint256"
            },
            {
              "internalType": "uint256",
              "name": "lower_limit",
              "type": "uint256"
            },
            {
              "internalType": "uint256",
              "name": "upper_limit",
              "type": "uint256"
            }
          ],
          "internalType": "struct Crowdsale.PaymentTier[]",
          "name": "",
          "type": "tuple[]"
        }
      ],
      "stateMutability": "view",
      "type": "function",
      "constant": true
    },
    {
      "inputs": [],
      "name": "isCompleted",
      "outputs": [
        {
          "internalType": "bool",
          "name": "",
          "type": "bool"
        }
      ],
      "stateMutability": "view",
      "type": "function",
      "constant": true
    },
    {
      "inputs": [],
      "name": "isStarted",
      "outputs": [
        {
          "internalType": "bool",
          "name": "",
          "type": "bool"
        }
      ],
      "stateMutability": "view",
      "type": "function",
      "constant": true
    }
  ],
  "bytecode": "0x60806040523480156200001157600080fd5b5060405162002256380380620022568339818101604052810190620000379190620004e1565b600062000049620003a060201b60201c565b9050806000806101000a81548173ffffffffffffffffffffffffffffffffffffffff021916908373ffffffffffffffffffffffffffffffffffffffff1602179055508073ffffffffffffffffffffffffffffffffffffffff16600073ffffffffffffffffffffffffffffffffffffffff167f8be0079c531659141344cd1fd0a4f28419497f9722a3daafe3b4186f6b6457e060405160405180910390a35060008514158015620000f857508442105b6200013a576040517f08c379a0000000000000000000000000000000000000000000000000000000008152600401620001319062000683565b60405180910390fd5b600084141580156200014b57508342105b6200018d576040517f08c379a00000000000000000000000000000000000000000000000000000000081526004016200018490620006a5565b60405180910390fd5b6000821415620001d4576040517f08c379a0000000000000000000000000000000000000000000000000000000008152600401620001cb90620006c7565b60405180910390fd5b60008151116200021b576040517f08c379a000000000000000000000000000000000000000000000000000000000815260040162000212906200063f565b60405180910390fd5b600073ffffffffffffffffffffffffffffffffffffffff168373ffffffffffffffffffffffffffffffffffffffff1614156200028e576040517f08c379a0000000000000000000000000000000000000000000000000000000008152600401620002859062000661565b60405180910390fd5b84600181905550836002819055508160038190555082600560006101000a81548173ffffffffffffffffffffffffffffffffffffffff021916908373ffffffffffffffffffffffffffffffffffffffff16021790555060005b8151811015620003945760068282815181106200032d577f4e487b7100000000000000000000000000000000000000000000000000000000600052603260045260246000fd5b60200260200101519080600181540180825580915050600190039060005260206000209060030201600090919091909150600082015181600001556020820151816001015560408201518160020155505080806200038b90620007da565b915050620002e7565b50505050505062000a0a565b600033905090565b6000620003bf620003b98462000712565b620006e9565b90508083825260208201905082856060860282011115620003df57600080fd5b60005b85811015620004135781620003f8888262000461565b845260208401935060608301925050600181019050620003e2565b5050509392505050565b600082601f8301126200042f57600080fd5b815162000441848260208601620003a8565b91505092915050565b6000815190506200045b81620009d6565b92915050565b6000606082840312156200047457600080fd5b620004806060620006e9565b905060006200049284828501620004ca565b6000830152506020620004a884828501620004ca565b6020830152506040620004be84828501620004ca565b60408301525092915050565b600081519050620004db81620009f0565b92915050565b600080600080600060a08688031215620004fa57600080fd5b60006200050a88828901620004ca565b95505060206200051d88828901620004ca565b945050604062000530888289016200044a565b93505060606200054388828901620004ca565b925050608086015167ffffffffffffffff8111156200056157600080fd5b6200056f888289016200041d565b9150509295509295909350565b60006200058b60298362000741565b9150620005988262000897565b604082019050919050565b6000620005b2601c8362000741565b9150620005bf82620008e6565b602082019050919050565b6000620005d9602b8362000741565b9150620005e6826200090f565b604082019050919050565b60006200060060298362000741565b91506200060d826200095e565b604082019050919050565b60006200062760138362000741565b91506200063482620009ad565b602082019050919050565b600060208201905081810360008301526200065a816200057c565b9050919050565b600060208201905081810360008301526200067c81620005a3565b9050919050565b600060208201905081810360008301526200069e81620005ca565b9050919050565b60006020820190508181036000830152620006c081620005f1565b9050919050565b60006020820190508181036000830152620006e28162000618565b9050919050565b6000620006f562000708565b9050620007038282620007a4565b919050565b6000604051905090565b600067ffffffffffffffff82111562000730576200072f62000857565b5b602082029050602081019050919050565b600082825260208201905092915050565b60006200075f826200077a565b9050919050565b6000620007738262000752565b9050919050565b600073ffffffffffffffffffffffffffffffffffffffff82169050919050565b6000819050919050565b620007af8262000886565b810181811067ffffffffffffffff82111715620007d157620007d062000857565b5b80604052505050565b6000620007e7826200079a565b91507fffffffffffffffffffffffffffffffffffffffffffffffffffffffffffffffff8214156200081d576200081c62000828565b5b600182019050919050565b7f4e487b7100000000000000000000000000000000000000000000000000000000600052601160045260246000fd5b7f4e487b7100000000000000000000000000000000000000000000000000000000600052604160045260246000fd5b6000601f19601f8301169050919050565b7f4174206c65617374206f6e65207061796d656e742074696572206d757374206260008201527f6520646566696e65640000000000000000000000000000000000000000000000602082015250565b7f546f6b656e20616464726573732063616e6e6f74206265206e756c6c00000000600082015250565b7f5374617274696e672074696d652063616e6e6f74206265206e756c6c206f722060008201527f696e207468652070617374000000000000000000000000000000000000000000602082015250565b7f456e64696e672074696d652063616e6e6f74206265206e756c6c206f7220696e60008201527f2074686520706173740000000000000000000000000000000000000000000000602082015250565b7f476f616c2063616e6e6f74206265206e756c6c00000000000000000000000000600082015250565b620009e18162000766565b8114620009ed57600080fd5b50565b620009fb816200079a565b811462000a0757600080fd5b50565b61183c8062000a1a6000396000f3fe60806040526004361061010d5760003560e01c8063ac72200d11610095578063c1da7e9b11610064578063c1da7e9b146102f9578063de17057014610324578063efbe1c1c1461034f578063f2fde38b1461037a578063fa391c64146103a35761011c565b8063ac72200d1461026e578063b97a7d2414610299578063be040fb0146102c4578063be9a6555146102ce5761011c565b8063544736e6116100dc578063544736e6146101cc578063715018a6146101f75780638da5cb5b1461020e5780639d9a7fe914610239578063a6f2ae3a146102645761011c565b80630dc0c9711461012157806312065fe01461014c5780631e4049a1146101775780634bb278f3146101b55761011c565b3661011c5761011a6103ce565b005b600080fd5b34801561012d57600080fd5b506101366105d0565b604051610143919061142a565b60405180910390f35b34801561015857600080fd5b506101616105da565b60405161016e919061142a565b60405180910390f35b34801561018357600080fd5b5061019e600480360381019061019991906110fa565b6105e2565b6040516101ac929190611445565b60405180910390f35b3480156101c157600080fd5b506101ca610924565b005b3480156101d857600080fd5b506101e1610a8d565b6040516101ee919061134f565b60405180910390f35b34801561020357600080fd5b5061020c610a9a565b005b34801561021a57600080fd5b50610223610bd4565b60405161023091906112e9565b60405180910390f35b34801561024557600080fd5b5061024e610bfd565b60405161025b919061134f565b60405180910390f35b61026c6103ce565b005b34801561027a57600080fd5b50610283610c10565b604051610290919061142a565b60405180910390f35b3480156102a557600080fd5b506102ae610c1a565b6040516102bb919061142a565b60405180910390f35b6102cc610c24565b005b3480156102da57600080fd5b506102e3610dd0565b6040516102f0919061142a565b60405180910390f35b34801561030557600080fd5b5061030e610dd6565b60405161031b919061142a565b60405180910390f35b34801561033057600080fd5b50610339610de0565b604051610346919061132d565b60405180910390f35b34801561035b57600080fd5b50610364610e5d565b604051610371919061142a565b60405180910390f35b34801561038657600080fd5b506103a1600480360381019061039c91906110d1565b610e63565b005b3480156103af57600080fd5b506103b861100c565b6040516103c5919061134f565b60405180910390f35b60015442101580156103e1575060025442105b80156103f05750600354600454105b61042f576040517f08c379a0000000000000000000000000000000000000000000000000000000008152600401610426906113ea565b60405180910390fd5b600060149054906101000a900460ff161561047f576040517f08c379a00000000000000000000000000000000000000000000000000000000081526004016104769061140a565b60405180910390fd5b60008061048b346105e2565b915091503373ffffffffffffffffffffffffffffffffffffffff166108fc829081150290604051600060405180830381858888f193505050501580156104d5573d6000803e3d6000fd5b50600560009054906101000a900473ffffffffffffffffffffffffffffffffffffffff1673ffffffffffffffffffffffffffffffffffffffff166340c10f1933846040518363ffffffff1660e01b8152600401610533929190611304565b600060405180830381600087803b15801561054d57600080fd5b505af1158015610561573d6000803e3d6000fd5b50505050816004600082825461057791906114b8565b925050819055503373ffffffffffffffffffffffffffffffffffffffff167fe3d4187f6ca4248660cc0ac8b8056515bac4a8132be2eca31d6d0cc170722a7e836040516105c4919061142a565b60405180910390a25050565b6000600154905090565b600047905090565b60008060015442101580156105f8575060025442105b80156106075750600354600454105b610646576040517f08c379a000000000000000000000000000000000000000000000000000000000815260040161063d906113ea565b60405180910390fd5b600060045490506000806000869050600080600080600090505b60068054905081101561083f57600681815481106106a7577f4e487b7100000000000000000000000000000000000000000000000000000000600052603260045260246000fd5b9060005260206000209060030201600201549150600085118015610716575060068181548110610700577f4e487b7100000000000000000000000000000000000000000000000000000000600052603260045260246000fd5b9060005260206000209060030201600101548810155b801561072157508188105b1561082c5760068181548110610760577f4e487b7100000000000000000000000000000000000000000000000000000000600052603260045260246000fd5b906000526020600020906003020160000154925082670de0b6b3a7640000808761078a919061153f565b610794919061150e565b61079e919061153f565b955085886107ac91906114b8565b9350818411156107d05781846107c29190611599565b866107cd9190611599565b95505b85886107dc91906114b8565b9750670de0b6b3a764000083670de0b6b3a7640000886107fc919061153f565b610806919061150e565b610810919061150e565b8561081b9190611599565b9450858761082991906114b8565b96505b808061083790611615565b915050610660565b5060008660045461085091906114b8565b905060006003548211156109105760006003548361086e9190611599565b9050670de0b6b3a76400006006600160068054905061088d9190611599565b815481106108c4577f4e487b7100000000000000000000000000000000000000000000000000000000600052603260045260246000fd5b906000526020600020906003020160000154670de0b6b3a7640000836108ea919061153f565b6108f4919061150e565b6108fe919061150e565b9150808961090c9190611599565b9850505b87819a509a50505050505050505050915091565b61092c61109f565b73ffffffffffffffffffffffffffffffffffffffff1661094a610bd4565b73ffffffffffffffffffffffffffffffffffffffff16146109a0576040517f08c379a0000000000000000000000000000000000000000000000000000000008152600401610997906113aa565b60405180910390fd5b600254421015806109b5575060035460045410155b6109f4576040517f08c379a00000000000000000000000000000000000000000000000000000000081526004016109eb906113ca565b60405180910390fd5b600060149054906101000a900460ff1615610a44576040517f08c379a0000000000000000000000000000000000000000000000000000000008152600401610a3b9061140a565b60405180910390fd5b6001600060146101000a81548160ff0219169083151502179055507fc5454d111913d0c92fa9088b73be5c3fc91d1eb84db52a8a8485154f05d73f2e60405160405180910390a1565b6000600154421015905090565b610aa261109f565b73ffffffffffffffffffffffffffffffffffffffff16610ac0610bd4565b73ffffffffffffffffffffffffffffffffffffffff1614610b16576040517f08c379a0000000000000000000000000000000000000000000000000000000008152600401610b0d906113aa565b60405180910390fd5b600073ffffffffffffffffffffffffffffffffffffffff1660008054906101000a900473ffffffffffffffffffffffffffffffffffffffff1673ffffffffffffffffffffffffffffffffffffffff167f8be0079c531659141344cd1fd0a4f28419497f9722a3daafe3b4186f6b6457e060405160405180910390a360008060006101000a81548173ffffffffffffffffffffffffffffffffffffffff021916908373ffffffffffffffffffffffffffffffffffffffff160217905550565b60008060009054906101000a900473ffffffffffffffffffffffffffffffffffffffff16905090565b600060149054906101000a900460ff1681565b6000600454905090565b6000600354905090565b610c2c61109f565b73ffffffffffffffffffffffffffffffffffffffff16610c4a610bd4565b73ffffffffffffffffffffffffffffffffffffffff1614610ca0576040517f08c379a0000000000000000000000000000000000000000000000000000000008152600401610c97906113aa565b60405180910390fd5b600060149054906101000a900460ff16610cef576040517f08c379a0000000000000000000000000000000000000000000000000000000008152600401610ce69061136a565b60405180910390fd5b60025442101580610d04575060035460045410155b610d43576040517f08c379a0000000000000000000000000000000000000000000000000000000008152600401610d3a906113ca565b60405180910390fd5b6000479050610d50610bd4565b73ffffffffffffffffffffffffffffffffffffffff166108fc479081150290604051600060405180830381858888f19350505050158015610d95573d6000803e3d6000fd5b507f82498456531a1065f689ba348ce20bda781238c424cf36748dd40bc282831e0381604051610dc5919061142a565b60405180910390a150565b60015481565b6000600254905090565b60606006805480602002602001604051908101604052809291908181526020016000905b82821015610e545783829060005260206000209060030201604051806060016040529081600082015481526020016001820154815260200160028201548152505081526020019060010190610e04565b50505050905090565b60025481565b610e6b61109f565b73ffffffffffffffffffffffffffffffffffffffff16610e89610bd4565b73ffffffffffffffffffffffffffffffffffffffff1614610edf576040517f08c379a0000000000000000000000000000000000000000000000000000000008152600401610ed6906113aa565b60405180910390fd5b600073ffffffffffffffffffffffffffffffffffffffff168173ffffffffffffffffffffffffffffffffffffffff161415610f4f576040517f08c379a0000000000000000000000000000000000000000000000000000000008152600401610f469061138a565b60405180910390fd5b8073ffffffffffffffffffffffffffffffffffffffff1660008054906101000a900473ffffffffffffffffffffffffffffffffffffffff1673ffffffffffffffffffffffffffffffffffffffff167f8be0079c531659141344cd1fd0a4f28419497f9722a3daafe3b4186f6b6457e060405160405180910390a3806000806101000a81548173ffffffffffffffffffffffffffffffffffffffff021916908373ffffffffffffffffffffffffffffffffffffffff16021790555050565b600061101661109f565b73ffffffffffffffffffffffffffffffffffffffff16611034610bd4565b73ffffffffffffffffffffffffffffffffffffffff161461108a576040517f08c379a0000000000000000000000000000000000000000000000000000000008152600401611081906113aa565b60405180910390fd5b600060149054906101000a900460ff16905090565b600033905090565b6000813590506110b6816117d8565b92915050565b6000813590506110cb816117ef565b92915050565b6000602082840312156110e357600080fd5b60006110f1848285016110a7565b91505092915050565b60006020828403121561110c57600080fd5b600061111a848285016110bc565b91505092915050565b600061112f8383611289565b60608301905092915050565b611144816115cd565b82525050565b60006111558261147e565b61115f8185611496565b935061116a8361146e565b8060005b8381101561119b5781516111828882611123565b975061118d83611489565b92505060018101905061116e565b5085935050505092915050565b6111b1816115df565b82525050565b60006111c4601a836114a7565b91506111cf826116bc565b602082019050919050565b60006111e76026836114a7565b91506111f2826116e5565b604082019050919050565b600061120a6020836114a7565b915061121582611734565b602082019050919050565b600061122d6018836114a7565b91506112388261175d565b602082019050919050565b60006112506015836114a7565b915061125b82611786565b602082019050919050565b6000611273601a836114a7565b915061127e826117af565b602082019050919050565b60608201600082015161129f60008501826112cb565b5060208201516112b260208501826112cb565b5060408201516112c560408501826112cb565b50505050565b6112d48161160b565b82525050565b6112e38161160b565b82525050565b60006020820190506112fe600083018461113b565b92915050565b6000604082019050611319600083018561113b565b61132660208301846112da565b9392505050565b60006020820190508181036000830152611347818461114a565b905092915050565b600060208201905061136460008301846111a8565b92915050565b60006020820190508181036000830152611383816111b7565b9050919050565b600060208201905081810360008301526113a3816111da565b9050919050565b600060208201905081810360008301526113c3816111fd565b9050919050565b600060208201905081810360008301526113e381611220565b9050919050565b6000602082019050818103600083015261140381611243565b9050919050565b6000602082019050818103600083015261142381611266565b9050919050565b600060208201905061143f60008301846112da565b92915050565b600060408201905061145a60008301856112da565b61146760208301846112da565b9392505050565b6000819050602082019050919050565b600081519050919050565b6000602082019050919050565b600082825260208201905092915050565b600082825260208201905092915050565b60006114c38261160b565b91506114ce8361160b565b9250827fffffffffffffffffffffffffffffffffffffffffffffffffffffffffffffffff038211156115035761150261165e565b5b828201905092915050565b60006115198261160b565b91506115248361160b565b9250826115345761153361168d565b5b828204905092915050565b600061154a8261160b565b91506115558361160b565b9250817fffffffffffffffffffffffffffffffffffffffffffffffffffffffffffffffff048311821515161561158e5761158d61165e565b5b828202905092915050565b60006115a48261160b565b91506115af8361160b565b9250828210156115c2576115c161165e565b5b828203905092915050565b60006115d8826115eb565b9050919050565b60008115159050919050565b600073ffffffffffffffffffffffffffffffffffffffff82169050919050565b6000819050919050565b60006116208261160b565b91507fffffffffffffffffffffffffffffffffffffffffffffffffffffffffffffffff8214156116535761165261165e565b5b600182019050919050565b7f4e487b7100000000000000000000000000000000000000000000000000000000600052601160045260246000fd5b7f4e487b7100000000000000000000000000000000000000000000000000000000600052601260045260246000fd5b7f436f6e7472616374206e6f742079657420636f6d706c65746564000000000000600082015250565b7f4f776e61626c653a206e6577206f776e657220697320746865207a65726f206160008201527f6464726573730000000000000000000000000000000000000000000000000000602082015250565b7f4f776e61626c653a2063616c6c6572206973206e6f7420746865206f776e6572600082015250565b7f43726f776473616c65206e6f742079657420636c6f7365640000000000000000600082015250565b7f43726f776473616c65206e6f742072756e6e696e670000000000000000000000600082015250565b7f436f6e747261637420616c726561647920636f6d706c65746564000000000000600082015250565b6117e1816115cd565b81146117ec57600080fd5b50565b6117f88161160b565b811461180357600080fd5b5056fea2646970667358221220620280118b8a2b9364a9f777a6da72625d01c12b6a8462162427c458c85f4aa364736f6c63430008010033",
  "immutableReferences": {},
  "source": "// SPDX-License-Identifier: MIT\npragma solidity ^0.8.0;\n\nimport \"./Melody.sol\";\nimport \"./CommonModifier.sol\";\nimport \"@openzeppelin/contracts/utils/math/SafeMath.sol\";\nimport \"@openzeppelin/contracts/access/Ownable.sol\";\n\ncontract Crowdsale is Ownable, CommonModifier {\n    using SafeMath for uint256;\n\n    uint256 goal;\n    uint256 minted;\n    Melody token;\n    PaymentTier[] payment_tier;\n\n    event Buy(address indexed from, uint256 amount);\n    event Finalize();\n    event Redeemed(uint256 amount);\n\n    struct PaymentTier {\n        uint256 rate;\n        uint256 lower_limit;\n        uint256 upper_limit;\n    }\n\n    receive() payable external {\n        buy();\n    }\n\n    modifier whenClosed() override {\n        require(\n            block.timestamp >= end || minted >= goal, \n            \"Crowdsale not yet closed\"\n        );\n        _;\n    }\n\n    modifier whenRunning() override {\n        require(\n            block.timestamp >= start && block.timestamp < end && minted < goal, \n            \"Crowdsale not running\"\n        );\n        _;\n    }\n\n    /**\n    @param _start Ico starting time\n    @param _end Ico ending time, if goal is not reached first\n    @param _token Melody token instance\n    @param _goal Amount of funds to raise\n    @param _payment_tier Array of crowdsale price tier\n     */\n    constructor(uint256 _start, uint256 _end, Melody _token, uint256 _goal, PaymentTier[] memory _payment_tier) {\n        require(_start != 0 && block.timestamp < _start, \"Starting time cannot be null or in the past\");\n        require(_end != 0 && block.timestamp < _end, \"Ending time cannot be null or in the past\");\n        require(_goal != 0, \"Goal cannot be null\");\n        require(_payment_tier.length > 0, \"At least one payment tier must be defined\");\n        require(_token != Melody(payable(address(0))), \"Token address cannot be null\");\n\n        start = _start;\n        end = _end;\n        goal = _goal;\n        token = _token;\n\n        for(uint256 i = 0; i < _payment_tier.length; i++) {\n            payment_tier.push(_payment_tier[i]);\n        }\n    }\n\n    function buy() public whenRunning whenNotCompleted payable {\n        // If a fixed rate is provided compute the amount of token to buy based on the rate\n        (uint256 tokens_to_buy, uint256 exceedingEther) = computeTokensAmount(msg.value);\n        payable(msg.sender).transfer(exceedingEther);\n\n        // Mint new tokens for each submission\n        token.mint(msg.sender, tokens_to_buy);\n        minted += tokens_to_buy;\n\n        emit Buy(msg.sender, tokens_to_buy);\n    }\n\n    function computeTokensAmount(uint256 funds) public whenRunning view returns(uint256, uint256) {\n        uint256 future_minted = minted;\n        uint256 tokens_to_buy;\n        uint256 current_round_tokens;      \n        uint256 ether_used = funds; \n        uint256 future_round; \n        uint256 rate;\n        uint256 upper_limit;\n\n        for(uint256 i = 0; i < payment_tier.length; i++) {\n            // minor performance improvement, caches the value\n            upper_limit = payment_tier[i].upper_limit;\n\n            if(\n                ether_used > 0 &&                                   // Check if there are still some funds in the request\n                future_minted >= payment_tier[i].lower_limit &&     // Check if the current rate can be applied with the lower_limit\n                future_minted < upper_limit                         // Check if the current rate can be applied with the upper_limit\n                ) {\n                // minor performance improvement, caches the value\n                rate = payment_tier[i].rate;\n                \n                // Keep a static counter and reset it in each round\n                // NOTE: Order is important in value calculation\n                current_round_tokens = ether_used * 1e18 / 1 ether * rate;\n\n                // minor performance optimization, caches the value\n                future_round = future_minted + current_round_tokens;\n                // If the tokens to mint exceed the upper limit of the tier reduce the number of token bounght in this round\n                if(future_round > upper_limit) {\n                    current_round_tokens -= future_round - upper_limit;\n                }\n\n                // Update the future_minted counter with the current_round_tokens\n                future_minted += current_round_tokens;\n\n                // Recomputhe the available funds\n                ether_used -= current_round_tokens * 1 ether / rate / 1e18;\n\n                // And add the funds to the total calculation\n                tokens_to_buy += current_round_tokens;\n            }\n        }\n\n        // minor performance optimization, caches the value\n        uint256 new_minted = minted + tokens_to_buy;\n        uint256 exceedingEther;\n        // Check if we have reached and exceeded the funding goal to refund the exceeding tokens and ether\n        if(new_minted > goal) {\n            uint256 exceedingTokens = new_minted - goal;\n            \n            // Convert the exceedingTokens to ether and refund that ether\n            exceedingEther = exceedingTokens * 1 ether / payment_tier[payment_tier.length -1].rate / 1e18;\n            \n\n            // Change the tokens to buy to the new number\n            tokens_to_buy -= exceedingTokens;\n        }\n\n        return (tokens_to_buy, exceedingEther);\n    }\n\n    function finalize() public onlyOwner whenClosed whenNotCompleted {\n        completed = true;\n        emit Finalize();\n    }\n\n    function redeem() public onlyOwner whenCompleted whenClosed payable {\n        uint256 balance = address(this).balance;\n        payable(owner()).transfer(address(this).balance);\n        emit Redeemed(balance);\n    }\n\n    function getBalance() public view returns(uint256) { return address(this).balance; }\n    function getMinted() public view returns(uint256) { return minted; }\n    function getStartingTime() public view returns(uint256) { return start; }\n    function getEndingTime() public view returns(uint256) { return end; }\n    function getGoal() public view returns(uint256) { return goal; }\n    function getTiers() public view returns(PaymentTier[] memory) { return payment_tier; }\n    function isCompleted() public onlyOwner view returns(bool) { return completed; }\n    function isStarted() public view returns(bool) { return block.timestamp >= start; }\n}\n",
  "sourcePath": "/home/ebalo/Desktop/Projects/blockchain/block-chain/contracts/Crowdsale.sol",
  "compiler": {
    "name": "solc",
    "version": "0.8.1+commit.df193b15.Emscripten.clang"
  },
  "schemaVersion": "3.4.1",
  "updatedAt": "2021-05-19T09:48:43.467Z",
  "networkType": "ethereum",
  "devdoc": {
    "kind": "dev",
    "methods": {
      "constructor": {
        "params": {
          "_end": "Ico ending time, if goal is not reached first",
          "_goal": "Amount of funds to raise",
          "_payment_tier": "Array of crowdsale price tier",
          "_start": "Ico starting time",
          "_token": "Melody token instance"
        }
      },
      "owner()": {
        "details": "Returns the address of the current owner."
      },
      "renounceOwnership()": {
        "details": "Leaves the contract without owner. It will not be possible to call `onlyOwner` functions anymore. Can only be called by the current owner. NOTE: Renouncing ownership will leave the contract without an owner, thereby removing any functionality that is only available to the owner."
      },
      "transferOwnership(address)": {
        "details": "Transfers ownership of the contract to a new account (`newOwner`). Can only be called by the current owner."
      }
    },
    "version": 1
  },
  "userdoc": {
    "kind": "user",
    "methods": {},
    "version": 1
  }
}