{
  "contractName": "Melody",
  "abi": [
    {
      "inputs": [
        {
          "internalType": "uint256",
          "name": "_preminted",
          "type": "uint256"
        }
      ],
      "stateMutability": "nonpayable",
      "type": "constructor"
    },
    {
      "anonymous": false,
      "inputs": [
        {
          "indexed": true,
          "internalType": "address",
          "name": "owner",
          "type": "address"
        },
        {
          "indexed": true,
          "internalType": "address",
          "name": "spender",
          "type": "address"
        },
        {
          "indexed": false,
          "internalType": "uint256",
          "name": "value",
          "type": "uint256"
        }
      ],
      "name": "Approval",
      "type": "event"
    },
    {
      "anonymous": false,
      "inputs": [
        {
          "indexed": true,
          "internalType": "address",
          "name": "previousOwner",
          "type": "address"
        },
        {
          "indexed": true,
          "internalType": "address",
          "name": "newOwner",
          "type": "address"
        }
      ],
      "name": "OwnershipTransferred",
      "type": "event"
    },
    {
      "anonymous": false,
      "inputs": [
        {
          "indexed": false,
          "internalType": "address",
          "name": "account",
          "type": "address"
        }
      ],
      "name": "Paused",
      "type": "event"
    },
    {
      "anonymous": false,
      "inputs": [
        {
          "indexed": true,
          "internalType": "address",
          "name": "from",
          "type": "address"
        },
        {
          "indexed": true,
          "internalType": "address",
          "name": "to",
          "type": "address"
        },
        {
          "indexed": false,
          "internalType": "uint256",
          "name": "value",
          "type": "uint256"
        }
      ],
      "name": "Transfer",
      "type": "event"
    },
    {
      "anonymous": false,
      "inputs": [
        {
          "indexed": false,
          "internalType": "address",
          "name": "account",
          "type": "address"
        }
      ],
      "name": "Unpaused",
      "type": "event"
    },
    {
      "inputs": [],
      "name": "DOMAIN_SEPARATOR",
      "outputs": [
        {
          "internalType": "bytes32",
          "name": "",
          "type": "bytes32"
        }
      ],
      "stateMutability": "view",
      "type": "function",
      "constant": true
    },
    {
      "inputs": [],
      "name": "ICOEndTime",
      "outputs": [
        {
          "internalType": "uint256",
          "name": "",
          "type": "uint256"
        }
      ],
      "stateMutability": "view",
      "type": "function",
      "constant": true
    },
    {
      "inputs": [
        {
          "internalType": "address",
          "name": "owner",
          "type": "address"
        },
        {
          "internalType": "address",
          "name": "spender",
          "type": "address"
        }
      ],
      "name": "allowance",
      "outputs": [
        {
          "internalType": "uint256",
          "name": "",
          "type": "uint256"
        }
      ],
      "stateMutability": "view",
      "type": "function",
      "constant": true
    },
    {
      "inputs": [
        {
          "internalType": "address",
          "name": "account",
          "type": "address"
        }
      ],
      "name": "balanceOf",
      "outputs": [
        {
          "internalType": "uint256",
          "name": "",
          "type": "uint256"
        }
      ],
      "stateMutability": "view",
      "type": "function",
      "constant": true
    },
    {
      "inputs": [
        {
          "internalType": "uint256",
          "name": "amount",
          "type": "uint256"
        }
      ],
      "name": "burn",
      "outputs": [],
      "stateMutability": "nonpayable",
      "type": "function"
    },
    {
      "inputs": [
        {
          "internalType": "address",
          "name": "account",
          "type": "address"
        },
        {
          "internalType": "uint256",
          "name": "amount",
          "type": "uint256"
        }
      ],
      "name": "burnFrom",
      "outputs": [],
      "stateMutability": "nonpayable",
      "type": "function"
    },
    {
      "inputs": [],
      "name": "crowdsaleAddress",
      "outputs": [
        {
          "internalType": "address",
          "name": "",
          "type": "address"
        }
      ],
      "stateMutability": "view",
      "type": "function",
      "constant": true
    },
    {
      "inputs": [],
      "name": "decimals",
      "outputs": [
        {
          "internalType": "uint8",
          "name": "",
          "type": "uint8"
        }
      ],
      "stateMutability": "view",
      "type": "function",
      "constant": true
    },
    {
      "inputs": [],
      "name": "name",
      "outputs": [
        {
          "internalType": "string",
          "name": "",
          "type": "string"
        }
      ],
      "stateMutability": "view",
      "type": "function",
      "constant": true
    },
    {
      "inputs": [
        {
          "internalType": "address",
          "name": "owner",
          "type": "address"
        }
      ],
      "name": "nonces",
      "outputs": [
        {
          "internalType": "uint256",
          "name": "",
          "type": "uint256"
        }
      ],
      "stateMutability": "view",
      "type": "function",
      "constant": true
    },
    {
      "inputs": [],
      "name": "owner",
      "outputs": [
        {
          "internalType": "address",
          "name": "",
          "type": "address"
        }
      ],
      "stateMutability": "view",
      "type": "function",
      "constant": true
    },
    {
      "inputs": [],
      "name": "paused",
      "outputs": [
        {
          "internalType": "bool",
          "name": "",
          "type": "bool"
        }
      ],
      "stateMutability": "view",
      "type": "function",
      "constant": true
    },
    {
      "inputs": [
        {
          "internalType": "address",
          "name": "owner",
          "type": "address"
        },
        {
          "internalType": "address",
          "name": "spender",
          "type": "address"
        },
        {
          "internalType": "uint256",
          "name": "value",
          "type": "uint256"
        },
        {
          "internalType": "uint256",
          "name": "deadline",
          "type": "uint256"
        },
        {
          "internalType": "uint8",
          "name": "v",
          "type": "uint8"
        },
        {
          "internalType": "bytes32",
          "name": "r",
          "type": "bytes32"
        },
        {
          "internalType": "bytes32",
          "name": "s",
          "type": "bytes32"
        }
      ],
      "name": "permit",
      "outputs": [],
      "stateMutability": "nonpayable",
      "type": "function"
    },
    {
      "inputs": [],
      "name": "renounceOwnership",
      "outputs": [],
      "stateMutability": "nonpayable",
      "type": "function"
    },
    {
      "inputs": [],
      "name": "symbol",
      "outputs": [
        {
          "internalType": "string",
          "name": "",
          "type": "string"
        }
      ],
      "stateMutability": "view",
      "type": "function",
      "constant": true
    },
    {
      "inputs": [],
      "name": "totalSupply",
      "outputs": [
        {
          "internalType": "uint256",
          "name": "",
          "type": "uint256"
        }
      ],
      "stateMutability": "view",
      "type": "function",
      "constant": true
    },
    {
      "inputs": [],
      "name": "track_challenge",
      "outputs": [
        {
          "internalType": "address",
          "name": "",
          "type": "address"
        }
      ],
      "stateMutability": "view",
      "type": "function",
      "constant": true
    },
    {
      "inputs": [
        {
          "internalType": "address",
          "name": "newOwner",
          "type": "address"
        }
      ],
      "name": "transferOwnership",
      "outputs": [],
      "stateMutability": "nonpayable",
      "type": "function"
    },
    {
      "stateMutability": "payable",
      "type": "receive",
      "payable": true
    },
    {
      "inputs": [],
      "name": "pause",
      "outputs": [],
      "stateMutability": "nonpayable",
      "type": "function"
    },
    {
      "inputs": [],
      "name": "unpause",
      "outputs": [],
      "stateMutability": "nonpayable",
      "type": "function"
    },
    {
      "inputs": [
        {
          "internalType": "address",
          "name": "to",
          "type": "address"
        },
        {
          "internalType": "uint256",
          "name": "amount",
          "type": "uint256"
        }
      ],
      "name": "mint",
      "outputs": [],
      "stateMutability": "nonpayable",
      "type": "function"
    },
    {
      "inputs": [
        {
          "internalType": "address",
          "name": "_crowdsaleAddress",
          "type": "address"
        }
      ],
      "name": "setCrowdsale",
      "outputs": [],
      "stateMutability": "nonpayable",
      "type": "function"
    },
    {
      "inputs": [
        {
          "internalType": "address",
          "name": "_track_challenge",
          "type": "address"
        }
      ],
      "name": "setTrackChallenge",
      "outputs": [],
      "stateMutability": "nonpayable",
      "type": "function"
    },
    {
      "inputs": [
        {
          "internalType": "uint256",
          "name": "_time",
          "type": "uint256"
        }
      ],
      "name": "setIcoEndTime",
      "outputs": [],
      "stateMutability": "nonpayable",
      "type": "function"
    },
    {
      "inputs": [
        {
          "internalType": "address",
          "name": "_to",
          "type": "address"
        },
        {
          "internalType": "uint256",
          "name": "_value",
          "type": "uint256"
        }
      ],
      "name": "transfer",
      "outputs": [
        {
          "internalType": "bool",
          "name": "",
          "type": "bool"
        }
      ],
      "stateMutability": "nonpayable",
      "type": "function"
    },
    {
      "inputs": [
        {
          "internalType": "address",
          "name": "_from",
          "type": "address"
        },
        {
          "internalType": "address",
          "name": "_to",
          "type": "address"
        },
        {
          "internalType": "uint256",
          "name": "_value",
          "type": "uint256"
        }
      ],
      "name": "transferFrom",
      "outputs": [
        {
          "internalType": "bool",
          "name": "",
          "type": "bool"
        }
      ],
      "stateMutability": "nonpayable",
      "type": "function"
    },
    {
      "inputs": [
        {
          "internalType": "address",
          "name": "_spender",
          "type": "address"
        },
        {
          "internalType": "uint256",
          "name": "_value",
          "type": "uint256"
        }
      ],
      "name": "approve",
      "outputs": [
        {
          "internalType": "bool",
          "name": "",
          "type": "bool"
        }
      ],
      "stateMutability": "nonpayable",
      "type": "function"
    },
    {
      "inputs": [
        {
          "internalType": "address",
          "name": "_spender",
          "type": "address"
        },
        {
          "internalType": "uint256",
          "name": "_addedValue",
          "type": "uint256"
        }
      ],
      "name": "increaseAllowance",
      "outputs": [
        {
          "internalType": "bool",
          "name": "success",
          "type": "bool"
        }
      ],
      "stateMutability": "nonpayable",
      "type": "function"
    },
    {
      "inputs": [
        {
          "internalType": "address",
          "name": "_spender",
          "type": "address"
        },
        {
          "internalType": "uint256",
          "name": "_subtractedValue",
          "type": "uint256"
        }
      ],
      "name": "decreaseAllowance",
      "outputs": [
        {
          "internalType": "bool",
          "name": "success",
          "type": "bool"
        }
      ],
      "stateMutability": "nonpayable",
      "type": "function"
    },
    {
      "inputs": [
        {
          "internalType": "address",
          "name": "_owner",
          "type": "address"
        },
        {
          "internalType": "address",
          "name": "_spender",
          "type": "address"
        },
        {
          "internalType": "uint256",
          "name": "_value",
          "type": "uint256"
        }
      ],
      "name": "approveFrom",
      "outputs": [
        {
          "internalType": "bool",
          "name": "",
          "type": "bool"
        }
      ],
      "stateMutability": "nonpayable",
      "type": "function"
    },
    {
      "inputs": [],
      "name": "redeem",
      "outputs": [],
      "stateMutability": "nonpayable",
      "type": "function"
    }
  ],
  "bytecode": "0x6101406040527f6e71edae12b1b97f4d1f60370fef10105fa2faae0126114a169c64845d6126c9610120908152503480156200003a57600080fd5b506040516200431d3803806200431d8339818101604052810190620000609190620005cc565b6040518060400160405280600681526020017f4d656c6f64790000000000000000000000000000000000000000000000000000815250806040518060400160405280600181526020017f31000000000000000000000000000000000000000000000000000000000000008152506040518060400160405280600681526020017f4d656c6f647900000000000000000000000000000000000000000000000000008152506040518060400160405280600481526020017f4d454c440000000000000000000000000000000000000000000000000000000081525081600390805190602001906200015192919062000505565b5080600490805190602001906200016a92919062000505565b5050506000600560006101000a81548160ff02191690831515021790555060006200019a620002d060201b60201c565b905080600560016101000a81548173ffffffffffffffffffffffffffffffffffffffff021916908373ffffffffffffffffffffffffffffffffffffffff1602179055508073ffffffffffffffffffffffffffffffffffffffff16600073ffffffffffffffffffffffffffffffffffffffff167f8be0079c531659141344cd1fd0a4f28419497f9722a3daafe3b4186f6b6457e060405160405180910390a35060008280519060200120905060008280519060200120905060007f8b73c3c69bb8fe3d512ecc4cf759cc79239f7b179b0ffacaa9a75d522b39400f90508260c081815250508160e081815250504660a08181525050620002a1818484620002d860201b60201c565b60808181525050806101008181525050505050505050620002c933826200031460201b60201c565b50620008ed565b600033905090565b60008383834630604051602001620002f595949392919062000679565b6040516020818303038152906040528051906020012090509392505050565b600073ffffffffffffffffffffffffffffffffffffffff168273ffffffffffffffffffffffffffffffffffffffff16141562000387576040517f08c379a00000000000000000000000000000000000000000000000000000000081526004016200037e90620006f8565b60405180910390fd5b6200039b600083836200047960201b60201c565b8060026000828254620003af919062000748565b92505081905550806000808473ffffffffffffffffffffffffffffffffffffffff1673ffffffffffffffffffffffffffffffffffffffff168152602001908152602001600020600082825462000406919062000748565b925050819055508173ffffffffffffffffffffffffffffffffffffffff16600073ffffffffffffffffffffffffffffffffffffffff167fddf252ad1be2c89b69c2b068fc378daa952ba7f163c4a11628f55a4df523b3ef836040516200046d91906200071a565b60405180910390a35050565b62000489620004e960201b60201c565b15620004cc576040517f08c379a0000000000000000000000000000000000000000000000000000000008152600401620004c390620006d6565b60405180910390fd5b620004e48383836200050060201b620017c31760201c565b505050565b6000600560009054906101000a900460ff16905090565b505050565b8280546200051390620007ed565b90600052602060002090601f01602090048101928262000537576000855562000583565b82601f106200055257805160ff191683800117855562000583565b8280016001018555821562000583579182015b828111156200058257825182559160200191906001019062000565565b5b50905062000592919062000596565b5090565b5b80821115620005b157600081600090555060010162000597565b5090565b600081519050620005c681620008d3565b92915050565b600060208284031215620005df57600080fd5b6000620005ef84828501620005b5565b91505092915050565b6200060381620007a5565b82525050565b6200061481620007b9565b82525050565b60006200062960108362000737565b9150620006368262000881565b602082019050919050565b600062000650601f8362000737565b91506200065d82620008aa565b602082019050919050565b6200067381620007e3565b82525050565b600060a08201905062000690600083018862000609565b6200069f602083018762000609565b620006ae604083018662000609565b620006bd606083018562000668565b620006cc6080830184620005f8565b9695505050505050565b60006020820190508181036000830152620006f1816200061a565b9050919050565b60006020820190508181036000830152620007138162000641565b9050919050565b600060208201905062000731600083018462000668565b92915050565b600082825260208201905092915050565b60006200075582620007e3565b91506200076283620007e3565b9250827fffffffffffffffffffffffffffffffffffffffffffffffffffffffffffffffff038211156200079a576200079962000823565b5b828201905092915050565b6000620007b282620007c3565b9050919050565b6000819050919050565b600073ffffffffffffffffffffffffffffffffffffffff82169050919050565b6000819050919050565b600060028204905060018216806200080657607f821691505b602082108114156200081d576200081c62000852565b5b50919050565b7f4e487b7100000000000000000000000000000000000000000000000000000000600052601160045260246000fd5b7f4e487b7100000000000000000000000000000000000000000000000000000000600052602260045260246000fd5b7f5061757361626c653a2070617573656400000000000000000000000000000000600082015250565b7f45524332303a206d696e7420746f20746865207a65726f206164647265737300600082015250565b620008de81620007e3565b8114620008ea57600080fd5b50565b60805160a05160c05160e05161010051610120516139e06200093d60003960006113cd0152600061193e015260006119800152600061195f015260006118eb0152600061191301526139e06000f3fe6080604052600436106101dc5760003560e01c806370a0823111610102578063a242f04911610095578063d505accf11610064578063d505accf146106a7578063dd62ed3e146106d0578063f2fde38b1461070d578063fe3c9b6b14610736576101e3565b8063a242f049146105eb578063a457c2d714610616578063a9059cbb14610653578063be040fb014610690576101e3565b80637ecebe00116100d15780637ecebe00146105415780638456cb591461057e5780638da5cb5b1461059557806395d89b41146105c0576101e3565b806370a082311461049b578063715018a6146104d857806379cc6790146104ef5780637b2428af14610518576101e3565b8063395093511161017a57806342966c681161014957806342966c68146103e1578063483a20b21461040a57806352ec8529146104335780635c975abb14610470576101e3565b806339509351146103395780633f4ba83a1461037657806340c10f191461038d578063413deb71146103b6576101e3565b806323b872dd116101b657806323b872dd1461027b578063313ce567146102b857806331d2f891146102e35780633644e5151461030e576101e3565b806306fdde03146101e8578063095ea7b31461021357806318160ddd14610250576101e3565b366101e357005b600080fd5b3480156101f457600080fd5b506101fd61075f565b60405161020a9190612e5f565b60405180910390f35b34801561021f57600080fd5b5061023a600480360381019061023591906128b9565b6107f1565b6040516102479190612d30565b60405180910390f35b34801561025c57600080fd5b5061026561086b565b6040516102729190613141565b60405180910390f35b34801561028757600080fd5b506102a2600480360381019061029d91906127cc565b610875565b6040516102af9190612d30565b60405180910390f35b3480156102c457600080fd5b506102cd6108f1565b6040516102da919061315c565b60405180910390f35b3480156102ef57600080fd5b506102f86108fa565b6040516103059190612d15565b60405180910390f35b34801561031a57600080fd5b50610323610920565b6040516103309190612d4b565b60405180910390f35b34801561034557600080fd5b50610360600480360381019061035b91906128b9565b61092f565b60405161036d9190612d30565b60405180910390f35b34801561038257600080fd5b5061038b6109a9565b005b34801561039957600080fd5b506103b460048036038101906103af91906128b9565b610a2f565b005b3480156103c257600080fd5b506103cb610b62565b6040516103d89190612d15565b60405180910390f35b3480156103ed57600080fd5b50610408600480360381019061040391906128f5565b610b88565b005b34801561041657600080fd5b50610431600480360381019061042c9190612767565b610b9c565b005b34801561043f57600080fd5b5061045a600480360381019061045591906127cc565b610c96565b6040516104679190612d30565b60405180910390f35b34801561047c57600080fd5b50610485610d14565b6040516104929190612d30565b60405180910390f35b3480156104a757600080fd5b506104c260048036038101906104bd9190612767565b610d2b565b6040516104cf9190613141565b60405180910390f35b3480156104e457600080fd5b506104ed610d73565b005b3480156104fb57600080fd5b50610516600480360381019061051191906128b9565b610eb0565b005b34801561052457600080fd5b5061053f600480360381019061053a9190612767565b610f34565b005b34801561054d57600080fd5b5061056860048036038101906105639190612767565b61102e565b6040516105759190613141565b60405180910390f35b34801561058a57600080fd5b5061059361107e565b005b3480156105a157600080fd5b506105aa611104565b6040516105b79190612d15565b60405180910390f35b3480156105cc57600080fd5b506105d561112e565b6040516105e29190612e5f565b60405180910390f35b3480156105f757600080fd5b506106006111c0565b60405161060d9190613141565b60405180910390f35b34801561062257600080fd5b5061063d600480360381019061063891906128b9565b6111c6565b60405161064a9190612d30565b60405180910390f35b34801561065f57600080fd5b5061067a600480360381019061067591906128b9565b611240565b6040516106879190612d30565b60405180910390f35b34801561069c57600080fd5b506106a56112ba565b005b3480156106b357600080fd5b506106ce60048036038101906106c9919061281b565b611386565b005b3480156106dc57600080fd5b506106f760048036038101906106f29190612790565b6114c8565b6040516107049190613141565b60405180910390f35b34801561071957600080fd5b50610734600480360381019061072f9190612767565b61154f565b005b34801561074257600080fd5b5061075d600480360381019061075891906128f5565b6116fb565b005b60606003805461076e906132ba565b80601f016020809104026020016040519081016040528092919081815260200182805461079a906132ba565b80156107e75780601f106107bc576101008083540402835291602001916107e7565b820191906000526020600020905b8154815290600101906020018083116107ca57829003601f168201915b5050505050905090565b60006009544211806108505750600760009054906101000a900473ffffffffffffffffffffffffffffffffffffffff1673ffffffffffffffffffffffffffffffffffffffff163373ffffffffffffffffffffffffffffffffffffffff16145b61085957600080fd5b61086383836117c8565b905092915050565b6000600254905090565b60006009544211806108d45750600760009054906101000a900473ffffffffffffffffffffffffffffffffffffffff1673ffffffffffffffffffffffffffffffffffffffff163373ffffffffffffffffffffffffffffffffffffffff16145b6108dd57600080fd5b6108e88484846117e6565b90509392505050565b60006012905090565b600760009054906101000a900473ffffffffffffffffffffffffffffffffffffffff1681565b600061092a6118e7565b905090565b600060095442118061098e5750600760009054906101000a900473ffffffffffffffffffffffffffffffffffffffff1673ffffffffffffffffffffffffffffffffffffffff163373ffffffffffffffffffffffffffffffffffffffff16145b61099757600080fd5b6109a183836119aa565b905092915050565b6109b1611a56565b73ffffffffffffffffffffffffffffffffffffffff166109cf611104565b73ffffffffffffffffffffffffffffffffffffffff1614610a25576040517f08c379a0000000000000000000000000000000000000000000000000000000008152600401610a1c90613041565b60405180910390fd5b610a2d611a5e565b565b600760009054906101000a900473ffffffffffffffffffffffffffffffffffffffff1673ffffffffffffffffffffffffffffffffffffffff163373ffffffffffffffffffffffffffffffffffffffff161480610abd5750610a8e611104565b73ffffffffffffffffffffffffffffffffffffffff163373ffffffffffffffffffffffffffffffffffffffff16145b80610b155750600860009054906101000a900473ffffffffffffffffffffffffffffffffffffffff1673ffffffffffffffffffffffffffffffffffffffff163373ffffffffffffffffffffffffffffffffffffffff16145b610b54576040517f08c379a0000000000000000000000000000000000000000000000000000000008152600401610b4b90613121565b60405180910390fd5b610b5e8282611b00565b5050565b600860009054906101000a900473ffffffffffffffffffffffffffffffffffffffff1681565b610b99610b93611a56565b82611c54565b50565b610ba4611a56565b73ffffffffffffffffffffffffffffffffffffffff16610bc2611104565b73ffffffffffffffffffffffffffffffffffffffff1614610c18576040517f08c379a0000000000000000000000000000000000000000000000000000000008152600401610c0f90613041565b60405180910390fd5b600073ffffffffffffffffffffffffffffffffffffffff168173ffffffffffffffffffffffffffffffffffffffff161415610c5257600080fd5b80600760006101000a81548173ffffffffffffffffffffffffffffffffffffffff021916908373ffffffffffffffffffffffffffffffffffffffff16021790555050565b6000600954421180610cf55750600760009054906101000a900473ffffffffffffffffffffffffffffffffffffffff1673ffffffffffffffffffffffffffffffffffffffff163373ffffffffffffffffffffffffffffffffffffffff16145b610cfe57600080fd5b610d09848484611e28565b600190509392505050565b6000600560009054906101000a900460ff16905090565b60008060008373ffffffffffffffffffffffffffffffffffffffff1673ffffffffffffffffffffffffffffffffffffffff168152602001908152602001600020549050919050565b610d7b611a56565b73ffffffffffffffffffffffffffffffffffffffff16610d99611104565b73ffffffffffffffffffffffffffffffffffffffff1614610def576040517f08c379a0000000000000000000000000000000000000000000000000000000008152600401610de690613041565b60405180910390fd5b600073ffffffffffffffffffffffffffffffffffffffff16600560019054906101000a900473ffffffffffffffffffffffffffffffffffffffff1673ffffffffffffffffffffffffffffffffffffffff167f8be0079c531659141344cd1fd0a4f28419497f9722a3daafe3b4186f6b6457e060405160405180910390a36000600560016101000a81548173ffffffffffffffffffffffffffffffffffffffff021916908373ffffffffffffffffffffffffffffffffffffffff160217905550565b6000610ec383610ebe611a56565b6114c8565b905081811015610f08576040517f08c379a0000000000000000000000000000000000000000000000000000000008152600401610eff90613061565b60405180910390fd5b610f2583610f14611a56565b8484610f2091906131f4565b611e28565b610f2f8383611c54565b505050565b610f3c611a56565b73ffffffffffffffffffffffffffffffffffffffff16610f5a611104565b73ffffffffffffffffffffffffffffffffffffffff1614610fb0576040517f08c379a0000000000000000000000000000000000000000000000000000000008152600401610fa790613041565b60405180910390fd5b600073ffffffffffffffffffffffffffffffffffffffff168173ffffffffffffffffffffffffffffffffffffffff161415610fea57600080fd5b80600860006101000a81548173ffffffffffffffffffffffffffffffffffffffff021916908373ffffffffffffffffffffffffffffffffffffffff16021790555050565b6000611077600660008473ffffffffffffffffffffffffffffffffffffffff1673ffffffffffffffffffffffffffffffffffffffff168152602001908152602001600020611ff3565b9050919050565b611086611a56565b73ffffffffffffffffffffffffffffffffffffffff166110a4611104565b73ffffffffffffffffffffffffffffffffffffffff16146110fa576040517f08c379a00000000000000000000000000000000000000000000000000000000081526004016110f190613041565b60405180910390fd5b611102612001565b565b6000600560019054906101000a900473ffffffffffffffffffffffffffffffffffffffff16905090565b60606004805461113d906132ba565b80601f0160208091040260200160405190810160405280929190818152602001828054611169906132ba565b80156111b65780601f1061118b576101008083540402835291602001916111b6565b820191906000526020600020905b81548152906001019060200180831161119957829003601f168201915b5050505050905090565b60095481565b60006009544211806112255750600760009054906101000a900473ffffffffffffffffffffffffffffffffffffffff1673ffffffffffffffffffffffffffffffffffffffff163373ffffffffffffffffffffffffffffffffffffffff16145b61122e57600080fd5b61123883836120a4565b905092915050565b600060095442118061129f5750600760009054906101000a900473ffffffffffffffffffffffffffffffffffffffff1673ffffffffffffffffffffffffffffffffffffffff163373ffffffffffffffffffffffffffffffffffffffff16145b6112a857600080fd5b6112b28383612198565b905092915050565b6112c2611a56565b73ffffffffffffffffffffffffffffffffffffffff166112e0611104565b73ffffffffffffffffffffffffffffffffffffffff1614611336576040517f08c379a000000000000000000000000000000000000000000000000000000000815260040161132d90613041565b60405180910390fd5b61133e611104565b73ffffffffffffffffffffffffffffffffffffffff166108fc479081150290604051600060405180830381858888f19350505050158015611383573d6000803e3d6000fd5b50565b834211156113c9576040517f08c379a00000000000000000000000000000000000000000000000000000000081526004016113c090612f61565b60405180910390fd5b60007f00000000000000000000000000000000000000000000000000000000000000008888886113f88c6121b6565b8960405160200161140e96959493929190612d66565b604051602081830303815290604052805190602001209050600061143182612214565b905060006114418287878761222e565b90508973ffffffffffffffffffffffffffffffffffffffff168173ffffffffffffffffffffffffffffffffffffffff16146114b1576040517f08c379a00000000000000000000000000000000000000000000000000000000081526004016114a890613001565b60405180910390fd5b6114bc8a8a8a611e28565b50505050505050505050565b6000600160008473ffffffffffffffffffffffffffffffffffffffff1673ffffffffffffffffffffffffffffffffffffffff16815260200190815260200160002060008373ffffffffffffffffffffffffffffffffffffffff1673ffffffffffffffffffffffffffffffffffffffff16815260200190815260200160002054905092915050565b611557611a56565b73ffffffffffffffffffffffffffffffffffffffff16611575611104565b73ffffffffffffffffffffffffffffffffffffffff16146115cb576040517f08c379a00000000000000000000000000000000000000000000000000000000081526004016115c290613041565b60405180910390fd5b600073ffffffffffffffffffffffffffffffffffffffff168173ffffffffffffffffffffffffffffffffffffffff16141561163b576040517f08c379a000000000000000000000000000000000000000000000000000000000815260040161163290612f01565b60405180910390fd5b8073ffffffffffffffffffffffffffffffffffffffff16600560019054906101000a900473ffffffffffffffffffffffffffffffffffffffff1673ffffffffffffffffffffffffffffffffffffffff167f8be0079c531659141344cd1fd0a4f28419497f9722a3daafe3b4186f6b6457e060405160405180910390a380600560016101000a81548173ffffffffffffffffffffffffffffffffffffffff021916908373ffffffffffffffffffffffffffffffffffffffff16021790555050565b611703611a56565b73ffffffffffffffffffffffffffffffffffffffff16611721611104565b73ffffffffffffffffffffffffffffffffffffffff1614611777576040517f08c379a000000000000000000000000000000000000000000000000000000000815260040161176e90613041565b60405180910390fd5b8042106117b9576040517f08c379a00000000000000000000000000000000000000000000000000000000081526004016117b090612f41565b60405180910390fd5b8060098190555050565b505050565b60006117dc6117d5611a56565b8484611e28565b6001905092915050565b60006117f38484846123b9565b6000600160008673ffffffffffffffffffffffffffffffffffffffff1673ffffffffffffffffffffffffffffffffffffffff168152602001908152602001600020600061183e611a56565b73ffffffffffffffffffffffffffffffffffffffff1673ffffffffffffffffffffffffffffffffffffffff168152602001908152602001600020549050828110156118be576040517f08c379a00000000000000000000000000000000000000000000000000000000081526004016118b590613021565b60405180910390fd5b6118db856118ca611a56565b85846118d691906131f4565b611e28565b60019150509392505050565b60007f0000000000000000000000000000000000000000000000000000000000000000461415611939577f000000000000000000000000000000000000000000000000000000000000000090506119a7565b6119a47f00000000000000000000000000000000000000000000000000000000000000007f00000000000000000000000000000000000000000000000000000000000000007f0000000000000000000000000000000000000000000000000000000000000000612638565b90505b90565b6000611a4c6119b7611a56565b8484600160006119c5611a56565b73ffffffffffffffffffffffffffffffffffffffff1673ffffffffffffffffffffffffffffffffffffffff16815260200190815260200160002060008873ffffffffffffffffffffffffffffffffffffffff1673ffffffffffffffffffffffffffffffffffffffff16815260200190815260200160002054611a47919061319e565b611e28565b6001905092915050565b600033905090565b611a66610d14565b611aa5576040517f08c379a0000000000000000000000000000000000000000000000000000000008152600401611a9c90612ec1565b60405180910390fd5b6000600560006101000a81548160ff0219169083151502179055507f5db9ee0a495bf2e6ff9c91a7834c1ba4fdd244a5e8aa4e537bd38aeae4b073aa611ae9611a56565b604051611af69190612d15565b60405180910390a1565b600073ffffffffffffffffffffffffffffffffffffffff168273ffffffffffffffffffffffffffffffffffffffff161415611b70576040517f08c379a0000000000000000000000000000000000000000000000000000000008152600401611b6790613101565b60405180910390fd5b611b7c60008383612672565b8060026000828254611b8e919061319e565b92505081905550806000808473ffffffffffffffffffffffffffffffffffffffff1673ffffffffffffffffffffffffffffffffffffffff1681526020019081526020016000206000828254611be3919061319e565b925050819055508173ffffffffffffffffffffffffffffffffffffffff16600073ffffffffffffffffffffffffffffffffffffffff167fddf252ad1be2c89b69c2b068fc378daa952ba7f163c4a11628f55a4df523b3ef83604051611c489190613141565b60405180910390a35050565b600073ffffffffffffffffffffffffffffffffffffffff168273ffffffffffffffffffffffffffffffffffffffff161415611cc4576040517f08c379a0000000000000000000000000000000000000000000000000000000008152600401611cbb90613081565b60405180910390fd5b611cd082600083612672565b60008060008473ffffffffffffffffffffffffffffffffffffffff1673ffffffffffffffffffffffffffffffffffffffff16815260200190815260200160002054905081811015611d56576040517f08c379a0000000000000000000000000000000000000000000000000000000008152600401611d4d90612ee1565b60405180910390fd5b8181611d6291906131f4565b6000808573ffffffffffffffffffffffffffffffffffffffff1673ffffffffffffffffffffffffffffffffffffffff168152602001908152602001600020819055508160026000828254611db691906131f4565b92505081905550600073ffffffffffffffffffffffffffffffffffffffff168373ffffffffffffffffffffffffffffffffffffffff167fddf252ad1be2c89b69c2b068fc378daa952ba7f163c4a11628f55a4df523b3ef84604051611e1b9190613141565b60405180910390a3505050565b600073ffffffffffffffffffffffffffffffffffffffff168373ffffffffffffffffffffffffffffffffffffffff161415611e98576040517f08c379a0000000000000000000000000000000000000000000000000000000008152600401611e8f906130c1565b60405180910390fd5b600073ffffffffffffffffffffffffffffffffffffffff168273ffffffffffffffffffffffffffffffffffffffff161415611f08576040517f08c379a0000000000000000000000000000000000000000000000000000000008152600401611eff90612f21565b60405180910390fd5b80600160008573ffffffffffffffffffffffffffffffffffffffff1673ffffffffffffffffffffffffffffffffffffffff16815260200190815260200160002060008473ffffffffffffffffffffffffffffffffffffffff1673ffffffffffffffffffffffffffffffffffffffff168152602001908152602001600020819055508173ffffffffffffffffffffffffffffffffffffffff168373ffffffffffffffffffffffffffffffffffffffff167f8c5be1e5ebec7d5bd14f71427d1e84f3dd0314c0f7b2291e5b200ac8c7c3b92583604051611fe69190613141565b60405180910390a3505050565b600081600001549050919050565b612009610d14565b15612049576040517f08c379a000000000000000000000000000000000000000000000000000000000815260040161204090612fc1565b60405180910390fd5b6001600560006101000a81548160ff0219169083151502179055507f62e78cea01bee320cd4e420270b5ea74000d11b0c9f74754ebdbfc544b05a25861208d611a56565b60405161209a9190612d15565b60405180910390a1565b600080600160006120b3611a56565b73ffffffffffffffffffffffffffffffffffffffff1673ffffffffffffffffffffffffffffffffffffffff16815260200190815260200160002060008573ffffffffffffffffffffffffffffffffffffffff1673ffffffffffffffffffffffffffffffffffffffff16815260200190815260200160002054905082811015612170576040517f08c379a0000000000000000000000000000000000000000000000000000000008152600401612167906130e1565b60405180910390fd5b61218d61217b611a56565b85858461218891906131f4565b611e28565b600191505092915050565b60006121ac6121a5611a56565b84846123b9565b6001905092915050565b600080600660008473ffffffffffffffffffffffffffffffffffffffff1673ffffffffffffffffffffffffffffffffffffffff168152602001908152602001600020905061220381611ff3565b915061220e816126ca565b50919050565b60006122276122216118e7565b836126e0565b9050919050565b60007f7fffffffffffffffffffffffffffffff5d576e7357a4501ddfe92f46681b20a08260001c1115612296576040517f08c379a000000000000000000000000000000000000000000000000000000000815260040161228d90612fa1565b60405180910390fd5b601b8460ff1614806122ab5750601c8460ff16145b6122ea576040517f08c379a00000000000000000000000000000000000000000000000000000000081526004016122e190612fe1565b60405180910390fd5b60006001868686866040516000815260200160405260405161230f9493929190612e1a565b6020604051602081039080840390855afa158015612331573d6000803e3d6000fd5b505050602060405103519050600073ffffffffffffffffffffffffffffffffffffffff168173ffffffffffffffffffffffffffffffffffffffff1614156123ad576040517f08c379a00000000000000000000000000000000000000000000000000000000081526004016123a490612e81565b60405180910390fd5b80915050949350505050565b600073ffffffffffffffffffffffffffffffffffffffff168373ffffffffffffffffffffffffffffffffffffffff161415612429576040517f08c379a0000000000000000000000000000000000000000000000000000000008152600401612420906130a1565b60405180910390fd5b600073ffffffffffffffffffffffffffffffffffffffff168273ffffffffffffffffffffffffffffffffffffffff161415612499576040517f08c379a000000000000000000000000000000000000000000000000000000000815260040161249090612ea1565b60405180910390fd5b6124a4838383612672565b60008060008573ffffffffffffffffffffffffffffffffffffffff1673ffffffffffffffffffffffffffffffffffffffff1681526020019081526020016000205490508181101561252a576040517f08c379a000000000000000000000000000000000000000000000000000000000815260040161252190612f81565b60405180910390fd5b818161253691906131f4565b6000808673ffffffffffffffffffffffffffffffffffffffff1673ffffffffffffffffffffffffffffffffffffffff16815260200190815260200160002081905550816000808573ffffffffffffffffffffffffffffffffffffffff1673ffffffffffffffffffffffffffffffffffffffff16815260200190815260200160002060008282546125c6919061319e565b925050819055508273ffffffffffffffffffffffffffffffffffffffff168473ffffffffffffffffffffffffffffffffffffffff167fddf252ad1be2c89b69c2b068fc378daa952ba7f163c4a11628f55a4df523b3ef8460405161262a9190613141565b60405180910390a350505050565b60008383834630604051602001612653959493929190612dc7565b6040516020818303038152906040528051906020012090509392505050565b61267a610d14565b156126ba576040517f08c379a00000000000000000000000000000000000000000000000000000000081526004016126b190612fc1565b60405180910390fd5b6126c58383836117c3565b505050565b6001816000016000828254019250508190555050565b600082826040516020016126f5929190612cde565b60405160208183030381529060405280519060200120905092915050565b6000813590506127228161394e565b92915050565b60008135905061273781613965565b92915050565b60008135905061274c8161397c565b92915050565b60008135905061276181613993565b92915050565b60006020828403121561277957600080fd5b600061278784828501612713565b91505092915050565b600080604083850312156127a357600080fd5b60006127b185828601612713565b92505060206127c285828601612713565b9150509250929050565b6000806000606084860312156127e157600080fd5b60006127ef86828701612713565b935050602061280086828701612713565b92505060406128118682870161273d565b9150509250925092565b600080600080600080600060e0888a03121561283657600080fd5b60006128448a828b01612713565b97505060206128558a828b01612713565b96505060406128668a828b0161273d565b95505060606128778a828b0161273d565b94505060806128888a828b01612752565b93505060a06128998a828b01612728565b92505060c06128aa8a828b01612728565b91505092959891949750929550565b600080604083850312156128cc57600080fd5b60006128da85828601612713565b92505060206128eb8582860161273d565b9150509250929050565b60006020828403121561290757600080fd5b60006129158482850161273d565b91505092915050565b61292781613228565b82525050565b6129368161323a565b82525050565b61294581613246565b82525050565b61295c61295782613246565b6132ec565b82525050565b600061296d82613177565b6129778185613182565b9350612987818560208601613287565b61299081613354565b840191505092915050565b60006129a8601883613182565b91506129b382613365565b602082019050919050565b60006129cb602383613182565b91506129d68261338e565b604082019050919050565b60006129ee601483613182565b91506129f9826133dd565b602082019050919050565b6000612a11602283613182565b9150612a1c82613406565b604082019050919050565b6000612a34602683613182565b9150612a3f82613455565b604082019050919050565b6000612a57602283613182565b9150612a62826134a4565b604082019050919050565b6000612a7a600283613193565b9150612a85826134f3565b600282019050919050565b6000612a9d601a83613182565b9150612aa88261351c565b602082019050919050565b6000612ac0601d83613182565b9150612acb82613545565b602082019050919050565b6000612ae3602683613182565b9150612aee8261356e565b604082019050919050565b6000612b06602283613182565b9150612b11826135bd565b604082019050919050565b6000612b29601083613182565b9150612b348261360c565b602082019050919050565b6000612b4c602283613182565b9150612b5782613635565b604082019050919050565b6000612b6f601e83613182565b9150612b7a82613684565b602082019050919050565b6000612b92602883613182565b9150612b9d826136ad565b604082019050919050565b6000612bb5602083613182565b9150612bc0826136fc565b602082019050919050565b6000612bd8602483613182565b9150612be382613725565b604082019050919050565b6000612bfb602183613182565b9150612c0682613774565b604082019050919050565b6000612c1e602583613182565b9150612c29826137c3565b604082019050919050565b6000612c41602483613182565b9150612c4c82613812565b604082019050919050565b6000612c64602583613182565b9150612c6f82613861565b604082019050919050565b6000612c87601f83613182565b9150612c92826138b0565b602082019050919050565b6000612caa605183613182565b9150612cb5826138d9565b606082019050919050565b612cc981613270565b82525050565b612cd88161327a565b82525050565b6000612ce982612a6d565b9150612cf5828561294b565b602082019150612d05828461294b565b6020820191508190509392505050565b6000602082019050612d2a600083018461291e565b92915050565b6000602082019050612d45600083018461292d565b92915050565b6000602082019050612d60600083018461293c565b92915050565b600060c082019050612d7b600083018961293c565b612d88602083018861291e565b612d95604083018761291e565b612da26060830186612cc0565b612daf6080830185612cc0565b612dbc60a0830184612cc0565b979650505050505050565b600060a082019050612ddc600083018861293c565b612de9602083018761293c565b612df6604083018661293c565b612e036060830185612cc0565b612e10608083018461291e565b9695505050505050565b6000608082019050612e2f600083018761293c565b612e3c6020830186612ccf565b612e49604083018561293c565b612e56606083018461293c565b95945050505050565b60006020820190508181036000830152612e798184612962565b905092915050565b60006020820190508181036000830152612e9a8161299b565b9050919050565b60006020820190508181036000830152612eba816129be565b9050919050565b60006020820190508181036000830152612eda816129e1565b9050919050565b60006020820190508181036000830152612efa81612a04565b9050919050565b60006020820190508181036000830152612f1a81612a27565b9050919050565b60006020820190508181036000830152612f3a81612a4a565b9050919050565b60006020820190508181036000830152612f5a81612a90565b9050919050565b60006020820190508181036000830152612f7a81612ab3565b9050919050565b60006020820190508181036000830152612f9a81612ad6565b9050919050565b60006020820190508181036000830152612fba81612af9565b9050919050565b60006020820190508181036000830152612fda81612b1c565b9050919050565b60006020820190508181036000830152612ffa81612b3f565b9050919050565b6000602082019050818103600083015261301a81612b62565b9050919050565b6000602082019050818103600083015261303a81612b85565b9050919050565b6000602082019050818103600083015261305a81612ba8565b9050919050565b6000602082019050818103600083015261307a81612bcb565b9050919050565b6000602082019050818103600083015261309a81612bee565b9050919050565b600060208201905081810360008301526130ba81612c11565b9050919050565b600060208201905081810360008301526130da81612c34565b9050919050565b600060208201905081810360008301526130fa81612c57565b9050919050565b6000602082019050818103600083015261311a81612c7a565b9050919050565b6000602082019050818103600083015261313a81612c9d565b9050919050565b60006020820190506131566000830184612cc0565b92915050565b60006020820190506131716000830184612ccf565b92915050565b600081519050919050565b600082825260208201905092915050565b600081905092915050565b60006131a982613270565b91506131b483613270565b9250827fffffffffffffffffffffffffffffffffffffffffffffffffffffffffffffffff038211156131e9576131e86132f6565b5b828201905092915050565b60006131ff82613270565b915061320a83613270565b92508282101561321d5761321c6132f6565b5b828203905092915050565b600061323382613250565b9050919050565b60008115159050919050565b6000819050919050565b600073ffffffffffffffffffffffffffffffffffffffff82169050919050565b6000819050919050565b600060ff82169050919050565b60005b838110156132a557808201518184015260208101905061328a565b838111156132b4576000848401525b50505050565b600060028204905060018216806132d257607f821691505b602082108114156132e6576132e5613325565b5b50919050565b6000819050919050565b7f4e487b7100000000000000000000000000000000000000000000000000000000600052601160045260246000fd5b7f4e487b7100000000000000000000000000000000000000000000000000000000600052602260045260246000fd5b6000601f19601f8301169050919050565b7f45434453413a20696e76616c6964207369676e61747572650000000000000000600082015250565b7f45524332303a207472616e7366657220746f20746865207a65726f206164647260008201527f6573730000000000000000000000000000000000000000000000000000000000602082015250565b7f5061757361626c653a206e6f7420706175736564000000000000000000000000600082015250565b7f45524332303a206275726e20616d6f756e7420657863656564732062616c616e60008201527f6365000000000000000000000000000000000000000000000000000000000000602082015250565b7f4f776e61626c653a206e6577206f776e657220697320746865207a65726f206160008201527f6464726573730000000000000000000000000000000000000000000000000000602082015250565b7f45524332303a20617070726f766520746f20746865207a65726f20616464726560008201527f7373000000000000000000000000000000000000000000000000000000000000602082015250565b7f1901000000000000000000000000000000000000000000000000000000000000600082015250565b7f49636f2063616e6e6f7420656e6420696e207468652070617374000000000000600082015250565b7f45524332305065726d69743a206578706972656420646561646c696e65000000600082015250565b7f45524332303a207472616e7366657220616d6f756e742065786365656473206260008201527f616c616e63650000000000000000000000000000000000000000000000000000602082015250565b7f45434453413a20696e76616c6964207369676e6174757265202773272076616c60008201527f7565000000000000000000000000000000000000000000000000000000000000602082015250565b7f5061757361626c653a2070617573656400000000000000000000000000000000600082015250565b7f45434453413a20696e76616c6964207369676e6174757265202776272076616c60008201527f7565000000000000000000000000000000000000000000000000000000000000602082015250565b7f45524332305065726d69743a20696e76616c6964207369676e61747572650000600082015250565b7f45524332303a207472616e7366657220616d6f756e742065786365656473206160008201527f6c6c6f77616e6365000000000000000000000000000000000000000000000000602082015250565b7f4f776e61626c653a2063616c6c6572206973206e6f7420746865206f776e6572600082015250565b7f45524332303a206275726e20616d6f756e74206578636565647320616c6c6f7760008201527f616e636500000000000000000000000000000000000000000000000000000000602082015250565b7f45524332303a206275726e2066726f6d20746865207a65726f2061646472657360008201527f7300000000000000000000000000000000000000000000000000000000000000602082015250565b7f45524332303a207472616e736665722066726f6d20746865207a65726f20616460008201527f6472657373000000000000000000000000000000000000000000000000000000602082015250565b7f45524332303a20617070726f76652066726f6d20746865207a65726f2061646460008201527f7265737300000000000000000000000000000000000000000000000000000000602082015250565b7f45524332303a2064656372656173656420616c6c6f77616e63652062656c6f7760008201527f207a65726f000000000000000000000000000000000000000000000000000000602082015250565b7f45524332303a206d696e7420746f20746865207a65726f206164647265737300600082015250565b7f46756e6374696f6e20616c6c6f776564206f6e6c7920746f206f776e65722c2060008201527f63726f776473616c652028636f6e74726163742920616e6420747261636b656c60208201527f656374696f6e2028636f6e747261637429000000000000000000000000000000604082015250565b61395781613228565b811461396257600080fd5b50565b61396e81613246565b811461397957600080fd5b50565b61398581613270565b811461399057600080fd5b50565b61399c8161327a565b81146139a757600080fd5b5056fea2646970667358221220fde7e9bf606519ec92ad4d64c07ac622256a294754833b808dccb6799af5571064736f6c63430008010033",
  "immutableReferences": {
    "3780": [
      {
        "length": 32,
        "start": 5069
      }
    ],
    "5797": [
      {
        "length": 32,
        "start": 6419
      }
    ],
    "5799": [
      {
        "length": 32,
        "start": 6379
      }
    ],
    "5801": [
      {
        "length": 32,
        "start": 6495
      }
    ],
    "5803": [
      {
        "length": 32,
        "start": 6528
      }
    ],
    "5805": [
      {
        "length": 32,
        "start": 6462
      }
    ]
  },
  "source": "// SPDX-License-Identifier: MIT\npragma solidity ^0.8.0;\n\nimport \"@openzeppelin/contracts/token/ERC20/ERC20.sol\";\nimport \"@openzeppelin/contracts/token/ERC20/extensions/ERC20Burnable.sol\";\nimport \"@openzeppelin/contracts/security/Pausable.sol\";\nimport \"@openzeppelin/contracts/access/Ownable.sol\";\nimport \"@openzeppelin/contracts/token/ERC20/extensions/draft-ERC20Permit.sol\";\n\ncontract Melody is ERC20, ERC20Burnable, Pausable, Ownable, ERC20Permit {\n    address public crowdsaleAddress;\n    address public track_challenge;\n\tuint256 public ICOEndTime;\n\n\tmodifier onlyCrowdsale {\n\t\trequire(msg.sender == crowdsaleAddress);\n\t\t_;\n\t}\n\n\tmodifier afterCrowdsale {\n\t\trequire(block.timestamp > ICOEndTime || msg.sender == crowdsaleAddress);\n\t\t_;\n\t}\n\n    modifier onlyOwnerOrCrowdsale {\n        require(msg.sender == crowdsaleAddress || msg.sender == owner(), \"Function allowed only to owner and crowdsale\");\n        _;\n    }\n\n    modifier onlyOwnerOrCrowdsaleOrTrackChallenge() {\n        require(\n            msg.sender == crowdsaleAddress || msg.sender == owner() || msg.sender == track_challenge, \n            \"Function allowed only to owner, crowdsale (contract) and trackchallenge (contract)\");\n        _;\n    }\n\n    constructor(uint256 _preminted) ERC20(\"Melody\", \"MELD\") ERC20Permit(\"Melody\") {\n        _mint(msg.sender, _preminted);\n    }\n\n    function pause() public onlyOwner {\n        _pause();\n    }\n\n    function unpause() public onlyOwner {\n        _unpause();\n    }\n\n    function mint(address to, uint256 amount) public onlyOwnerOrCrowdsaleOrTrackChallenge {\n        _mint(to, amount);\n    }\n\n    function _beforeTokenTransfer(address from, address to, uint256 amount) internal whenNotPaused override {\n        super._beforeTokenTransfer(from, to, amount);\n    }\n\n    function setCrowdsale(address _crowdsaleAddress) public onlyOwner {\n\t\trequire(_crowdsaleAddress != address(0));\n\t\tcrowdsaleAddress = _crowdsaleAddress;\n\t}\n\n    function setTrackChallenge(address _track_challenge) public onlyOwner {\n        require(_track_challenge != address(0));\n\t\ttrack_challenge = _track_challenge;\n    }\n\n    function setIcoEndTime(uint256 _time) public onlyOwner {\n        require(block.timestamp < _time, \"Ico cannot end in the past\");\n        ICOEndTime = _time;\n    }\n\n    /// @notice Override the functions to not allow token transfers until the end of the ICO\n    function transfer(address _to, uint256 _value) override public afterCrowdsale returns(bool) {\n        return super.transfer(_to, _value);\n    }\n\n    /// @notice Override the functions to not allow token transfers until the end of the ICO\n    function transferFrom(address _from, address _to, uint256 _value) override public afterCrowdsale returns(bool) {\n        return super.transferFrom(_from, _to, _value);\n    }\n\n    /// @notice Override the functions to not allow token transfers until the end of the ICO\n    function approve(address _spender, uint256 _value) override public afterCrowdsale returns(bool) {\n        return super.approve(_spender, _value);\n    }\n\n    /// @notice Override the functions to not allow token transfers until the end of the ICO\n    function increaseAllowance(address _spender, uint _addedValue) override public afterCrowdsale returns(bool success) {\n        return super.increaseAllowance(_spender, _addedValue);\n    }\n\n    /// @notice Override the functions to not allow token transfers until the end of the ICO\n    function decreaseAllowance(address _spender, uint _subtractedValue) override public afterCrowdsale returns(bool success) {\n        return super.decreaseAllowance(_spender, _subtractedValue);\n    }\n\n    /// @notice Override the functions to not allow token transfers until the end of the ICO\n    function approveFrom(address _owner, address _spender, uint256 _value) public afterCrowdsale returns(bool) {\n        _approve(_owner, _spender, _value);\n        return true;\n    }\n\n    // To recieve ETH from uniswapV2Router when swaping\n    receive() external payable {}\n\n    function redeem() public onlyOwner {\n        payable(owner()).transfer(address(this).balance);\n    }\n}\n",
  "sourcePath": "/home/ebalo/Desktop/Projects/blockchain/block-chain/contracts/Melody.sol",
  "compiler": {
    "name": "solc",
    "version": "0.8.1+commit.df193b15.Emscripten.clang"
  },
  "schemaVersion": "3.4.1",
  "updatedAt": "2021-05-19T07:27:37.308Z",
  "networkType": "ethereum",
  "devdoc": {
    "kind": "dev",
    "methods": {
      "DOMAIN_SEPARATOR()": {
        "details": "See {IERC20Permit-DOMAIN_SEPARATOR}."
      },
      "allowance(address,address)": {
        "details": "See {IERC20-allowance}."
      },
      "balanceOf(address)": {
        "details": "See {IERC20-balanceOf}."
      },
      "burn(uint256)": {
        "details": "Destroys `amount` tokens from the caller. See {ERC20-_burn}."
      },
      "burnFrom(address,uint256)": {
        "details": "Destroys `amount` tokens from `account`, deducting from the caller's allowance. See {ERC20-_burn} and {ERC20-allowance}. Requirements: - the caller must have allowance for ``accounts``'s tokens of at least `amount`."
      },
      "decimals()": {
        "details": "Returns the number of decimals used to get its user representation. For example, if `decimals` equals `2`, a balance of `505` tokens should be displayed to a user as `5,05` (`505 / 10 ** 2`). Tokens usually opt for a value of 18, imitating the relationship between Ether and Wei. This is the value {ERC20} uses, unless this function is overridden; NOTE: This information is only used for _display_ purposes: it in no way affects any of the arithmetic of the contract, including {IERC20-balanceOf} and {IERC20-transfer}."
      },
      "name()": {
        "details": "Returns the name of the token."
      },
      "nonces(address)": {
        "details": "See {IERC20Permit-nonces}."
      },
      "owner()": {
        "details": "Returns the address of the current owner."
      },
      "paused()": {
        "details": "Returns true if the contract is paused, and false otherwise."
      },
      "permit(address,address,uint256,uint256,uint8,bytes32,bytes32)": {
        "details": "See {IERC20Permit-permit}."
      },
      "renounceOwnership()": {
        "details": "Leaves the contract without owner. It will not be possible to call `onlyOwner` functions anymore. Can only be called by the current owner. NOTE: Renouncing ownership will leave the contract without an owner, thereby removing any functionality that is only available to the owner."
      },
      "symbol()": {
        "details": "Returns the symbol of the token, usually a shorter version of the name."
      },
      "totalSupply()": {
        "details": "See {IERC20-totalSupply}."
      },
      "transferOwnership(address)": {
        "details": "Transfers ownership of the contract to a new account (`newOwner`). Can only be called by the current owner."
      }
    },
    "version": 1
  },
  "userdoc": {
    "kind": "user",
    "methods": {
      "approve(address,uint256)": {
        "notice": "Override the functions to not allow token transfers until the end of the ICO"
      },
      "approveFrom(address,address,uint256)": {
        "notice": "Override the functions to not allow token transfers until the end of the ICO"
      },
      "decreaseAllowance(address,uint256)": {
        "notice": "Override the functions to not allow token transfers until the end of the ICO"
      },
      "increaseAllowance(address,uint256)": {
        "notice": "Override the functions to not allow token transfers until the end of the ICO"
      },
      "transfer(address,uint256)": {
        "notice": "Override the functions to not allow token transfers until the end of the ICO"
      },
      "transferFrom(address,address,uint256)": {
        "notice": "Override the functions to not allow token transfers until the end of the ICO"
      }
    },
    "version": 1
  }
}