{
  "contractName": "Track",
  "abi": [
    {
      "inputs": [
        {
          "internalType": "contract Melody",
          "name": "_token",
          "type": "address"
        },
        {
          "internalType": "uint256",
          "name": "_song_registration_fee",
          "type": "uint256"
        },
        {
          "internalType": "string",
          "name": "baseTokenURI",
          "type": "string"
        }
      ],
      "stateMutability": "nonpayable",
      "type": "constructor"
    },
    {
      "anonymous": false,
      "inputs": [
        {
          "indexed": true,
          "internalType": "address",
          "name": "owner",
          "type": "address"
        },
        {
          "indexed": true,
          "internalType": "address",
          "name": "approved",
          "type": "address"
        },
        {
          "indexed": true,
          "internalType": "uint256",
          "name": "tokenId",
          "type": "uint256"
        }
      ],
      "name": "Approval",
      "type": "event"
    },
    {
      "anonymous": false,
      "inputs": [
        {
          "indexed": true,
          "internalType": "address",
          "name": "owner",
          "type": "address"
        },
        {
          "indexed": true,
          "internalType": "address",
          "name": "operator",
          "type": "address"
        },
        {
          "indexed": false,
          "internalType": "bool",
          "name": "approved",
          "type": "bool"
        }
      ],
      "name": "ApprovalForAll",
      "type": "event"
    },
    {
      "anonymous": false,
      "inputs": [
        {
          "indexed": false,
          "internalType": "address",
          "name": "payer",
          "type": "address"
        },
        {
          "indexed": false,
          "internalType": "uint256",
          "name": "fee",
          "type": "uint256"
        }
      ],
      "name": "FeePayed",
      "type": "event"
    },
    {
      "anonymous": false,
      "inputs": [
        {
          "indexed": true,
          "internalType": "address",
          "name": "previousOwner",
          "type": "address"
        },
        {
          "indexed": true,
          "internalType": "address",
          "name": "newOwner",
          "type": "address"
        }
      ],
      "name": "OwnershipTransferred",
      "type": "event"
    },
    {
      "anonymous": false,
      "inputs": [
        {
          "indexed": false,
          "internalType": "uint256",
          "name": "amount",
          "type": "uint256"
        }
      ],
      "name": "Redeemed",
      "type": "event"
    },
    {
      "anonymous": false,
      "inputs": [
        {
          "indexed": false,
          "internalType": "address",
          "name": "owner",
          "type": "address"
        },
        {
          "indexed": false,
          "internalType": "uint256",
          "name": "track_id",
          "type": "uint256"
        }
      ],
      "name": "TrackRegistered",
      "type": "event"
    },
    {
      "anonymous": false,
      "inputs": [
        {
          "indexed": true,
          "internalType": "address",
          "name": "from",
          "type": "address"
        },
        {
          "indexed": true,
          "internalType": "address",
          "name": "to",
          "type": "address"
        },
        {
          "indexed": true,
          "internalType": "uint256",
          "name": "tokenId",
          "type": "uint256"
        }
      ],
      "name": "Transfer",
      "type": "event"
    },
    {
      "inputs": [
        {
          "internalType": "address",
          "name": "to",
          "type": "address"
        },
        {
          "internalType": "uint256",
          "name": "tokenId",
          "type": "uint256"
        }
      ],
      "name": "approve",
      "outputs": [],
      "stateMutability": "nonpayable",
      "type": "function"
    },
    {
      "inputs": [
        {
          "internalType": "address",
          "name": "owner",
          "type": "address"
        }
      ],
      "name": "balanceOf",
      "outputs": [
        {
          "internalType": "uint256",
          "name": "",
          "type": "uint256"
        }
      ],
      "stateMutability": "view",
      "type": "function",
      "constant": true
    },
    {
      "inputs": [
        {
          "internalType": "uint256",
          "name": "tokenId",
          "type": "uint256"
        }
      ],
      "name": "burn",
      "outputs": [],
      "stateMutability": "nonpayable",
      "type": "function"
    },
    {
      "inputs": [
        {
          "internalType": "uint256",
          "name": "tokenId",
          "type": "uint256"
        }
      ],
      "name": "getApproved",
      "outputs": [
        {
          "internalType": "address",
          "name": "",
          "type": "address"
        }
      ],
      "stateMutability": "view",
      "type": "function",
      "constant": true
    },
    {
      "inputs": [
        {
          "internalType": "address",
          "name": "owner",
          "type": "address"
        },
        {
          "internalType": "address",
          "name": "operator",
          "type": "address"
        }
      ],
      "name": "isApprovedForAll",
      "outputs": [
        {
          "internalType": "bool",
          "name": "",
          "type": "bool"
        }
      ],
      "stateMutability": "view",
      "type": "function",
      "constant": true
    },
    {
      "inputs": [],
      "name": "name",
      "outputs": [
        {
          "internalType": "string",
          "name": "",
          "type": "string"
        }
      ],
      "stateMutability": "view",
      "type": "function",
      "constant": true
    },
    {
      "inputs": [],
      "name": "owner",
      "outputs": [
        {
          "internalType": "address",
          "name": "",
          "type": "address"
        }
      ],
      "stateMutability": "view",
      "type": "function",
      "constant": true
    },
    {
      "inputs": [
        {
          "internalType": "uint256",
          "name": "tokenId",
          "type": "uint256"
        }
      ],
      "name": "ownerOf",
      "outputs": [
        {
          "internalType": "address",
          "name": "",
          "type": "address"
        }
      ],
      "stateMutability": "view",
      "type": "function",
      "constant": true
    },
    {
      "inputs": [],
      "name": "renounceOwnership",
      "outputs": [],
      "stateMutability": "nonpayable",
      "type": "function"
    },
    {
      "inputs": [
        {
          "internalType": "address",
          "name": "from",
          "type": "address"
        },
        {
          "internalType": "address",
          "name": "to",
          "type": "address"
        },
        {
          "internalType": "uint256",
          "name": "tokenId",
          "type": "uint256"
        }
      ],
      "name": "safeTransferFrom",
      "outputs": [],
      "stateMutability": "nonpayable",
      "type": "function"
    },
    {
      "inputs": [
        {
          "internalType": "address",
          "name": "from",
          "type": "address"
        },
        {
          "internalType": "address",
          "name": "to",
          "type": "address"
        },
        {
          "internalType": "uint256",
          "name": "tokenId",
          "type": "uint256"
        },
        {
          "internalType": "bytes",
          "name": "_data",
          "type": "bytes"
        }
      ],
      "name": "safeTransferFrom",
      "outputs": [],
      "stateMutability": "nonpayable",
      "type": "function"
    },
    {
      "inputs": [
        {
          "internalType": "address",
          "name": "operator",
          "type": "address"
        },
        {
          "internalType": "bool",
          "name": "approved",
          "type": "bool"
        }
      ],
      "name": "setApprovalForAll",
      "outputs": [],
      "stateMutability": "nonpayable",
      "type": "function"
    },
    {
      "inputs": [],
      "name": "symbol",
      "outputs": [
        {
          "internalType": "string",
          "name": "",
          "type": "string"
        }
      ],
      "stateMutability": "view",
      "type": "function",
      "constant": true
    },
    {
      "inputs": [
        {
          "internalType": "uint256",
          "name": "index",
          "type": "uint256"
        }
      ],
      "name": "tokenByIndex",
      "outputs": [
        {
          "internalType": "uint256",
          "name": "",
          "type": "uint256"
        }
      ],
      "stateMutability": "view",
      "type": "function",
      "constant": true
    },
    {
      "inputs": [
        {
          "internalType": "address",
          "name": "owner",
          "type": "address"
        },
        {
          "internalType": "uint256",
          "name": "index",
          "type": "uint256"
        }
      ],
      "name": "tokenOfOwnerByIndex",
      "outputs": [
        {
          "internalType": "uint256",
          "name": "",
          "type": "uint256"
        }
      ],
      "stateMutability": "view",
      "type": "function",
      "constant": true
    },
    {
      "inputs": [],
      "name": "totalSupply",
      "outputs": [
        {
          "internalType": "uint256",
          "name": "",
          "type": "uint256"
        }
      ],
      "stateMutability": "view",
      "type": "function",
      "constant": true
    },
    {
      "inputs": [
        {
          "internalType": "address",
          "name": "from",
          "type": "address"
        },
        {
          "internalType": "address",
          "name": "to",
          "type": "address"
        },
        {
          "internalType": "uint256",
          "name": "tokenId",
          "type": "uint256"
        }
      ],
      "name": "transferFrom",
      "outputs": [],
      "stateMutability": "nonpayable",
      "type": "function"
    },
    {
      "inputs": [
        {
          "internalType": "address",
          "name": "newOwner",
          "type": "address"
        }
      ],
      "name": "transferOwnership",
      "outputs": [],
      "stateMutability": "nonpayable",
      "type": "function"
    },
    {
      "inputs": [
        {
          "internalType": "uint256",
          "name": "tokenId",
          "type": "uint256"
        }
      ],
      "name": "tokenURI",
      "outputs": [
        {
          "internalType": "string",
          "name": "",
          "type": "string"
        }
      ],
      "stateMutability": "view",
      "type": "function",
      "constant": true
    },
    {
      "inputs": [
        {
          "internalType": "bytes4",
          "name": "interfaceId",
          "type": "bytes4"
        }
      ],
      "name": "supportsInterface",
      "outputs": [
        {
          "internalType": "bool",
          "name": "",
          "type": "bool"
        }
      ],
      "stateMutability": "view",
      "type": "function",
      "constant": true
    },
    {
      "inputs": [
        {
          "internalType": "address",
          "name": "musician",
          "type": "address"
        }
      ],
      "name": "registerTrack",
      "outputs": [],
      "stateMutability": "nonpayable",
      "type": "function"
    },
    {
      "inputs": [
        {
          "internalType": "uint256",
          "name": "track_id",
          "type": "uint256"
        }
      ],
      "name": "exists",
      "outputs": [
        {
          "internalType": "bool",
          "name": "",
          "type": "bool"
        }
      ],
      "stateMutability": "view",
      "type": "function",
      "constant": true
    },
    {
      "inputs": [],
      "name": "redeem",
      "outputs": [],
      "stateMutability": "nonpayable",
      "type": "function"
    }
  ],
  "bytecode": "0x60806040523480156200001157600080fd5b50604051620045983803806200459883398181016040528101906200003791906200035f565b6040518060400160405280600b81526020017f4d656c6f6479547261636b0000000000000000000000000000000000000000008152506040518060400160405280600581526020017f4d454c44540000000000000000000000000000000000000000000000000000008152508160009080519060200190620000bb9291906200020f565b508060019080519060200190620000d49291906200020f565b5050506000620000e96200020760201b60201c565b905080600b60006101000a81548173ffffffffffffffffffffffffffffffffffffffff021916908373ffffffffffffffffffffffffffffffffffffffff1602179055508073ffffffffffffffffffffffffffffffffffffffff16600073ffffffffffffffffffffffffffffffffffffffff167f8be0079c531659141344cd1fd0a4f28419497f9722a3daafe3b4186f6b6457e060405160405180910390a35082600e60006101000a81548173ffffffffffffffffffffffffffffffffffffffff021916908373ffffffffffffffffffffffffffffffffffffffff160217905550670de0b6b3a764000082620001df91906200042d565b600d8190555080600f9080519060200190620001fd9291906200020f565b5050505062000654565b600033905090565b8280546200021d9062000516565b90600052602060002090601f0160209004810192826200024157600085556200028d565b82601f106200025c57805160ff19168380011785556200028d565b828001600101855582156200028d579182015b828111156200028c5782518255916020019190600101906200026f565b5b5090506200029c9190620002a0565b5090565b5b80821115620002bb576000816000905550600101620002a1565b5090565b6000620002d6620002d084620003f7565b620003ce565b905082815260208101848484011115620002ef57600080fd5b620002fc848285620004e0565b509392505050565b600081519050620003158162000620565b92915050565b600082601f8301126200032d57600080fd5b81516200033f848260208601620002bf565b91505092915050565b60008151905062000359816200063a565b92915050565b6000806000606084860312156200037557600080fd5b6000620003858682870162000304565b9350506020620003988682870162000348565b925050604084015167ffffffffffffffff811115620003b657600080fd5b620003c4868287016200031b565b9150509250925092565b6000620003da620003ed565b9050620003e882826200054c565b919050565b6000604051905090565b600067ffffffffffffffff821115620004155762000414620005e0565b5b62000420826200060f565b9050602081019050919050565b60006200043a82620004d6565b91506200044783620004d6565b9250817fffffffffffffffffffffffffffffffffffffffffffffffffffffffffffffffff048311821515161562000483576200048262000582565b5b828202905092915050565b60006200049b82620004b6565b9050919050565b6000620004af826200048e565b9050919050565b600073ffffffffffffffffffffffffffffffffffffffff82169050919050565b6000819050919050565b60005b8381101562000500578082015181840152602081019050620004e3565b8381111562000510576000848401525b50505050565b600060028204905060018216806200052f57607f821691505b60208210811415620005465762000545620005b1565b5b50919050565b62000557826200060f565b810181811067ffffffffffffffff82111715620005795762000578620005e0565b5b80604052505050565b7f4e487b7100000000000000000000000000000000000000000000000000000000600052601160045260246000fd5b7f4e487b7100000000000000000000000000000000000000000000000000000000600052602260045260246000fd5b7f4e487b7100000000000000000000000000000000000000000000000000000000600052604160045260246000fd5b6000601f19601f8301169050919050565b6200062b81620004a2565b81146200063757600080fd5b50565b6200064581620004d6565b81146200065157600080fd5b50565b613f3480620006646000396000f3fe608060405234801561001057600080fd5b506004361061014d5760003560e01c80636352211e116100c3578063b88d4fde1161007c578063b88d4fde146103b0578063be040fb0146103cc578063c87b56dd146103d6578063dee4922c14610406578063e985e9c514610422578063f2fde38b146104525761014d565b80636352211e146102ee57806370a082311461031e578063715018a61461034e5780638da5cb5b1461035857806395d89b4114610376578063a22cb465146103945761014d565b806323b872dd1161011557806323b872dd1461020a5780632f745c591461022657806342842e0e1461025657806342966c68146102725780634f558e791461028e5780634f6ccce7146102be5761014d565b806301ffc9a71461015257806306fdde0314610182578063081812fc146101a0578063095ea7b3146101d057806318160ddd146101ec575b600080fd5b61016c60048036038101906101679190612cd5565b61046e565b6040516101799190613213565b60405180910390f35b61018a610480565b604051610197919061322e565b60405180910390f35b6101ba60048036038101906101b59190612d27565b610512565b6040516101c7919061314c565b60405180910390f35b6101ea60048036038101906101e59190612c70565b610597565b005b6101f46106af565b60405161020191906134f0565b60405180910390f35b610224600480360381019061021f9190612b6a565b6106bc565b005b610240600480360381019061023b9190612c70565b61071c565b60405161024d91906134f0565b60405180910390f35b610270600480360381019061026b9190612b6a565b6107c1565b005b61028c60048036038101906102879190612d27565b6107e1565b005b6102a860048036038101906102a39190612d27565b61083d565b6040516102b59190613213565b60405180910390f35b6102d860048036038101906102d39190612d27565b61084f565b6040516102e591906134f0565b60405180910390f35b61030860048036038101906103039190612d27565b6108e6565b604051610315919061314c565b60405180910390f35b61033860048036038101906103339190612b05565b610998565b60405161034591906134f0565b60405180910390f35b610356610a50565b005b610360610b8d565b60405161036d919061314c565b60405180910390f35b61037e610bb7565b60405161038b919061322e565b60405180910390f35b6103ae60048036038101906103a99190612c34565b610c49565b005b6103ca60048036038101906103c59190612bb9565b610dca565b005b6103d4610e2c565b005b6103f060048036038101906103eb9190612d27565b611050565b6040516103fd919061322e565b60405180910390f35b610420600480360381019061041b9190612b05565b611062565b005b61043c60048036038101906104379190612b2e565b6111b8565b6040516104499190613213565b60405180910390f35b61046c60048036038101906104679190612b05565b61124c565b005b6000610479826113f8565b9050919050565b60606000805461048f90613715565b80601f01602080910402602001604051908101604052809291908181526020018280546104bb90613715565b80156105085780601f106104dd57610100808354040283529160200191610508565b820191906000526020600020905b8154815290600101906020018083116104eb57829003601f168201915b5050505050905090565b600061051d82611472565b61055c576040517f08c379a0000000000000000000000000000000000000000000000000000000008152600401610553906133d0565b60405180910390fd5b6004600083815260200190815260200160002060009054906101000a900473ffffffffffffffffffffffffffffffffffffffff169050919050565b60006105a2826108e6565b90508073ffffffffffffffffffffffffffffffffffffffff168373ffffffffffffffffffffffffffffffffffffffff161415610613576040517f08c379a000000000000000000000000000000000000000000000000000000000815260040161060a90613450565b60405180910390fd5b8073ffffffffffffffffffffffffffffffffffffffff166106326114de565b73ffffffffffffffffffffffffffffffffffffffff16148061066157506106608161065b6114de565b6111b8565b5b6106a0576040517f08c379a000000000000000000000000000000000000000000000000000000000815260040161069790613330565b60405180910390fd5b6106aa83836114e6565b505050565b6000600880549050905090565b6106cd6106c76114de565b8261159f565b61070c576040517f08c379a000000000000000000000000000000000000000000000000000000000815260040161070390613490565b60405180910390fd5b61071783838361167d565b505050565b600061072783610998565b8210610768576040517f08c379a000000000000000000000000000000000000000000000000000000000815260040161075f90613250565b60405180910390fd5b600660008473ffffffffffffffffffffffffffffffffffffffff1673ffffffffffffffffffffffffffffffffffffffff168152602001908152602001600020600083815260200190815260200160002054905092915050565b6107dc83838360405180602001604052806000815250610dca565b505050565b6107f26107ec6114de565b8261159f565b610831576040517f08c379a0000000000000000000000000000000000000000000000000000000008152600401610828906134d0565b60405180910390fd5b61083a816118d9565b50565b600061084882611472565b9050919050565b60006108596106af565b821061089a576040517f08c379a0000000000000000000000000000000000000000000000000000000008152600401610891906134b0565b60405180910390fd5b600882815481106108d4577f4e487b7100000000000000000000000000000000000000000000000000000000600052603260045260246000fd5b90600052602060002001549050919050565b6000806002600084815260200190815260200160002060009054906101000a900473ffffffffffffffffffffffffffffffffffffffff169050600073ffffffffffffffffffffffffffffffffffffffff168173ffffffffffffffffffffffffffffffffffffffff16141561098f576040517f08c379a000000000000000000000000000000000000000000000000000000000815260040161098690613370565b60405180910390fd5b80915050919050565b60008073ffffffffffffffffffffffffffffffffffffffff168273ffffffffffffffffffffffffffffffffffffffff161415610a09576040517f08c379a0000000000000000000000000000000000000000000000000000000008152600401610a0090613350565b60405180910390fd5b600360008373ffffffffffffffffffffffffffffffffffffffff1673ffffffffffffffffffffffffffffffffffffffff168152602001908152602001600020549050919050565b610a586114de565b73ffffffffffffffffffffffffffffffffffffffff16610a76610b8d565b73ffffffffffffffffffffffffffffffffffffffff1614610acc576040517f08c379a0000000000000000000000000000000000000000000000000000000008152600401610ac3906133f0565b60405180910390fd5b600073ffffffffffffffffffffffffffffffffffffffff16600b60009054906101000a900473ffffffffffffffffffffffffffffffffffffffff1673ffffffffffffffffffffffffffffffffffffffff167f8be0079c531659141344cd1fd0a4f28419497f9722a3daafe3b4186f6b6457e060405160405180910390a36000600b60006101000a81548173ffffffffffffffffffffffffffffffffffffffff021916908373ffffffffffffffffffffffffffffffffffffffff160217905550565b6000600b60009054906101000a900473ffffffffffffffffffffffffffffffffffffffff16905090565b606060018054610bc690613715565b80601f0160208091040260200160405190810160405280929190818152602001828054610bf290613715565b8015610c3f5780601f10610c1457610100808354040283529160200191610c3f565b820191906000526020600020905b815481529060010190602001808311610c2257829003601f168201915b5050505050905090565b610c516114de565b73ffffffffffffffffffffffffffffffffffffffff168273ffffffffffffffffffffffffffffffffffffffff161415610cbf576040517f08c379a0000000000000000000000000000000000000000000000000000000008152600401610cb6906132f0565b60405180910390fd5b8060056000610ccc6114de565b73ffffffffffffffffffffffffffffffffffffffff1673ffffffffffffffffffffffffffffffffffffffff16815260200190815260200160002060008473ffffffffffffffffffffffffffffffffffffffff1673ffffffffffffffffffffffffffffffffffffffff16815260200190815260200160002060006101000a81548160ff0219169083151502179055508173ffffffffffffffffffffffffffffffffffffffff16610d796114de565b73ffffffffffffffffffffffffffffffffffffffff167f17307eab39ab6107e8899845ad3d59bd9653f200f220920489ca2b5937696c3183604051610dbe9190613213565b60405180910390a35050565b610ddb610dd56114de565b8361159f565b610e1a576040517f08c379a0000000000000000000000000000000000000000000000000000000008152600401610e1190613490565b60405180910390fd5b610e26848484846118e5565b50505050565b610e346114de565b73ffffffffffffffffffffffffffffffffffffffff16610e52610b8d565b73ffffffffffffffffffffffffffffffffffffffff1614610ea8576040517f08c379a0000000000000000000000000000000000000000000000000000000008152600401610e9f906133f0565b60405180910390fd5b60003090506000600e60009054906101000a900473ffffffffffffffffffffffffffffffffffffffff1673ffffffffffffffffffffffffffffffffffffffff166370a08231836040518263ffffffff1660e01b8152600401610f0a919061314c565b60206040518083038186803b158015610f2257600080fd5b505afa158015610f36573d6000803e3d6000fd5b505050506040513d601f19601f82011682018060405250810190610f5a9190612d50565b9050600e60009054906101000a900473ffffffffffffffffffffffffffffffffffffffff1673ffffffffffffffffffffffffffffffffffffffff166323b872dd83610fa3610b8d565b846040518463ffffffff1660e01b8152600401610fc293929190613167565b602060405180830381600087803b158015610fdc57600080fd5b505af1158015610ff0573d6000803e3d6000fd5b505050506040513d601f19601f820116820180604052508101906110149190612cac565b507f82498456531a1065f689ba348ce20bda781238c424cf36748dd40bc282831e038160405161104491906134f0565b60405180910390a15050565b606061105b82611941565b9050919050565b600d54600e60009054906101000a900473ffffffffffffffffffffffffffffffffffffffff1673ffffffffffffffffffffffffffffffffffffffff166370a08231336040518263ffffffff1660e01b81526004016110c0919061314c565b60206040518083038186803b1580156110d857600080fd5b505afa1580156110ec573d6000803e3d6000fd5b505050506040513d601f19601f820116820180604052508101906111109190612d50565b1015611151576040517f08c379a000000000000000000000000000000000000000000000000000000000815260040161114890613470565b60405180910390fd5b611159611a93565b6000611165600c611b61565b90506111718282611b6f565b61117b600c611b8d565b7f2ad552b5146096d9f37fd1026bbd27e931073a7158a742aa16ef20217057d98433826040516111ac9291906131ea565b60405180910390a15050565b6000600560008473ffffffffffffffffffffffffffffffffffffffff1673ffffffffffffffffffffffffffffffffffffffff16815260200190815260200160002060008373ffffffffffffffffffffffffffffffffffffffff1673ffffffffffffffffffffffffffffffffffffffff16815260200190815260200160002060009054906101000a900460ff16905092915050565b6112546114de565b73ffffffffffffffffffffffffffffffffffffffff16611272610b8d565b73ffffffffffffffffffffffffffffffffffffffff16146112c8576040517f08c379a00000000000000000000000000000000000000000000000000000000081526004016112bf906133f0565b60405180910390fd5b600073ffffffffffffffffffffffffffffffffffffffff168173ffffffffffffffffffffffffffffffffffffffff161415611338576040517f08c379a000000000000000000000000000000000000000000000000000000000815260040161132f90613290565b60405180910390fd5b8073ffffffffffffffffffffffffffffffffffffffff16600b60009054906101000a900473ffffffffffffffffffffffffffffffffffffffff1673ffffffffffffffffffffffffffffffffffffffff167f8be0079c531659141344cd1fd0a4f28419497f9722a3daafe3b4186f6b6457e060405160405180910390a380600b60006101000a81548173ffffffffffffffffffffffffffffffffffffffff021916908373ffffffffffffffffffffffffffffffffffffffff16021790555050565b60007f780e9d63000000000000000000000000000000000000000000000000000000007bffffffffffffffffffffffffffffffffffffffffffffffffffffffff1916827bffffffffffffffffffffffffffffffffffffffffffffffffffffffff1916148061146b575061146a82611ba3565b5b9050919050565b60008073ffffffffffffffffffffffffffffffffffffffff166002600084815260200190815260200160002060009054906101000a900473ffffffffffffffffffffffffffffffffffffffff1673ffffffffffffffffffffffffffffffffffffffff1614159050919050565b600033905090565b816004600083815260200190815260200160002060006101000a81548173ffffffffffffffffffffffffffffffffffffffff021916908373ffffffffffffffffffffffffffffffffffffffff160217905550808273ffffffffffffffffffffffffffffffffffffffff16611559836108e6565b73ffffffffffffffffffffffffffffffffffffffff167f8c5be1e5ebec7d5bd14f71427d1e84f3dd0314c0f7b2291e5b200ac8c7c3b92560405160405180910390a45050565b60006115aa82611472565b6115e9576040517f08c379a00000000000000000000000000000000000000000000000000000000081526004016115e090613310565b60405180910390fd5b60006115f4836108e6565b90508073ffffffffffffffffffffffffffffffffffffffff168473ffffffffffffffffffffffffffffffffffffffff16148061166357508373ffffffffffffffffffffffffffffffffffffffff1661164b84610512565b73ffffffffffffffffffffffffffffffffffffffff16145b80611674575061167381856111b8565b5b91505092915050565b8273ffffffffffffffffffffffffffffffffffffffff1661169d826108e6565b73ffffffffffffffffffffffffffffffffffffffff16146116f3576040517f08c379a00000000000000000000000000000000000000000000000000000000081526004016116ea90613410565b60405180910390fd5b600073ffffffffffffffffffffffffffffffffffffffff168273ffffffffffffffffffffffffffffffffffffffff161415611763576040517f08c379a000000000000000000000000000000000000000000000000000000000815260040161175a906132d0565b60405180910390fd5b61176e838383611c85565b6117796000826114e6565b6001600360008573ffffffffffffffffffffffffffffffffffffffff1673ffffffffffffffffffffffffffffffffffffffff16815260200190815260200160002060008282546117c9919061362b565b925050819055506001600360008473ffffffffffffffffffffffffffffffffffffffff1673ffffffffffffffffffffffffffffffffffffffff168152602001908152602001600020600082825461182091906135a4565b92505081905550816002600083815260200190815260200160002060006101000a81548173ffffffffffffffffffffffffffffffffffffffff021916908373ffffffffffffffffffffffffffffffffffffffff160217905550808273ffffffffffffffffffffffffffffffffffffffff168473ffffffffffffffffffffffffffffffffffffffff167fddf252ad1be2c89b69c2b068fc378daa952ba7f163c4a11628f55a4df523b3ef60405160405180910390a4505050565b6118e281611c95565b50565b6118f084848461167d565b6118fc84848484611ce8565b61193b576040517f08c379a000000000000000000000000000000000000000000000000000000000815260040161193290613270565b60405180910390fd5b50505050565b606061194c82611472565b61198b576040517f08c379a0000000000000000000000000000000000000000000000000000000008152600401611982906133b0565b60405180910390fd5b6000600a600084815260200190815260200160002080546119ab90613715565b80601f01602080910402602001604051908101604052809291908181526020018280546119d790613715565b8015611a245780601f106119f957610100808354040283529160200191611a24565b820191906000526020600020905b815481529060010190602001808311611a0757829003601f168201915b505050505090506000611a35611e7f565b9050600081511415611a4b578192505050611a8e565b600082511115611a80578082604051602001611a68929190613128565b60405160208183030381529060405292505050611a8e565b611a8984611f11565b925050505b919050565b600e60009054906101000a900473ffffffffffffffffffffffffffffffffffffffff1673ffffffffffffffffffffffffffffffffffffffff166379cc679033600d546040518363ffffffff1660e01b8152600401611af29291906131ea565b600060405180830381600087803b158015611b0c57600080fd5b505af1158015611b20573d6000803e3d6000fd5b505050507f2899dc8c12def1caa9accb64257cf2fd9f960f21bb27a560a757eae3c2ec43c133600d54604051611b579291906131ea565b60405180910390a1565b600081600001549050919050565b611b89828260405180602001604052806000815250611fb8565b5050565b6001816000016000828254019250508190555050565b60007f80ac58cd000000000000000000000000000000000000000000000000000000007bffffffffffffffffffffffffffffffffffffffffffffffffffffffff1916827bffffffffffffffffffffffffffffffffffffffffffffffffffffffff19161480611c6e57507f5b5e139f000000000000000000000000000000000000000000000000000000007bffffffffffffffffffffffffffffffffffffffffffffffffffffffff1916827bffffffffffffffffffffffffffffffffffffffffffffffffffffffff1916145b80611c7e5750611c7d82612013565b5b9050919050565b611c9083838361207d565b505050565b611c9e81612191565b6000600a60008381526020019081526020016000208054611cbe90613715565b905014611ce557600a60008281526020019081526020016000206000611ce491906129ad565b5b50565b6000611d098473ffffffffffffffffffffffffffffffffffffffff166122a2565b15611e72578373ffffffffffffffffffffffffffffffffffffffff1663150b7a02611d326114de565b8786866040518563ffffffff1660e01b8152600401611d54949392919061319e565b602060405180830381600087803b158015611d6e57600080fd5b505af1925050508015611d9f57506040513d601f19601f82011682018060405250810190611d9c9190612cfe565b60015b611e22573d8060008114611dcf576040519150601f19603f3d011682016040523d82523d6000602084013e611dd4565b606091505b50600081511415611e1a576040517f08c379a0000000000000000000000000000000000000000000000000000000008152600401611e1190613270565b60405180910390fd5b805181602001fd5b63150b7a0260e01b7bffffffffffffffffffffffffffffffffffffffffffffffffffffffff1916817bffffffffffffffffffffffffffffffffffffffffffffffffffffffff191614915050611e77565b600190505b949350505050565b6060600f8054611e8e90613715565b80601f0160208091040260200160405190810160405280929190818152602001828054611eba90613715565b8015611f075780601f10611edc57610100808354040283529160200191611f07565b820191906000526020600020905b815481529060010190602001808311611eea57829003601f168201915b5050505050905090565b6060611f1c82611472565b611f5b576040517f08c379a0000000000000000000000000000000000000000000000000000000008152600401611f5290613430565b60405180910390fd5b6000611f65611e7f565b90506000815111611f855760405180602001604052806000815250611fb0565b80611f8f846122b5565b604051602001611fa0929190613128565b6040516020818303038152906040525b915050919050565b611fc28383612462565b611fcf6000848484611ce8565b61200e576040517f08c379a000000000000000000000000000000000000000000000000000000000815260040161200590613270565b60405180910390fd5b505050565b60007f01ffc9a7000000000000000000000000000000000000000000000000000000007bffffffffffffffffffffffffffffffffffffffffffffffffffffffff1916827bffffffffffffffffffffffffffffffffffffffffffffffffffffffff1916149050919050565b612088838383612630565b600073ffffffffffffffffffffffffffffffffffffffff168373ffffffffffffffffffffffffffffffffffffffff1614156120cb576120c681612635565b61210a565b8173ffffffffffffffffffffffffffffffffffffffff168373ffffffffffffffffffffffffffffffffffffffff161461210957612108838261267e565b5b5b600073ffffffffffffffffffffffffffffffffffffffff168273ffffffffffffffffffffffffffffffffffffffff16141561214d57612148816127eb565b61218c565b8273ffffffffffffffffffffffffffffffffffffffff168273ffffffffffffffffffffffffffffffffffffffff161461218b5761218a828261292e565b5b5b505050565b600061219c826108e6565b90506121aa81600084611c85565b6121b56000836114e6565b6001600360008373ffffffffffffffffffffffffffffffffffffffff1673ffffffffffffffffffffffffffffffffffffffff1681526020019081526020016000206000828254612205919061362b565b925050819055506002600083815260200190815260200160002060006101000a81549073ffffffffffffffffffffffffffffffffffffffff021916905581600073ffffffffffffffffffffffffffffffffffffffff168273ffffffffffffffffffffffffffffffffffffffff167fddf252ad1be2c89b69c2b068fc378daa952ba7f163c4a11628f55a4df523b3ef60405160405180910390a45050565b600080823b905060008111915050919050565b606060008214156122fd576040518060400160405280600181526020017f3000000000000000000000000000000000000000000000000000000000000000815250905061245d565b600082905060005b6000821461232f57808061231890613778565b915050600a8261232891906135fa565b9150612305565b60008167ffffffffffffffff811115612371577f4e487b7100000000000000000000000000000000000000000000000000000000600052604160045260246000fd5b6040519080825280601f01601f1916602001820160405280156123a35781602001600182028036833780820191505090505b5090505b60008514612456576001826123bc919061362b565b9150600a856123cb91906137c1565b60306123d791906135a4565b60f81b818381518110612413577f4e487b7100000000000000000000000000000000000000000000000000000000600052603260045260246000fd5b60200101907effffffffffffffffffffffffffffffffffffffffffffffffffffffffffffff1916908160001a905350600a8561244f91906135fa565b94506123a7565b8093505050505b919050565b600073ffffffffffffffffffffffffffffffffffffffff168273ffffffffffffffffffffffffffffffffffffffff1614156124d2576040517f08c379a00000000000000000000000000000000000000000000000000000000081526004016124c990613390565b60405180910390fd5b6124db81611472565b1561251b576040517f08c379a0000000000000000000000000000000000000000000000000000000008152600401612512906132b0565b60405180910390fd5b61252760008383611c85565b6001600360008473ffffffffffffffffffffffffffffffffffffffff1673ffffffffffffffffffffffffffffffffffffffff168152602001908152602001600020600082825461257791906135a4565b92505081905550816002600083815260200190815260200160002060006101000a81548173ffffffffffffffffffffffffffffffffffffffff021916908373ffffffffffffffffffffffffffffffffffffffff160217905550808273ffffffffffffffffffffffffffffffffffffffff16600073ffffffffffffffffffffffffffffffffffffffff167fddf252ad1be2c89b69c2b068fc378daa952ba7f163c4a11628f55a4df523b3ef60405160405180910390a45050565b505050565b6008805490506009600083815260200190815260200160002081905550600881908060018154018082558091505060019003906000526020600020016000909190919091505550565b6000600161268b84610998565b612695919061362b565b905060006007600084815260200190815260200160002054905081811461277a576000600660008673ffffffffffffffffffffffffffffffffffffffff1673ffffffffffffffffffffffffffffffffffffffff168152602001908152602001600020600084815260200190815260200160002054905080600660008773ffffffffffffffffffffffffffffffffffffffff1673ffffffffffffffffffffffffffffffffffffffff168152602001908152602001600020600084815260200190815260200160002081905550816007600083815260200190815260200160002081905550505b6007600084815260200190815260200160002060009055600660008573ffffffffffffffffffffffffffffffffffffffff1673ffffffffffffffffffffffffffffffffffffffff16815260200190815260200160002060008381526020019081526020016000206000905550505050565b600060016008805490506127ff919061362b565b9050600060096000848152602001908152602001600020549050600060088381548110612855577f4e487b7100000000000000000000000000000000000000000000000000000000600052603260045260246000fd5b90600052602060002001549050806008838154811061289d577f4e487b7100000000000000000000000000000000000000000000000000000000600052603260045260246000fd5b906000526020600020018190555081600960008381526020019081526020016000208190555060096000858152602001908152602001600020600090556008805480612912577f4e487b7100000000000000000000000000000000000000000000000000000000600052603160045260246000fd5b6001900381819060005260206000200160009055905550505050565b600061293983610998565b905081600660008573ffffffffffffffffffffffffffffffffffffffff1673ffffffffffffffffffffffffffffffffffffffff168152602001908152602001600020600083815260200190815260200160002081905550806007600084815260200190815260200160002081905550505050565b5080546129b990613715565b6000825580601f106129cb57506129ea565b601f0160209004906000526020600020908101906129e991906129ed565b5b50565b5b80821115612a065760008160009055506001016129ee565b5090565b6000612a1d612a1884613530565b61350b565b905082815260208101848484011115612a3557600080fd5b612a408482856136d3565b509392505050565b600081359050612a5781613ea2565b92915050565b600081359050612a6c81613eb9565b92915050565b600081519050612a8181613eb9565b92915050565b600081359050612a9681613ed0565b92915050565b600081519050612aab81613ed0565b92915050565b600082601f830112612ac257600080fd5b8135612ad2848260208601612a0a565b91505092915050565b600081359050612aea81613ee7565b92915050565b600081519050612aff81613ee7565b92915050565b600060208284031215612b1757600080fd5b6000612b2584828501612a48565b91505092915050565b60008060408385031215612b4157600080fd5b6000612b4f85828601612a48565b9250506020612b6085828601612a48565b9150509250929050565b600080600060608486031215612b7f57600080fd5b6000612b8d86828701612a48565b9350506020612b9e86828701612a48565b9250506040612baf86828701612adb565b9150509250925092565b60008060008060808587031215612bcf57600080fd5b6000612bdd87828801612a48565b9450506020612bee87828801612a48565b9350506040612bff87828801612adb565b925050606085013567ffffffffffffffff811115612c1c57600080fd5b612c2887828801612ab1565b91505092959194509250565b60008060408385031215612c4757600080fd5b6000612c5585828601612a48565b9250506020612c6685828601612a5d565b9150509250929050565b60008060408385031215612c8357600080fd5b6000612c9185828601612a48565b9250506020612ca285828601612adb565b9150509250929050565b600060208284031215612cbe57600080fd5b6000612ccc84828501612a72565b91505092915050565b600060208284031215612ce757600080fd5b6000612cf584828501612a87565b91505092915050565b600060208284031215612d1057600080fd5b6000612d1e84828501612a9c565b91505092915050565b600060208284031215612d3957600080fd5b6000612d4784828501612adb565b91505092915050565b600060208284031215612d6257600080fd5b6000612d7084828501612af0565b91505092915050565b612d828161365f565b82525050565b612d9181613671565b82525050565b6000612da282613561565b612dac8185613577565b9350612dbc8185602086016136e2565b612dc5816138ae565b840191505092915050565b6000612ddb8261356c565b612de58185613588565b9350612df58185602086016136e2565b612dfe816138ae565b840191505092915050565b6000612e148261356c565b612e1e8185613599565b9350612e2e8185602086016136e2565b80840191505092915050565b6000612e47602b83613588565b9150612e52826138bf565b604082019050919050565b6000612e6a603283613588565b9150612e758261390e565b604082019050919050565b6000612e8d602683613588565b9150612e988261395d565b604082019050919050565b6000612eb0601c83613588565b9150612ebb826139ac565b602082019050919050565b6000612ed3602483613588565b9150612ede826139d5565b604082019050919050565b6000612ef6601983613588565b9150612f0182613a24565b602082019050919050565b6000612f19602c83613588565b9150612f2482613a4d565b604082019050919050565b6000612f3c603883613588565b9150612f4782613a9c565b604082019050919050565b6000612f5f602a83613588565b9150612f6a82613aeb565b604082019050919050565b6000612f82602983613588565b9150612f8d82613b3a565b604082019050919050565b6000612fa5602083613588565b9150612fb082613b89565b602082019050919050565b6000612fc8603183613588565b9150612fd382613bb2565b604082019050919050565b6000612feb602c83613588565b9150612ff682613c01565b604082019050919050565b600061300e602083613588565b915061301982613c50565b602082019050919050565b6000613031602983613588565b915061303c82613c79565b604082019050919050565b6000613054602f83613588565b915061305f82613cc8565b604082019050919050565b6000613077602183613588565b915061308282613d17565b604082019050919050565b600061309a602383613588565b91506130a582613d66565b604082019050919050565b60006130bd603183613588565b91506130c882613db5565b604082019050919050565b60006130e0602c83613588565b91506130eb82613e04565b604082019050919050565b6000613103603083613588565b915061310e82613e53565b604082019050919050565b613122816136c9565b82525050565b60006131348285612e09565b91506131408284612e09565b91508190509392505050565b60006020820190506131616000830184612d79565b92915050565b600060608201905061317c6000830186612d79565b6131896020830185612d79565b6131966040830184613119565b949350505050565b60006080820190506131b36000830187612d79565b6131c06020830186612d79565b6131cd6040830185613119565b81810360608301526131df8184612d97565b905095945050505050565b60006040820190506131ff6000830185612d79565b61320c6020830184613119565b9392505050565b60006020820190506132286000830184612d88565b92915050565b600060208201905081810360008301526132488184612dd0565b905092915050565b6000602082019050818103600083015261326981612e3a565b9050919050565b6000602082019050818103600083015261328981612e5d565b9050919050565b600060208201905081810360008301526132a981612e80565b9050919050565b600060208201905081810360008301526132c981612ea3565b9050919050565b600060208201905081810360008301526132e981612ec6565b9050919050565b6000602082019050818103600083015261330981612ee9565b9050919050565b6000602082019050818103600083015261332981612f0c565b9050919050565b6000602082019050818103600083015261334981612f2f565b9050919050565b6000602082019050818103600083015261336981612f52565b9050919050565b6000602082019050818103600083015261338981612f75565b9050919050565b600060208201905081810360008301526133a981612f98565b9050919050565b600060208201905081810360008301526133c981612fbb565b9050919050565b600060208201905081810360008301526133e981612fde565b9050919050565b6000602082019050818103600083015261340981613001565b9050919050565b6000602082019050818103600083015261342981613024565b9050919050565b6000602082019050818103600083015261344981613047565b9050919050565b600060208201905081810360008301526134698161306a565b9050919050565b600060208201905081810360008301526134898161308d565b9050919050565b600060208201905081810360008301526134a9816130b0565b9050919050565b600060208201905081810360008301526134c9816130d3565b9050919050565b600060208201905081810360008301526134e9816130f6565b9050919050565b60006020820190506135056000830184613119565b92915050565b6000613515613526565b90506135218282613747565b919050565b6000604051905090565b600067ffffffffffffffff82111561354b5761354a61387f565b5b613554826138ae565b9050602081019050919050565b600081519050919050565b600081519050919050565b600082825260208201905092915050565b600082825260208201905092915050565b600081905092915050565b60006135af826136c9565b91506135ba836136c9565b9250827fffffffffffffffffffffffffffffffffffffffffffffffffffffffffffffffff038211156135ef576135ee6137f2565b5b828201905092915050565b6000613605826136c9565b9150613610836136c9565b9250826136205761361f613821565b5b828204905092915050565b6000613636826136c9565b9150613641836136c9565b925082821015613654576136536137f2565b5b828203905092915050565b600061366a826136a9565b9050919050565b60008115159050919050565b60007fffffffff0000000000000000000000000000000000000000000000000000000082169050919050565b600073ffffffffffffffffffffffffffffffffffffffff82169050919050565b6000819050919050565b82818337600083830152505050565b60005b838110156137005780820151818401526020810190506136e5565b8381111561370f576000848401525b50505050565b6000600282049050600182168061372d57607f821691505b6020821081141561374157613740613850565b5b50919050565b613750826138ae565b810181811067ffffffffffffffff8211171561376f5761376e61387f565b5b80604052505050565b6000613783826136c9565b91507fffffffffffffffffffffffffffffffffffffffffffffffffffffffffffffffff8214156137b6576137b56137f2565b5b600182019050919050565b60006137cc826136c9565b91506137d7836136c9565b9250826137e7576137e6613821565b5b828206905092915050565b7f4e487b7100000000000000000000000000000000000000000000000000000000600052601160045260246000fd5b7f4e487b7100000000000000000000000000000000000000000000000000000000600052601260045260246000fd5b7f4e487b7100000000000000000000000000000000000000000000000000000000600052602260045260246000fd5b7f4e487b7100000000000000000000000000000000000000000000000000000000600052604160045260246000fd5b6000601f19601f8301169050919050565b7f455243373231456e756d657261626c653a206f776e657220696e646578206f7560008201527f74206f6620626f756e6473000000000000000000000000000000000000000000602082015250565b7f4552433732313a207472616e7366657220746f206e6f6e20455243373231526560008201527f63656976657220696d706c656d656e7465720000000000000000000000000000602082015250565b7f4f776e61626c653a206e6577206f776e657220697320746865207a65726f206160008201527f6464726573730000000000000000000000000000000000000000000000000000602082015250565b7f4552433732313a20746f6b656e20616c7265616479206d696e74656400000000600082015250565b7f4552433732313a207472616e7366657220746f20746865207a65726f2061646460008201527f7265737300000000000000000000000000000000000000000000000000000000602082015250565b7f4552433732313a20617070726f766520746f2063616c6c657200000000000000600082015250565b7f4552433732313a206f70657261746f7220717565727920666f72206e6f6e657860008201527f697374656e7420746f6b656e0000000000000000000000000000000000000000602082015250565b7f4552433732313a20617070726f76652063616c6c6572206973206e6f74206f7760008201527f6e6572206e6f7220617070726f76656420666f7220616c6c0000000000000000602082015250565b7f4552433732313a2062616c616e636520717565727920666f7220746865207a6560008201527f726f206164647265737300000000000000000000000000000000000000000000602082015250565b7f4552433732313a206f776e657220717565727920666f72206e6f6e657869737460008201527f656e7420746f6b656e0000000000000000000000000000000000000000000000602082015250565b7f4552433732313a206d696e7420746f20746865207a65726f2061646472657373600082015250565b7f45524337323155524953746f726167653a2055524920717565727920666f722060008201527f6e6f6e6578697374656e7420746f6b656e000000000000000000000000000000602082015250565b7f4552433732313a20617070726f76656420717565727920666f72206e6f6e657860008201527f697374656e7420746f6b656e0000000000000000000000000000000000000000602082015250565b7f4f776e61626c653a2063616c6c6572206973206e6f7420746865206f776e6572600082015250565b7f4552433732313a207472616e73666572206f6620746f6b656e2074686174206960008201527f73206e6f74206f776e0000000000000000000000000000000000000000000000602082015250565b7f4552433732314d657461646174613a2055524920717565727920666f72206e6f60008201527f6e6578697374656e7420746f6b656e0000000000000000000000000000000000602082015250565b7f4552433732313a20617070726f76616c20746f2063757272656e74206f776e6560008201527f7200000000000000000000000000000000000000000000000000000000000000602082015250565b7f4e6f7420656e6f7567682066756e647320746f2072656769737465722061207360008201527f6f6e670000000000000000000000000000000000000000000000000000000000602082015250565b7f4552433732313a207472616e736665722063616c6c6572206973206e6f74206f60008201527f776e6572206e6f7220617070726f766564000000000000000000000000000000602082015250565b7f455243373231456e756d657261626c653a20676c6f62616c20696e646578206f60008201527f7574206f6620626f756e64730000000000000000000000000000000000000000602082015250565b7f4552433732314275726e61626c653a2063616c6c6572206973206e6f74206f7760008201527f6e6572206e6f7220617070726f76656400000000000000000000000000000000602082015250565b613eab8161365f565b8114613eb657600080fd5b50565b613ec281613671565b8114613ecd57600080fd5b50565b613ed98161367d565b8114613ee457600080fd5b50565b613ef0816136c9565b8114613efb57600080fd5b5056fea2646970667358221220a6e7a4cd8bad706d8fa3864dda9ac19f15a8d10e4f81f5ac1b960d9f5af5126f64736f6c63430008010033",
  "immutableReferences": {},
  "source": "// SPDX-License-Identifier: MIT\npragma solidity ^0.8.0;\n\nimport \"./Melody.sol\";\nimport \"@openzeppelin/contracts/token/ERC721/ERC721.sol\";\nimport \"@openzeppelin/contracts/token/ERC721/extensions/ERC721Enumerable.sol\";\nimport \"@openzeppelin/contracts/token/ERC721/extensions/ERC721URIStorage.sol\";\nimport \"@openzeppelin/contracts/token/ERC721/extensions/ERC721Burnable.sol\";\nimport \"@openzeppelin/contracts/access/Ownable.sol\";\nimport \"@openzeppelin/contracts/utils/Counters.sol\";\n\ncontract Track is ERC721, ERC721Enumerable, ERC721URIStorage, ERC721Burnable, Ownable {\n    using Counters for Counters.Counter;\n    Counters.Counter private _tokenIds;\n\n\tevent TrackRegistered(address owner, uint256 track_id);\n\tevent FeePayed(address payer, uint256 fee);\n\tevent Redeemed(uint256 amount);\n\t\n\tuint256 song_registration_fee;\n\tMelody token;\n\n\tstring private _baseTokenURI;\n\n\tmodifier canRegisterSong() {\n\t\trequire(token.balanceOf(msg.sender) >= song_registration_fee, \"Not enough funds to register a song\");\n\t\t_;\n\t}\n\n    constructor(Melody _token, uint256 _song_registration_fee, string memory baseTokenURI) ERC721(\"MelodyTrack\", \"MELDT\") {\n\t\ttoken = _token;\n\t\tsong_registration_fee = _song_registration_fee * 1 ether;\n\t\t_baseTokenURI = baseTokenURI;\n\t}\n\n    function _baseURI() internal view override returns (string memory) {\n        return _baseTokenURI;\n    }\n\n    function _beforeTokenTransfer(address from, address to, uint256 tokenId) internal override(ERC721, ERC721Enumerable) {\n        super._beforeTokenTransfer(from, to, tokenId);\n    }\n\n    function _burn(uint256 tokenId) internal override(ERC721, ERC721URIStorage) {\n        super._burn(tokenId);\n    }\n\n    function tokenURI(uint256 tokenId) public view override(ERC721, ERC721URIStorage) returns (string memory) {\n        return super.tokenURI(tokenId);\n    }\n\n    function supportsInterface(bytes4 interfaceId)\n        public\n        view\n        override(ERC721, ERC721Enumerable)\n        returns (bool)\n    {\n        return super.supportsInterface(interfaceId);\n    }\n\n    function registerTrack(address musician) public canRegisterSong {\n\t\tpayRegistrationFee();\n\n\t\tuint256 track_id = _tokenIds.current();\n        _safeMint(musician, track_id);\n        _tokenIds.increment();\n\n\t\temit TrackRegistered(msg.sender, track_id);\n    }\n\n\tfunction payRegistrationFee() internal {\n\t\ttoken.burnFrom(msg.sender, song_registration_fee);\n\t\temit FeePayed(msg.sender, song_registration_fee);\n\t}\n\n\tfunction exists(uint256 track_id) public view returns(bool) {\n\t\treturn _exists(track_id);\n\t}\n\n\tfunction redeem() public onlyOwner {\n\t\taddress addr = address(this);\n\t\tuint256 balance = token.balanceOf(addr);\n\t\ttoken.transferFrom(addr, owner(), balance);\n\n\t\temit Redeemed(balance);\n\t}\n}",
  "sourcePath": "/home/ebalo/Desktop/Projects/blockchain/block-chain/contracts/Track.sol",
  "compiler": {
    "name": "solc",
    "version": "0.8.1+commit.df193b15.Emscripten.clang"
  },
  "schemaVersion": "3.4.1",
  "updatedAt": "2021-05-25T09:59:44.842Z",
  "networkType": "ethereum",
  "devdoc": {
    "kind": "dev",
    "methods": {
      "approve(address,uint256)": {
        "details": "See {IERC721-approve}."
      },
      "balanceOf(address)": {
        "details": "See {IERC721-balanceOf}."
      },
      "burn(uint256)": {
        "details": "Burns `tokenId`. See {ERC721-_burn}. Requirements: - The caller must own `tokenId` or be an approved operator."
      },
      "getApproved(uint256)": {
        "details": "See {IERC721-getApproved}."
      },
      "isApprovedForAll(address,address)": {
        "details": "See {IERC721-isApprovedForAll}."
      },
      "name()": {
        "details": "See {IERC721Metadata-name}."
      },
      "owner()": {
        "details": "Returns the address of the current owner."
      },
      "ownerOf(uint256)": {
        "details": "See {IERC721-ownerOf}."
      },
      "renounceOwnership()": {
        "details": "Leaves the contract without owner. It will not be possible to call `onlyOwner` functions anymore. Can only be called by the current owner. NOTE: Renouncing ownership will leave the contract without an owner, thereby removing any functionality that is only available to the owner."
      },
      "safeTransferFrom(address,address,uint256)": {
        "details": "See {IERC721-safeTransferFrom}."
      },
      "safeTransferFrom(address,address,uint256,bytes)": {
        "details": "See {IERC721-safeTransferFrom}."
      },
      "setApprovalForAll(address,bool)": {
        "details": "See {IERC721-setApprovalForAll}."
      },
      "symbol()": {
        "details": "See {IERC721Metadata-symbol}."
      },
      "tokenByIndex(uint256)": {
        "details": "See {IERC721Enumerable-tokenByIndex}."
      },
      "tokenOfOwnerByIndex(address,uint256)": {
        "details": "See {IERC721Enumerable-tokenOfOwnerByIndex}."
      },
      "totalSupply()": {
        "details": "See {IERC721Enumerable-totalSupply}."
      },
      "transferFrom(address,address,uint256)": {
        "details": "See {IERC721-transferFrom}."
      },
      "transferOwnership(address)": {
        "details": "Transfers ownership of the contract to a new account (`newOwner`). Can only be called by the current owner."
      }
    },
    "version": 1
  },
  "userdoc": {
    "kind": "user",
    "methods": {},
    "version": 1
  }
}