{
  "contractName": "Track",
  "abi": [
    {
      "inputs": [
        {
          "internalType": "contract Melody",
          "name": "_token",
          "type": "address"
        },
        {
          "internalType": "uint256",
          "name": "_song_registration_fee",
          "type": "uint256"
        }
      ],
      "stateMutability": "nonpayable",
      "type": "constructor"
    },
    {
      "anonymous": false,
      "inputs": [
        {
          "indexed": true,
          "internalType": "address",
          "name": "owner",
          "type": "address"
        },
        {
          "indexed": true,
          "internalType": "address",
          "name": "approved",
          "type": "address"
        },
        {
          "indexed": true,
          "internalType": "uint256",
          "name": "tokenId",
          "type": "uint256"
        }
      ],
      "name": "Approval",
      "type": "event"
    },
    {
      "anonymous": false,
      "inputs": [
        {
          "indexed": true,
          "internalType": "address",
          "name": "owner",
          "type": "address"
        },
        {
          "indexed": true,
          "internalType": "address",
          "name": "operator",
          "type": "address"
        },
        {
          "indexed": false,
          "internalType": "bool",
          "name": "approved",
          "type": "bool"
        }
      ],
      "name": "ApprovalForAll",
      "type": "event"
    },
    {
      "anonymous": false,
      "inputs": [
        {
          "indexed": false,
          "internalType": "address",
          "name": "payer",
          "type": "address"
        },
        {
          "indexed": false,
          "internalType": "uint256",
          "name": "fee",
          "type": "uint256"
        }
      ],
      "name": "FeePayed",
      "type": "event"
    },
    {
      "anonymous": false,
      "inputs": [
        {
          "indexed": true,
          "internalType": "address",
          "name": "previousOwner",
          "type": "address"
        },
        {
          "indexed": true,
          "internalType": "address",
          "name": "newOwner",
          "type": "address"
        }
      ],
      "name": "OwnershipTransferred",
      "type": "event"
    },
    {
      "anonymous": false,
      "inputs": [
        {
          "indexed": false,
          "internalType": "uint256",
          "name": "amount",
          "type": "uint256"
        }
      ],
      "name": "Redeemed",
      "type": "event"
    },
    {
      "anonymous": false,
      "inputs": [
        {
          "indexed": false,
          "internalType": "address",
          "name": "owner",
          "type": "address"
        },
        {
          "indexed": false,
          "internalType": "uint256",
          "name": "track_id",
          "type": "uint256"
        }
      ],
      "name": "TrackRegistered",
      "type": "event"
    },
    {
      "anonymous": false,
      "inputs": [
        {
          "indexed": true,
          "internalType": "address",
          "name": "from",
          "type": "address"
        },
        {
          "indexed": true,
          "internalType": "address",
          "name": "to",
          "type": "address"
        },
        {
          "indexed": true,
          "internalType": "uint256",
          "name": "tokenId",
          "type": "uint256"
        }
      ],
      "name": "Transfer",
      "type": "event"
    },
    {
      "inputs": [
        {
          "internalType": "address",
          "name": "to",
          "type": "address"
        },
        {
          "internalType": "uint256",
          "name": "tokenId",
          "type": "uint256"
        }
      ],
      "name": "approve",
      "outputs": [],
      "stateMutability": "nonpayable",
      "type": "function"
    },
    {
      "inputs": [
        {
          "internalType": "address",
          "name": "owner",
          "type": "address"
        }
      ],
      "name": "balanceOf",
      "outputs": [
        {
          "internalType": "uint256",
          "name": "",
          "type": "uint256"
        }
      ],
      "stateMutability": "view",
      "type": "function",
      "constant": true
    },
    {
      "inputs": [
        {
          "internalType": "uint256",
          "name": "tokenId",
          "type": "uint256"
        }
      ],
      "name": "getApproved",
      "outputs": [
        {
          "internalType": "address",
          "name": "",
          "type": "address"
        }
      ],
      "stateMutability": "view",
      "type": "function",
      "constant": true
    },
    {
      "inputs": [
        {
          "internalType": "address",
          "name": "owner",
          "type": "address"
        },
        {
          "internalType": "address",
          "name": "operator",
          "type": "address"
        }
      ],
      "name": "isApprovedForAll",
      "outputs": [
        {
          "internalType": "bool",
          "name": "",
          "type": "bool"
        }
      ],
      "stateMutability": "view",
      "type": "function",
      "constant": true
    },
    {
      "inputs": [],
      "name": "name",
      "outputs": [
        {
          "internalType": "string",
          "name": "",
          "type": "string"
        }
      ],
      "stateMutability": "view",
      "type": "function",
      "constant": true
    },
    {
      "inputs": [],
      "name": "owner",
      "outputs": [
        {
          "internalType": "address",
          "name": "",
          "type": "address"
        }
      ],
      "stateMutability": "view",
      "type": "function",
      "constant": true
    },
    {
      "inputs": [
        {
          "internalType": "uint256",
          "name": "tokenId",
          "type": "uint256"
        }
      ],
      "name": "ownerOf",
      "outputs": [
        {
          "internalType": "address",
          "name": "",
          "type": "address"
        }
      ],
      "stateMutability": "view",
      "type": "function",
      "constant": true
    },
    {
      "inputs": [],
      "name": "renounceOwnership",
      "outputs": [],
      "stateMutability": "nonpayable",
      "type": "function"
    },
    {
      "inputs": [
        {
          "internalType": "address",
          "name": "from",
          "type": "address"
        },
        {
          "internalType": "address",
          "name": "to",
          "type": "address"
        },
        {
          "internalType": "uint256",
          "name": "tokenId",
          "type": "uint256"
        }
      ],
      "name": "safeTransferFrom",
      "outputs": [],
      "stateMutability": "nonpayable",
      "type": "function"
    },
    {
      "inputs": [
        {
          "internalType": "address",
          "name": "from",
          "type": "address"
        },
        {
          "internalType": "address",
          "name": "to",
          "type": "address"
        },
        {
          "internalType": "uint256",
          "name": "tokenId",
          "type": "uint256"
        },
        {
          "internalType": "bytes",
          "name": "_data",
          "type": "bytes"
        }
      ],
      "name": "safeTransferFrom",
      "outputs": [],
      "stateMutability": "nonpayable",
      "type": "function"
    },
    {
      "inputs": [
        {
          "internalType": "address",
          "name": "operator",
          "type": "address"
        },
        {
          "internalType": "bool",
          "name": "approved",
          "type": "bool"
        }
      ],
      "name": "setApprovalForAll",
      "outputs": [],
      "stateMutability": "nonpayable",
      "type": "function"
    },
    {
      "inputs": [
        {
          "internalType": "bytes4",
          "name": "interfaceId",
          "type": "bytes4"
        }
      ],
      "name": "supportsInterface",
      "outputs": [
        {
          "internalType": "bool",
          "name": "",
          "type": "bool"
        }
      ],
      "stateMutability": "view",
      "type": "function",
      "constant": true
    },
    {
      "inputs": [],
      "name": "symbol",
      "outputs": [
        {
          "internalType": "string",
          "name": "",
          "type": "string"
        }
      ],
      "stateMutability": "view",
      "type": "function",
      "constant": true
    },
    {
      "inputs": [
        {
          "internalType": "uint256",
          "name": "tokenId",
          "type": "uint256"
        }
      ],
      "name": "tokenURI",
      "outputs": [
        {
          "internalType": "string",
          "name": "",
          "type": "string"
        }
      ],
      "stateMutability": "view",
      "type": "function",
      "constant": true
    },
    {
      "inputs": [
        {
          "internalType": "address",
          "name": "from",
          "type": "address"
        },
        {
          "internalType": "address",
          "name": "to",
          "type": "address"
        },
        {
          "internalType": "uint256",
          "name": "tokenId",
          "type": "uint256"
        }
      ],
      "name": "transferFrom",
      "outputs": [],
      "stateMutability": "nonpayable",
      "type": "function"
    },
    {
      "inputs": [
        {
          "internalType": "address",
          "name": "newOwner",
          "type": "address"
        }
      ],
      "name": "transferOwnership",
      "outputs": [],
      "stateMutability": "nonpayable",
      "type": "function"
    },
    {
      "inputs": [
        {
          "internalType": "address",
          "name": "musician",
          "type": "address"
        },
        {
          "internalType": "string",
          "name": "tokenURI",
          "type": "string"
        }
      ],
      "name": "registerTrack",
      "outputs": [],
      "stateMutability": "nonpayable",
      "type": "function"
    },
    {
      "inputs": [
        {
          "internalType": "uint256",
          "name": "track_id",
          "type": "uint256"
        }
      ],
      "name": "exists",
      "outputs": [
        {
          "internalType": "bool",
          "name": "",
          "type": "bool"
        }
      ],
      "stateMutability": "view",
      "type": "function",
      "constant": true
    },
    {
      "inputs": [],
      "name": "redeem",
      "outputs": [],
      "stateMutability": "nonpayable",
      "type": "function"
    }
  ],
  "bytecode": "0x60806040523480156200001157600080fd5b5060405162003a6738038062003a678339818101604052810190620000379190620002d3565b6040518060400160405280600b81526020017f4d656c6f6479547261636b0000000000000000000000000000000000000000008152506040518060400160405280600581526020017f4d454c44540000000000000000000000000000000000000000000000000000008152508160009080519060200190620000bb929190620001f5565b508060019080519060200190620000d4929190620001f5565b5050506000620000e9620001ed60201b60201c565b905080600760006101000a81548173ffffffffffffffffffffffffffffffffffffffff021916908373ffffffffffffffffffffffffffffffffffffffff1602179055508073ffffffffffffffffffffffffffffffffffffffff16600073ffffffffffffffffffffffffffffffffffffffff167f8be0079c531659141344cd1fd0a4f28419497f9722a3daafe3b4186f6b6457e060405160405180910390a35081600a60006101000a81548173ffffffffffffffffffffffffffffffffffffffff021916908373ffffffffffffffffffffffffffffffffffffffff160217905550670de0b6b3a764000081620001df919062000314565b60098190555050506200048f565b600033905090565b8280546200020390620003c7565b90600052602060002090601f01602090048101928262000227576000855562000273565b82601f106200024257805160ff191683800117855562000273565b8280016001018555821562000273579182015b828111156200027257825182559160200191906001019062000255565b5b50905062000282919062000286565b5090565b5b80821115620002a157600081600090555060010162000287565b5090565b600081519050620002b6816200045b565b92915050565b600081519050620002cd8162000475565b92915050565b60008060408385031215620002e757600080fd5b6000620002f785828601620002a5565b92505060206200030a85828601620002bc565b9150509250929050565b60006200032182620003bd565b91506200032e83620003bd565b9250817fffffffffffffffffffffffffffffffffffffffffffffffffffffffffffffffff04831182151516156200036a5762000369620003fd565b5b828202905092915050565b600062000382826200039d565b9050919050565b6000620003968262000375565b9050919050565b600073ffffffffffffffffffffffffffffffffffffffff82169050919050565b6000819050919050565b60006002820490506001821680620003e057607f821691505b60208210811415620003f757620003f66200042c565b5b50919050565b7f4e487b7100000000000000000000000000000000000000000000000000000000600052601160045260246000fd5b7f4e487b7100000000000000000000000000000000000000000000000000000000600052602260045260246000fd5b620004668162000389565b81146200047257600080fd5b50565b6200048081620003bd565b81146200048c57600080fd5b50565b6135c8806200049f6000396000f3fe608060405234801561001057600080fd5b50600436106101215760003560e01c806370a08231116100ad578063b88d4fde11610071578063b88d4fde14610306578063be040fb014610322578063c87b56dd1461032c578063e985e9c51461035c578063f2fde38b1461038c57610121565b806370a0823114610274578063715018a6146102a45780638da5cb5b146102ae57806395d89b41146102cc578063a22cb465146102ea57610121565b80631fb085a1116100f45780631fb085a1146101c057806323b872dd146101dc57806342842e0e146101f85780634f558e79146102145780636352211e1461024457610121565b806301ffc9a71461012657806306fdde0314610156578063081812fc14610174578063095ea7b3146101a4575b600080fd5b610140600480360381019061013b919061245c565b6103a8565b60405161014d9190612954565b60405180910390f35b61015e61048a565b60405161016b919061296f565b60405180910390f35b61018e600480360381019061018991906124ae565b61051c565b60405161019b919061288d565b60405180910390f35b6101be60048036038101906101b991906123f7565b6105a1565b005b6101da60048036038101906101d591906123a3565b6106b9565b005b6101f660048036038101906101f1919061229d565b61080e565b005b610212600480360381019061020d919061229d565b61086e565b005b61022e600480360381019061022991906124ae565b61088e565b60405161023b9190612954565b60405180910390f35b61025e600480360381019061025991906124ae565b6108a0565b60405161026b919061288d565b60405180910390f35b61028e60048036038101906102899190612238565b610952565b60405161029b9190612bf1565b60405180910390f35b6102ac610a0a565b005b6102b6610b47565b6040516102c3919061288d565b60405180910390f35b6102d4610b71565b6040516102e1919061296f565b60405180910390f35b61030460048036038101906102ff9190612367565b610c03565b005b610320600480360381019061031b91906122ec565b610d84565b005b61032a610de6565b005b610346600480360381019061034191906124ae565b61100a565b604051610353919061296f565b60405180910390f35b61037660048036038101906103719190612261565b61115c565b6040516103839190612954565b60405180910390f35b6103a660048036038101906103a19190612238565b6111f0565b005b60007f80ac58cd000000000000000000000000000000000000000000000000000000007bffffffffffffffffffffffffffffffffffffffffffffffffffffffff1916827bffffffffffffffffffffffffffffffffffffffffffffffffffffffff1916148061047357507f5b5e139f000000000000000000000000000000000000000000000000000000007bffffffffffffffffffffffffffffffffffffffffffffffffffffffff1916827bffffffffffffffffffffffffffffffffffffffffffffffffffffffff1916145b8061048357506104828261139c565b5b9050919050565b60606000805461049990612e47565b80601f01602080910402602001604051908101604052809291908181526020018280546104c590612e47565b80156105125780601f106104e757610100808354040283529160200191610512565b820191906000526020600020905b8154815290600101906020018083116104f557829003601f168201915b5050505050905090565b600061052782611406565b610566576040517f08c379a000000000000000000000000000000000000000000000000000000000815260040161055d90612b11565b60405180910390fd5b6004600083815260200190815260200160002060009054906101000a900473ffffffffffffffffffffffffffffffffffffffff169050919050565b60006105ac826108a0565b90508073ffffffffffffffffffffffffffffffffffffffff168373ffffffffffffffffffffffffffffffffffffffff16141561061d576040517f08c379a000000000000000000000000000000000000000000000000000000000815260040161061490612b91565b60405180910390fd5b8073ffffffffffffffffffffffffffffffffffffffff1661063c611472565b73ffffffffffffffffffffffffffffffffffffffff16148061066b575061066a81610665611472565b61115c565b5b6106aa576040517f08c379a00000000000000000000000000000000000000000000000000000000081526004016106a190612a51565b60405180910390fd5b6106b4838361147a565b505050565b600954600a60009054906101000a900473ffffffffffffffffffffffffffffffffffffffff1673ffffffffffffffffffffffffffffffffffffffff166370a08231336040518263ffffffff1660e01b8152600401610717919061288d565b60206040518083038186803b15801561072f57600080fd5b505afa158015610743573d6000803e3d6000fd5b505050506040513d601f19601f8201168201806040525081019061076791906124d7565b10156107a8576040517f08c379a000000000000000000000000000000000000000000000000000000000815260040161079f90612bb1565b60405180910390fd5b6107b0611533565b60006107ba611601565b90506107c6838261161c565b6107d081836117ea565b7f2ad552b5146096d9f37fd1026bbd27e931073a7158a742aa16ef20217057d984338260405161080192919061292b565b60405180910390a1505050565b61081f610819611472565b8261185e565b61085e576040517f08c379a000000000000000000000000000000000000000000000000000000000815260040161085590612bd1565b60405180910390fd5b61086983838361193c565b505050565b61088983838360405180602001604052806000815250610d84565b505050565b600061089982611406565b9050919050565b6000806002600084815260200190815260200160002060009054906101000a900473ffffffffffffffffffffffffffffffffffffffff169050600073ffffffffffffffffffffffffffffffffffffffff168173ffffffffffffffffffffffffffffffffffffffff161415610949576040517f08c379a000000000000000000000000000000000000000000000000000000000815260040161094090612a91565b60405180910390fd5b80915050919050565b60008073ffffffffffffffffffffffffffffffffffffffff168273ffffffffffffffffffffffffffffffffffffffff1614156109c3576040517f08c379a00000000000000000000000000000000000000000000000000000000081526004016109ba90612a71565b60405180910390fd5b600360008373ffffffffffffffffffffffffffffffffffffffff1673ffffffffffffffffffffffffffffffffffffffff168152602001908152602001600020549050919050565b610a12611472565b73ffffffffffffffffffffffffffffffffffffffff16610a30610b47565b73ffffffffffffffffffffffffffffffffffffffff1614610a86576040517f08c379a0000000000000000000000000000000000000000000000000000000008152600401610a7d90612b31565b60405180910390fd5b600073ffffffffffffffffffffffffffffffffffffffff16600760009054906101000a900473ffffffffffffffffffffffffffffffffffffffff1673ffffffffffffffffffffffffffffffffffffffff167f8be0079c531659141344cd1fd0a4f28419497f9722a3daafe3b4186f6b6457e060405160405180910390a36000600760006101000a81548173ffffffffffffffffffffffffffffffffffffffff021916908373ffffffffffffffffffffffffffffffffffffffff160217905550565b6000600760009054906101000a900473ffffffffffffffffffffffffffffffffffffffff16905090565b606060018054610b8090612e47565b80601f0160208091040260200160405190810160405280929190818152602001828054610bac90612e47565b8015610bf95780601f10610bce57610100808354040283529160200191610bf9565b820191906000526020600020905b815481529060010190602001808311610bdc57829003601f168201915b5050505050905090565b610c0b611472565b73ffffffffffffffffffffffffffffffffffffffff168273ffffffffffffffffffffffffffffffffffffffff161415610c79576040517f08c379a0000000000000000000000000000000000000000000000000000000008152600401610c7090612a11565b60405180910390fd5b8060056000610c86611472565b73ffffffffffffffffffffffffffffffffffffffff1673ffffffffffffffffffffffffffffffffffffffff16815260200190815260200160002060008473ffffffffffffffffffffffffffffffffffffffff1673ffffffffffffffffffffffffffffffffffffffff16815260200190815260200160002060006101000a81548160ff0219169083151502179055508173ffffffffffffffffffffffffffffffffffffffff16610d33611472565b73ffffffffffffffffffffffffffffffffffffffff167f17307eab39ab6107e8899845ad3d59bd9653f200f220920489ca2b5937696c3183604051610d789190612954565b60405180910390a35050565b610d95610d8f611472565b8361185e565b610dd4576040517f08c379a0000000000000000000000000000000000000000000000000000000008152600401610dcb90612bd1565b60405180910390fd5b610de084848484611b98565b50505050565b610dee611472565b73ffffffffffffffffffffffffffffffffffffffff16610e0c610b47565b73ffffffffffffffffffffffffffffffffffffffff1614610e62576040517f08c379a0000000000000000000000000000000000000000000000000000000008152600401610e5990612b31565b60405180910390fd5b60003090506000600a60009054906101000a900473ffffffffffffffffffffffffffffffffffffffff1673ffffffffffffffffffffffffffffffffffffffff166370a08231836040518263ffffffff1660e01b8152600401610ec4919061288d565b60206040518083038186803b158015610edc57600080fd5b505afa158015610ef0573d6000803e3d6000fd5b505050506040513d601f19601f82011682018060405250810190610f1491906124d7565b9050600a60009054906101000a900473ffffffffffffffffffffffffffffffffffffffff1673ffffffffffffffffffffffffffffffffffffffff166323b872dd83610f5d610b47565b846040518463ffffffff1660e01b8152600401610f7c939291906128a8565b602060405180830381600087803b158015610f9657600080fd5b505af1158015610faa573d6000803e3d6000fd5b505050506040513d601f19601f82011682018060405250810190610fce9190612433565b507f82498456531a1065f689ba348ce20bda781238c424cf36748dd40bc282831e0381604051610ffe9190612bf1565b60405180910390a15050565b606061101582611406565b611054576040517f08c379a000000000000000000000000000000000000000000000000000000000815260040161104b90612af1565b60405180910390fd5b600060066000848152602001908152602001600020805461107490612e47565b80601f01602080910402602001604051908101604052809291908181526020018280546110a090612e47565b80156110ed5780601f106110c2576101008083540402835291602001916110ed565b820191906000526020600020905b8154815290600101906020018083116110d057829003601f168201915b5050505050905060006110fe611bf4565b9050600081511415611114578192505050611157565b600082511115611149578082604051602001611131929190612869565b60405160208183030381529060405292505050611157565b61115284611c0b565b925050505b919050565b6000600560008473ffffffffffffffffffffffffffffffffffffffff1673ffffffffffffffffffffffffffffffffffffffff16815260200190815260200160002060008373ffffffffffffffffffffffffffffffffffffffff1673ffffffffffffffffffffffffffffffffffffffff16815260200190815260200160002060009054906101000a900460ff16905092915050565b6111f8611472565b73ffffffffffffffffffffffffffffffffffffffff16611216610b47565b73ffffffffffffffffffffffffffffffffffffffff161461126c576040517f08c379a000000000000000000000000000000000000000000000000000000000815260040161126390612b31565b60405180910390fd5b600073ffffffffffffffffffffffffffffffffffffffff168173ffffffffffffffffffffffffffffffffffffffff1614156112dc576040517f08c379a00000000000000000000000000000000000000000000000000000000081526004016112d3906129b1565b60405180910390fd5b8073ffffffffffffffffffffffffffffffffffffffff16600760009054906101000a900473ffffffffffffffffffffffffffffffffffffffff1673ffffffffffffffffffffffffffffffffffffffff167f8be0079c531659141344cd1fd0a4f28419497f9722a3daafe3b4186f6b6457e060405160405180910390a380600760006101000a81548173ffffffffffffffffffffffffffffffffffffffff021916908373ffffffffffffffffffffffffffffffffffffffff16021790555050565b60007f01ffc9a7000000000000000000000000000000000000000000000000000000007bffffffffffffffffffffffffffffffffffffffffffffffffffffffff1916827bffffffffffffffffffffffffffffffffffffffffffffffffffffffff1916149050919050565b60008073ffffffffffffffffffffffffffffffffffffffff166002600084815260200190815260200160002060009054906101000a900473ffffffffffffffffffffffffffffffffffffffff1673ffffffffffffffffffffffffffffffffffffffff1614159050919050565b600033905090565b816004600083815260200190815260200160002060006101000a81548173ffffffffffffffffffffffffffffffffffffffff021916908373ffffffffffffffffffffffffffffffffffffffff160217905550808273ffffffffffffffffffffffffffffffffffffffff166114ed836108a0565b73ffffffffffffffffffffffffffffffffffffffff167f8c5be1e5ebec7d5bd14f71427d1e84f3dd0314c0f7b2291e5b200ac8c7c3b92560405160405180910390a45050565b600a60009054906101000a900473ffffffffffffffffffffffffffffffffffffffff1673ffffffffffffffffffffffffffffffffffffffff166379cc6790336009546040518363ffffffff1660e01b815260040161159292919061292b565b600060405180830381600087803b1580156115ac57600080fd5b505af11580156115c0573d6000803e3d6000fd5b505050507f2899dc8c12def1caa9accb64257cf2fd9f960f21bb27a560a757eae3c2ec43c1336009546040516115f792919061292b565b60405180910390a1565b600061160d6008611cb2565b6116176008611cc8565b905090565b600073ffffffffffffffffffffffffffffffffffffffff168273ffffffffffffffffffffffffffffffffffffffff16141561168c576040517f08c379a000000000000000000000000000000000000000000000000000000000815260040161168390612ad1565b60405180910390fd5b61169581611406565b156116d5576040517f08c379a00000000000000000000000000000000000000000000000000000000081526004016116cc906129d1565b60405180910390fd5b6116e160008383611cd6565b6001600360008473ffffffffffffffffffffffffffffffffffffffff1673ffffffffffffffffffffffffffffffffffffffff16815260200190815260200160002060008282546117319190612cd6565b92505081905550816002600083815260200190815260200160002060006101000a81548173ffffffffffffffffffffffffffffffffffffffff021916908373ffffffffffffffffffffffffffffffffffffffff160217905550808273ffffffffffffffffffffffffffffffffffffffff16600073ffffffffffffffffffffffffffffffffffffffff167fddf252ad1be2c89b69c2b068fc378daa952ba7f163c4a11628f55a4df523b3ef60405160405180910390a45050565b6117f382611406565b611832576040517f08c379a000000000000000000000000000000000000000000000000000000000815260040161182990612ab1565b60405180910390fd5b80600660008481526020019081526020016000209080519060200190611859929190612032565b505050565b600061186982611406565b6118a8576040517f08c379a000000000000000000000000000000000000000000000000000000000815260040161189f90612a31565b60405180910390fd5b60006118b3836108a0565b90508073ffffffffffffffffffffffffffffffffffffffff168473ffffffffffffffffffffffffffffffffffffffff16148061192257508373ffffffffffffffffffffffffffffffffffffffff1661190a8461051c565b73ffffffffffffffffffffffffffffffffffffffff16145b806119335750611932818561115c565b5b91505092915050565b8273ffffffffffffffffffffffffffffffffffffffff1661195c826108a0565b73ffffffffffffffffffffffffffffffffffffffff16146119b2576040517f08c379a00000000000000000000000000000000000000000000000000000000081526004016119a990612b51565b60405180910390fd5b600073ffffffffffffffffffffffffffffffffffffffff168273ffffffffffffffffffffffffffffffffffffffff161415611a22576040517f08c379a0000000000000000000000000000000000000000000000000000000008152600401611a19906129f1565b60405180910390fd5b611a2d838383611cd6565b611a3860008261147a565b6001600360008573ffffffffffffffffffffffffffffffffffffffff1673ffffffffffffffffffffffffffffffffffffffff1681526020019081526020016000206000828254611a889190612d5d565b925050819055506001600360008473ffffffffffffffffffffffffffffffffffffffff1673ffffffffffffffffffffffffffffffffffffffff1681526020019081526020016000206000828254611adf9190612cd6565b92505081905550816002600083815260200190815260200160002060006101000a81548173ffffffffffffffffffffffffffffffffffffffff021916908373ffffffffffffffffffffffffffffffffffffffff160217905550808273ffffffffffffffffffffffffffffffffffffffff168473ffffffffffffffffffffffffffffffffffffffff167fddf252ad1be2c89b69c2b068fc378daa952ba7f163c4a11628f55a4df523b3ef60405160405180910390a4505050565b611ba384848461193c565b611baf84848484611cdb565b611bee576040517f08c379a0000000000000000000000000000000000000000000000000000000008152600401611be590612991565b60405180910390fd5b50505050565b606060405180602001604052806000815250905090565b6060611c1682611406565b611c55576040517f08c379a0000000000000000000000000000000000000000000000000000000008152600401611c4c90612b71565b60405180910390fd5b6000611c5f611bf4565b90506000815111611c7f5760405180602001604052806000815250611caa565b80611c8984611e72565b604051602001611c9a929190612869565b6040516020818303038152906040525b915050919050565b6001816000016000828254019250508190555050565b600081600001549050919050565b505050565b6000611cfc8473ffffffffffffffffffffffffffffffffffffffff1661201f565b15611e65578373ffffffffffffffffffffffffffffffffffffffff1663150b7a02611d25611472565b8786866040518563ffffffff1660e01b8152600401611d4794939291906128df565b602060405180830381600087803b158015611d6157600080fd5b505af1925050508015611d9257506040513d601f19601f82011682018060405250810190611d8f9190612485565b60015b611e15573d8060008114611dc2576040519150601f19603f3d011682016040523d82523d6000602084013e611dc7565b606091505b50600081511415611e0d576040517f08c379a0000000000000000000000000000000000000000000000000000000008152600401611e0490612991565b60405180910390fd5b805181602001fd5b63150b7a0260e01b7bffffffffffffffffffffffffffffffffffffffffffffffffffffffff1916817bffffffffffffffffffffffffffffffffffffffffffffffffffffffff191614915050611e6a565b600190505b949350505050565b60606000821415611eba576040518060400160405280600181526020017f3000000000000000000000000000000000000000000000000000000000000000815250905061201a565b600082905060005b60008214611eec578080611ed590612eaa565b915050600a82611ee59190612d2c565b9150611ec2565b60008167ffffffffffffffff811115611f2e577f4e487b7100000000000000000000000000000000000000000000000000000000600052604160045260246000fd5b6040519080825280601f01601f191660200182016040528015611f605781602001600182028036833780820191505090505b5090505b6000851461201357600182611f799190612d5d565b9150600a85611f889190612ef3565b6030611f949190612cd6565b60f81b818381518110611fd0577f4e487b7100000000000000000000000000000000000000000000000000000000600052603260045260246000fd5b60200101907effffffffffffffffffffffffffffffffffffffffffffffffffffffffffffff1916908160001a905350600a8561200c9190612d2c565b9450611f64565b8093505050505b919050565b600080823b905060008111915050919050565b82805461203e90612e47565b90600052602060002090601f01602090048101928261206057600085556120a7565b82601f1061207957805160ff19168380011785556120a7565b828001600101855582156120a7579182015b828111156120a657825182559160200191906001019061208b565b5b5090506120b491906120b8565b5090565b5b808211156120d15760008160009055506001016120b9565b5090565b60006120e86120e384612c31565b612c0c565b90508281526020810184848401111561210057600080fd5b61210b848285612e05565b509392505050565b600061212661212184612c62565b612c0c565b90508281526020810184848401111561213e57600080fd5b612149848285612e05565b509392505050565b60008135905061216081613536565b92915050565b6000813590506121758161354d565b92915050565b60008151905061218a8161354d565b92915050565b60008135905061219f81613564565b92915050565b6000815190506121b481613564565b92915050565b600082601f8301126121cb57600080fd5b81356121db8482602086016120d5565b91505092915050565b600082601f8301126121f557600080fd5b8135612205848260208601612113565b91505092915050565b60008135905061221d8161357b565b92915050565b6000815190506122328161357b565b92915050565b60006020828403121561224a57600080fd5b600061225884828501612151565b91505092915050565b6000806040838503121561227457600080fd5b600061228285828601612151565b925050602061229385828601612151565b9150509250929050565b6000806000606084860312156122b257600080fd5b60006122c086828701612151565b93505060206122d186828701612151565b92505060406122e28682870161220e565b9150509250925092565b6000806000806080858703121561230257600080fd5b600061231087828801612151565b945050602061232187828801612151565b93505060406123328782880161220e565b925050606085013567ffffffffffffffff81111561234f57600080fd5b61235b878288016121ba565b91505092959194509250565b6000806040838503121561237a57600080fd5b600061238885828601612151565b925050602061239985828601612166565b9150509250929050565b600080604083850312156123b657600080fd5b60006123c485828601612151565b925050602083013567ffffffffffffffff8111156123e157600080fd5b6123ed858286016121e4565b9150509250929050565b6000806040838503121561240a57600080fd5b600061241885828601612151565b92505060206124298582860161220e565b9150509250929050565b60006020828403121561244557600080fd5b60006124538482850161217b565b91505092915050565b60006020828403121561246e57600080fd5b600061247c84828501612190565b91505092915050565b60006020828403121561249757600080fd5b60006124a5848285016121a5565b91505092915050565b6000602082840312156124c057600080fd5b60006124ce8482850161220e565b91505092915050565b6000602082840312156124e957600080fd5b60006124f784828501612223565b91505092915050565b61250981612d91565b82525050565b61251881612da3565b82525050565b600061252982612c93565b6125338185612ca9565b9350612543818560208601612e14565b61254c81612fe0565b840191505092915050565b600061256282612c9e565b61256c8185612cba565b935061257c818560208601612e14565b61258581612fe0565b840191505092915050565b600061259b82612c9e565b6125a58185612ccb565b93506125b5818560208601612e14565b80840191505092915050565b60006125ce603283612cba565b91506125d982612ff1565b604082019050919050565b60006125f1602683612cba565b91506125fc82613040565b604082019050919050565b6000612614601c83612cba565b915061261f8261308f565b602082019050919050565b6000612637602483612cba565b9150612642826130b8565b604082019050919050565b600061265a601983612cba565b915061266582613107565b602082019050919050565b600061267d602c83612cba565b915061268882613130565b604082019050919050565b60006126a0603883612cba565b91506126ab8261317f565b604082019050919050565b60006126c3602a83612cba565b91506126ce826131ce565b604082019050919050565b60006126e6602983612cba565b91506126f18261321d565b604082019050919050565b6000612709602e83612cba565b91506127148261326c565b604082019050919050565b600061272c602083612cba565b9150612737826132bb565b602082019050919050565b600061274f603183612cba565b915061275a826132e4565b604082019050919050565b6000612772602c83612cba565b915061277d82613333565b604082019050919050565b6000612795602083612cba565b91506127a082613382565b602082019050919050565b60006127b8602983612cba565b91506127c3826133ab565b604082019050919050565b60006127db602f83612cba565b91506127e6826133fa565b604082019050919050565b60006127fe602183612cba565b915061280982613449565b604082019050919050565b6000612821602383612cba565b915061282c82613498565b604082019050919050565b6000612844603183612cba565b915061284f826134e7565b604082019050919050565b61286381612dfb565b82525050565b60006128758285612590565b91506128818284612590565b91508190509392505050565b60006020820190506128a26000830184612500565b92915050565b60006060820190506128bd6000830186612500565b6128ca6020830185612500565b6128d7604083018461285a565b949350505050565b60006080820190506128f46000830187612500565b6129016020830186612500565b61290e604083018561285a565b8181036060830152612920818461251e565b905095945050505050565b60006040820190506129406000830185612500565b61294d602083018461285a565b9392505050565b6000602082019050612969600083018461250f565b92915050565b600060208201905081810360008301526129898184612557565b905092915050565b600060208201905081810360008301526129aa816125c1565b9050919050565b600060208201905081810360008301526129ca816125e4565b9050919050565b600060208201905081810360008301526129ea81612607565b9050919050565b60006020820190508181036000830152612a0a8161262a565b9050919050565b60006020820190508181036000830152612a2a8161264d565b9050919050565b60006020820190508181036000830152612a4a81612670565b9050919050565b60006020820190508181036000830152612a6a81612693565b9050919050565b60006020820190508181036000830152612a8a816126b6565b9050919050565b60006020820190508181036000830152612aaa816126d9565b9050919050565b60006020820190508181036000830152612aca816126fc565b9050919050565b60006020820190508181036000830152612aea8161271f565b9050919050565b60006020820190508181036000830152612b0a81612742565b9050919050565b60006020820190508181036000830152612b2a81612765565b9050919050565b60006020820190508181036000830152612b4a81612788565b9050919050565b60006020820190508181036000830152612b6a816127ab565b9050919050565b60006020820190508181036000830152612b8a816127ce565b9050919050565b60006020820190508181036000830152612baa816127f1565b9050919050565b60006020820190508181036000830152612bca81612814565b9050919050565b60006020820190508181036000830152612bea81612837565b9050919050565b6000602082019050612c06600083018461285a565b92915050565b6000612c16612c27565b9050612c228282612e79565b919050565b6000604051905090565b600067ffffffffffffffff821115612c4c57612c4b612fb1565b5b612c5582612fe0565b9050602081019050919050565b600067ffffffffffffffff821115612c7d57612c7c612fb1565b5b612c8682612fe0565b9050602081019050919050565b600081519050919050565b600081519050919050565b600082825260208201905092915050565b600082825260208201905092915050565b600081905092915050565b6000612ce182612dfb565b9150612cec83612dfb565b9250827fffffffffffffffffffffffffffffffffffffffffffffffffffffffffffffffff03821115612d2157612d20612f24565b5b828201905092915050565b6000612d3782612dfb565b9150612d4283612dfb565b925082612d5257612d51612f53565b5b828204905092915050565b6000612d6882612dfb565b9150612d7383612dfb565b925082821015612d8657612d85612f24565b5b828203905092915050565b6000612d9c82612ddb565b9050919050565b60008115159050919050565b60007fffffffff0000000000000000000000000000000000000000000000000000000082169050919050565b600073ffffffffffffffffffffffffffffffffffffffff82169050919050565b6000819050919050565b82818337600083830152505050565b60005b83811015612e32578082015181840152602081019050612e17565b83811115612e41576000848401525b50505050565b60006002820490506001821680612e5f57607f821691505b60208210811415612e7357612e72612f82565b5b50919050565b612e8282612fe0565b810181811067ffffffffffffffff82111715612ea157612ea0612fb1565b5b80604052505050565b6000612eb582612dfb565b91507fffffffffffffffffffffffffffffffffffffffffffffffffffffffffffffffff821415612ee857612ee7612f24565b5b600182019050919050565b6000612efe82612dfb565b9150612f0983612dfb565b925082612f1957612f18612f53565b5b828206905092915050565b7f4e487b7100000000000000000000000000000000000000000000000000000000600052601160045260246000fd5b7f4e487b7100000000000000000000000000000000000000000000000000000000600052601260045260246000fd5b7f4e487b7100000000000000000000000000000000000000000000000000000000600052602260045260246000fd5b7f4e487b7100000000000000000000000000000000000000000000000000000000600052604160045260246000fd5b6000601f19601f8301169050919050565b7f4552433732313a207472616e7366657220746f206e6f6e20455243373231526560008201527f63656976657220696d706c656d656e7465720000000000000000000000000000602082015250565b7f4f776e61626c653a206e6577206f776e657220697320746865207a65726f206160008201527f6464726573730000000000000000000000000000000000000000000000000000602082015250565b7f4552433732313a20746f6b656e20616c7265616479206d696e74656400000000600082015250565b7f4552433732313a207472616e7366657220746f20746865207a65726f2061646460008201527f7265737300000000000000000000000000000000000000000000000000000000602082015250565b7f4552433732313a20617070726f766520746f2063616c6c657200000000000000600082015250565b7f4552433732313a206f70657261746f7220717565727920666f72206e6f6e657860008201527f697374656e7420746f6b656e0000000000000000000000000000000000000000602082015250565b7f4552433732313a20617070726f76652063616c6c6572206973206e6f74206f7760008201527f6e6572206e6f7220617070726f76656420666f7220616c6c0000000000000000602082015250565b7f4552433732313a2062616c616e636520717565727920666f7220746865207a6560008201527f726f206164647265737300000000000000000000000000000000000000000000602082015250565b7f4552433732313a206f776e657220717565727920666f72206e6f6e657869737460008201527f656e7420746f6b656e0000000000000000000000000000000000000000000000602082015250565b7f45524337323155524953746f726167653a2055524920736574206f66206e6f6e60008201527f6578697374656e7420746f6b656e000000000000000000000000000000000000602082015250565b7f4552433732313a206d696e7420746f20746865207a65726f2061646472657373600082015250565b7f45524337323155524953746f726167653a2055524920717565727920666f722060008201527f6e6f6e6578697374656e7420746f6b656e000000000000000000000000000000602082015250565b7f4552433732313a20617070726f76656420717565727920666f72206e6f6e657860008201527f697374656e7420746f6b656e0000000000000000000000000000000000000000602082015250565b7f4f776e61626c653a2063616c6c6572206973206e6f7420746865206f776e6572600082015250565b7f4552433732313a207472616e73666572206f6620746f6b656e2074686174206960008201527f73206e6f74206f776e0000000000000000000000000000000000000000000000602082015250565b7f4552433732314d657461646174613a2055524920717565727920666f72206e6f60008201527f6e6578697374656e7420746f6b656e0000000000000000000000000000000000602082015250565b7f4552433732313a20617070726f76616c20746f2063757272656e74206f776e6560008201527f7200000000000000000000000000000000000000000000000000000000000000602082015250565b7f4e6f7420656e6f7567682066756e647320746f2072656769737465722061207360008201527f6f6e670000000000000000000000000000000000000000000000000000000000602082015250565b7f4552433732313a207472616e736665722063616c6c6572206973206e6f74206f60008201527f776e6572206e6f7220617070726f766564000000000000000000000000000000602082015250565b61353f81612d91565b811461354a57600080fd5b50565b61355681612da3565b811461356157600080fd5b50565b61356d81612daf565b811461357857600080fd5b50565b61358481612dfb565b811461358f57600080fd5b5056fea2646970667358221220adb05cb4679776010cb570e327d77c7b6af5013c3c7afd6cacd10f304437621964736f6c63430008010033",
  "immutableReferences": {},
  "source": "// SPDX-License-Identifier: MIT\npragma solidity ^0.8.0;\n\nimport \"./Melody.sol\";\nimport \"@openzeppelin/contracts/token/ERC721/ERC721.sol\";\nimport \"@openzeppelin/contracts/token/ERC721/extensions/ERC721URIStorage.sol\";\nimport \"@openzeppelin/contracts/utils/Counters.sol\";\nimport \"@openzeppelin/contracts/access/Ownable.sol\";\n\ncontract Track is ERC721URIStorage, Ownable {\n    using Counters for Counters.Counter;\n    Counters.Counter private _tokenIds;\n\n\tevent TrackRegistered(address owner, uint256 track_id);\n\tevent FeePayed(address payer, uint256 fee);\n\tevent Redeemed(uint256 amount);\n\t\n\tuint256 song_registration_fee;\n\tMelody token;\n\n\tmodifier canRegisterSong() {\n\t\trequire(token.balanceOf(msg.sender) >= song_registration_fee, \"Not enough funds to register a song\");\n\t\t_;\n\t}\n\n    constructor(Melody _token, uint256 _song_registration_fee) ERC721(\"MelodyTrack\", \"MELDT\") {\n\t\ttoken = _token;\n\t\tsong_registration_fee = _song_registration_fee * 1 ether;\n\t}\n\n    function registerTrack(address musician, string memory tokenURI) public canRegisterSong {\n\t\tpayRegistrationFee();\n\n        uint256 track_id = genTrackId();\n        _mint(musician, track_id);\n        _setTokenURI(track_id, tokenURI);\n\n\t\temit TrackRegistered(msg.sender, track_id);\n    }\n\n\tfunction payRegistrationFee() internal {\n\t\ttoken.burnFrom(msg.sender, song_registration_fee);\n\t\temit FeePayed(msg.sender, song_registration_fee);\n\t}\n\n\tfunction genTrackId() internal returns(uint256) {\n\t\t_tokenIds.increment();\n\t\treturn _tokenIds.current();\n\t}\n\n\tfunction exists(uint256 track_id) public view returns(bool) {\n\t\treturn _exists(track_id);\n\t}\n\n\tfunction redeem() public onlyOwner {\n\t\taddress addr = address(this);\n\t\tuint256 balance = token.balanceOf(addr);\n\t\ttoken.transferFrom(addr, owner(), balance);\n\n\t\temit Redeemed(balance);\n\t}\n}",
  "sourcePath": "/home/ebalo/Desktop/Projects/blockchain/block-chain/contracts/Track.sol",
  "compiler": {
    "name": "solc",
    "version": "0.8.1+commit.df193b15.Emscripten.clang"
  },
  "schemaVersion": "3.4.1",
  "updatedAt": "2021-05-19T06:07:49.044Z",
  "networkType": "ethereum",
  "devdoc": {
    "kind": "dev",
    "methods": {
      "approve(address,uint256)": {
        "details": "See {IERC721-approve}."
      },
      "balanceOf(address)": {
        "details": "See {IERC721-balanceOf}."
      },
      "getApproved(uint256)": {
        "details": "See {IERC721-getApproved}."
      },
      "isApprovedForAll(address,address)": {
        "details": "See {IERC721-isApprovedForAll}."
      },
      "name()": {
        "details": "See {IERC721Metadata-name}."
      },
      "owner()": {
        "details": "Returns the address of the current owner."
      },
      "ownerOf(uint256)": {
        "details": "See {IERC721-ownerOf}."
      },
      "renounceOwnership()": {
        "details": "Leaves the contract without owner. It will not be possible to call `onlyOwner` functions anymore. Can only be called by the current owner. NOTE: Renouncing ownership will leave the contract without an owner, thereby removing any functionality that is only available to the owner."
      },
      "safeTransferFrom(address,address,uint256)": {
        "details": "See {IERC721-safeTransferFrom}."
      },
      "safeTransferFrom(address,address,uint256,bytes)": {
        "details": "See {IERC721-safeTransferFrom}."
      },
      "setApprovalForAll(address,bool)": {
        "details": "See {IERC721-setApprovalForAll}."
      },
      "supportsInterface(bytes4)": {
        "details": "See {IERC165-supportsInterface}."
      },
      "symbol()": {
        "details": "See {IERC721Metadata-symbol}."
      },
      "tokenURI(uint256)": {
        "details": "See {IERC721Metadata-tokenURI}."
      },
      "transferFrom(address,address,uint256)": {
        "details": "See {IERC721-transferFrom}."
      },
      "transferOwnership(address)": {
        "details": "Transfers ownership of the contract to a new account (`newOwner`). Can only be called by the current owner."
      }
    },
    "version": 1
  },
  "userdoc": {
    "kind": "user",
    "methods": {},
    "version": 1
  }
}