{
  "contractName": "TrackChallenge",
  "abi": [
    {
      "inputs": [
        {
          "internalType": "uint256",
          "name": "_start",
          "type": "uint256"
        },
        {
          "internalType": "uint256",
          "name": "_end",
          "type": "uint256"
        },
        {
          "internalType": "contract Melody",
          "name": "_token",
          "type": "address"
        },
        {
          "internalType": "contract Track",
          "name": "_track",
          "type": "address"
        },
        {
          "internalType": "uint256",
          "name": "_participation_fee",
          "type": "uint256"
        }
      ],
      "stateMutability": "nonpayable",
      "type": "constructor"
    },
    {
      "anonymous": false,
      "inputs": [],
      "name": "AllPrizesDistributed",
      "type": "event"
    },
    {
      "anonymous": false,
      "inputs": [
        {
          "indexed": false,
          "internalType": "address",
          "name": "payer",
          "type": "address"
        },
        {
          "indexed": false,
          "internalType": "uint256",
          "name": "fee",
          "type": "uint256"
        }
      ],
      "name": "FeePayed",
      "type": "event"
    },
    {
      "anonymous": false,
      "inputs": [],
      "name": "Finalized",
      "type": "event"
    },
    {
      "anonymous": false,
      "inputs": [
        {
          "indexed": false,
          "internalType": "uint256",
          "name": "track_id",
          "type": "uint256"
        }
      ],
      "name": "NewParticipant",
      "type": "event"
    },
    {
      "anonymous": false,
      "inputs": [
        {
          "indexed": true,
          "internalType": "address",
          "name": "previousOwner",
          "type": "address"
        },
        {
          "indexed": true,
          "internalType": "address",
          "name": "newOwner",
          "type": "address"
        }
      ],
      "name": "OwnershipTransferred",
      "type": "event"
    },
    {
      "anonymous": false,
      "inputs": [
        {
          "indexed": false,
          "internalType": "address",
          "name": "musician",
          "type": "address"
        },
        {
          "indexed": false,
          "internalType": "uint256",
          "name": "prize",
          "type": "uint256"
        },
        {
          "indexed": false,
          "internalType": "uint8",
          "name": "position",
          "type": "uint8"
        }
      ],
      "name": "PrizeForMusician",
      "type": "event"
    },
    {
      "anonymous": false,
      "inputs": [
        {
          "indexed": false,
          "internalType": "uint256",
          "name": "token_amount",
          "type": "uint256"
        },
        {
          "indexed": false,
          "internalType": "uint256",
          "name": "eth_amount",
          "type": "uint256"
        }
      ],
      "name": "Redeemed",
      "type": "event"
    },
    {
      "anonymous": false,
      "inputs": [
        {
          "indexed": false,
          "internalType": "address",
          "name": "voter",
          "type": "address"
        },
        {
          "indexed": false,
          "internalType": "uint256",
          "name": "nft",
          "type": "uint256"
        }
      ],
      "name": "VoteAllowed",
      "type": "event"
    },
    {
      "anonymous": false,
      "inputs": [
        {
          "indexed": false,
          "internalType": "address",
          "name": "voter",
          "type": "address"
        },
        {
          "indexed": false,
          "internalType": "uint256",
          "name": "track_id",
          "type": "uint256"
        },
        {
          "indexed": false,
          "internalType": "uint256",
          "name": "half_stars",
          "type": "uint256"
        }
      ],
      "name": "Voted",
      "type": "event"
    },
    {
      "inputs": [],
      "name": "completed",
      "outputs": [
        {
          "internalType": "bool",
          "name": "",
          "type": "bool"
        }
      ],
      "stateMutability": "view",
      "type": "function",
      "constant": true
    },
    {
      "inputs": [],
      "name": "end",
      "outputs": [
        {
          "internalType": "uint256",
          "name": "",
          "type": "uint256"
        }
      ],
      "stateMutability": "view",
      "type": "function",
      "constant": true
    },
    {
      "inputs": [],
      "name": "owner",
      "outputs": [
        {
          "internalType": "address",
          "name": "",
          "type": "address"
        }
      ],
      "stateMutability": "view",
      "type": "function",
      "constant": true
    },
    {
      "inputs": [],
      "name": "renounceOwnership",
      "outputs": [],
      "stateMutability": "nonpayable",
      "type": "function"
    },
    {
      "inputs": [],
      "name": "start",
      "outputs": [
        {
          "internalType": "uint256",
          "name": "",
          "type": "uint256"
        }
      ],
      "stateMutability": "view",
      "type": "function",
      "constant": true
    },
    {
      "inputs": [
        {
          "internalType": "address",
          "name": "newOwner",
          "type": "address"
        }
      ],
      "name": "transferOwnership",
      "outputs": [],
      "stateMutability": "nonpayable",
      "type": "function"
    },
    {
      "inputs": [],
      "name": "uniswapV2Pair",
      "outputs": [
        {
          "internalType": "address",
          "name": "",
          "type": "address"
        }
      ],
      "stateMutability": "view",
      "type": "function",
      "constant": true
    },
    {
      "inputs": [],
      "name": "uniswapV2Router",
      "outputs": [
        {
          "internalType": "contract IUniswapV2Router02",
          "name": "",
          "type": "address"
        }
      ],
      "stateMutability": "view",
      "type": "function",
      "constant": true
    },
    {
      "inputs": [
        {
          "internalType": "uint256",
          "name": "track_id",
          "type": "uint256"
        }
      ],
      "name": "participate",
      "outputs": [],
      "stateMutability": "nonpayable",
      "type": "function"
    },
    {
      "inputs": [
        {
          "internalType": "uint256",
          "name": "track_id",
          "type": "uint256"
        },
        {
          "internalType": "uint256",
          "name": "half_stars",
          "type": "uint256"
        }
      ],
      "name": "vote",
      "outputs": [],
      "stateMutability": "payable",
      "type": "function",
      "payable": true
    },
    {
      "inputs": [],
      "name": "getBalance",
      "outputs": [
        {
          "internalType": "uint256",
          "name": "",
          "type": "uint256"
        }
      ],
      "stateMutability": "view",
      "type": "function",
      "constant": true
    },
    {
      "inputs": [],
      "name": "getTokenBalance",
      "outputs": [
        {
          "internalType": "uint256",
          "name": "",
          "type": "uint256"
        }
      ],
      "stateMutability": "view",
      "type": "function",
      "constant": true
    },
    {
      "inputs": [
        {
          "internalType": "address",
          "name": "voter",
          "type": "address"
        },
        {
          "internalType": "uint256",
          "name": "nft",
          "type": "uint256"
        }
      ],
      "name": "allowToVote",
      "outputs": [],
      "stateMutability": "nonpayable",
      "type": "function"
    },
    {
      "inputs": [],
      "name": "finalize",
      "outputs": [],
      "stateMutability": "nonpayable",
      "type": "function"
    },
    {
      "inputs": [],
      "name": "redeem",
      "outputs": [],
      "stateMutability": "nonpayable",
      "type": "function"
    }
  ],
  "bytecode": "0x60c06040523480156200001157600080fd5b50604051620039363803806200393683398181016040528101906200003791906200046c565b600062000049620003dc60201b60201c565b9050806000806101000a81548173ffffffffffffffffffffffffffffffffffffffff021916908373ffffffffffffffffffffffffffffffffffffffff1602179055508073ffffffffffffffffffffffffffffffffffffffff16600073ffffffffffffffffffffffffffffffffffffffff167f8be0079c531659141344cd1fd0a4f28419497f9722a3daafe3b4186f6b6457e060405160405180910390a35082600760006101000a81548173ffffffffffffffffffffffffffffffffffffffff021916908373ffffffffffffffffffffffffffffffffffffffff160217905550846001819055508360028190555081600860006101000a81548173ffffffffffffffffffffffffffffffffffffffff021916908373ffffffffffffffffffffffffffffffffffffffff160217905550670de0b6b3a7640000816200018d91906200052c565b600981905550600073d99d1c33f9fc3444f8101754abc46c52416550d190508073ffffffffffffffffffffffffffffffffffffffff1663c45a01556040518163ffffffff1660e01b815260040160206040518083038186803b158015620001f357600080fd5b505afa15801562000208573d6000803e3d6000fd5b505050506040513d601f19601f820116820180604052508101906200022e919062000440565b73ffffffffffffffffffffffffffffffffffffffff1663c9c65396600760009054906101000a900473ffffffffffffffffffffffffffffffffffffffff168373ffffffffffffffffffffffffffffffffffffffff1663ad5c46486040518163ffffffff1660e01b815260040160206040518083038186803b158015620002b357600080fd5b505afa158015620002c8573d6000803e3d6000fd5b505050506040513d601f19601f82011682018060405250810190620002ee919062000440565b6040518363ffffffff1660e01b81526004016200030d929190620004ff565b602060405180830381600087803b1580156200032857600080fd5b505af11580156200033d573d6000803e3d6000fd5b505050506040513d601f19601f8201168201806040525081019062000363919062000440565b73ffffffffffffffffffffffffffffffffffffffff1660a08173ffffffffffffffffffffffffffffffffffffffff1660601b815250508073ffffffffffffffffffffffffffffffffffffffff1660808173ffffffffffffffffffffffffffffffffffffffff1660601b815250505050505050506200069e565b600033905090565b600081519050620003f58162000636565b92915050565b6000815190506200040c8162000650565b92915050565b60008151905062000423816200066a565b92915050565b6000815190506200043a8162000684565b92915050565b6000602082840312156200045357600080fd5b60006200046384828501620003e4565b91505092915050565b600080600080600060a086880312156200048557600080fd5b6000620004958882890162000429565b9550506020620004a88882890162000429565b9450506040620004bb88828901620003fb565b9350506060620004ce8882890162000412565b9250506080620004e18882890162000429565b9150509295509295909350565b620004f9816200058d565b82525050565b6000604082019050620005166000830185620004ee565b620005256020830184620004ee565b9392505050565b60006200053982620005fd565b91506200054683620005fd565b9250817fffffffffffffffffffffffffffffffffffffffffffffffffffffffffffffffff048311821515161562000582576200058162000607565b5b828202905092915050565b60006200059a82620005dd565b9050919050565b6000620005ae82620005dd565b9050919050565b6000620005c282620005a1565b9050919050565b6000620005d6826200058d565b9050919050565b600073ffffffffffffffffffffffffffffffffffffffff82169050919050565b6000819050919050565b7f4e487b7100000000000000000000000000000000000000000000000000000000600052601160045260246000fd5b62000641816200058d565b81146200064d57600080fd5b50565b6200065b81620005b5565b81146200066757600080fd5b50565b6200067581620005c9565b81146200068157600080fd5b50565b6200068f81620005fd565b81146200069b57600080fd5b50565b60805160601c60a05160601c613249620006ed600039600061034f01526000818161032b01528181611e3201528181611f8301528181612016015281816120ed015261218001526132496000f3fe6080604052600436106100e85760003560e01c80638da5cb5b1161008a578063be9a655511610059578063be9a655514610279578063efbe1c1c146102a4578063f2fde38b146102cf578063f7f730e3146102f8576100e8565b80638da5cb5b146101f05780639d9a7fe91461021b578063b384abef14610246578063be040fb014610262576100e8565b80634bb278f3116100c65780634bb278f31461016e578063715018a61461018557806382b2e2571461019c578063845c9306146101c7576100e8565b806312065fe0146100ed5780631694505e1461011857806349bd5a5e14610143575b600080fd5b3480156100f957600080fd5b50610102610321565b60405161010f9190612b80565b60405180910390f35b34801561012457600080fd5b5061012d610329565b60405161013a91906129c5565b60405180910390f35b34801561014f57600080fd5b5061015861034d565b6040516101659190612860565b60405180910390f35b34801561017a57600080fd5b50610183610371565b005b34801561019157600080fd5b5061019a610478565b005b3480156101a857600080fd5b506101b16105b2565b6040516101be9190612b80565b60405180910390f35b3480156101d357600080fd5b506101ee60048036038101906101e991906124dd565b610664565b005b3480156101fc57600080fd5b50610205610b07565b6040516102129190612860565b60405180910390f35b34801561022757600080fd5b50610230610b30565b60405161023d91906129aa565b60405180910390f35b610260600480360381019061025b919061252f565b610b43565b005b34801561026e57600080fd5b50610277610f08565b005b34801561028557600080fd5b5061028e6111dc565b60405161029b9190612b80565b60405180910390f35b3480156102b057600080fd5b506102b96111e2565b6040516102c69190612b80565b60405180910390f35b3480156102db57600080fd5b506102f660048036038101906102f19190612426565b6111e8565b005b34801561030457600080fd5b5061031f600480360381019061031a9190612478565b611391565b005b600047905090565b7f000000000000000000000000000000000000000000000000000000000000000081565b7f000000000000000000000000000000000000000000000000000000000000000081565b610379611687565b73ffffffffffffffffffffffffffffffffffffffff16610397610b07565b73ffffffffffffffffffffffffffffffffffffffff16146103ed576040517f08c379a00000000000000000000000000000000000000000000000000000000081526004016103e490612ae0565b60405180910390fd5b600254421015610432576040517f08c379a000000000000000000000000000000000000000000000000000000000815260040161042990612a00565b60405180910390fd5b61043a61168f565b6104426116d8565b7f3a1c562adcaaf034efbb5e822697a763f2f7d3943a4f41427d0ad2e5a240fed260405160405180910390a1610476610f08565b565b610480611687565b73ffffffffffffffffffffffffffffffffffffffff1661049e610b07565b73ffffffffffffffffffffffffffffffffffffffff16146104f4576040517f08c379a00000000000000000000000000000000000000000000000000000000081526004016104eb90612ae0565b60405180910390fd5b600073ffffffffffffffffffffffffffffffffffffffff1660008054906101000a900473ffffffffffffffffffffffffffffffffffffffff1673ffffffffffffffffffffffffffffffffffffffff167f8be0079c531659141344cd1fd0a4f28419497f9722a3daafe3b4186f6b6457e060405160405180910390a360008060006101000a81548173ffffffffffffffffffffffffffffffffffffffff021916908373ffffffffffffffffffffffffffffffffffffffff160217905550565b6000600760009054906101000a900473ffffffffffffffffffffffffffffffffffffffff1673ffffffffffffffffffffffffffffffffffffffff166370a08231306040518263ffffffff1660e01b815260040161060f9190612860565b60206040518083038186803b15801561062757600080fd5b505afa15801561063b573d6000803e3d6000fd5b505050506040513d601f19601f8201168201806040525081019061065f9190612506565b905090565b80600860009054906101000a900473ffffffffffffffffffffffffffffffffffffffff1673ffffffffffffffffffffffffffffffffffffffff16634f558e79826040518263ffffffff1660e01b81526004016106c09190612b80565b60206040518083038186803b1580156106d857600080fd5b505afa1580156106ec573d6000803e3d6000fd5b505050506040513d601f19601f8201168201806040525081019061071091906124b4565b61074f576040517f08c379a000000000000000000000000000000000000000000000000000000000815260040161074690612b20565b60405180910390fd5b61076381600461199f90919063ffffffff16565b156107a3576040517f08c379a000000000000000000000000000000000000000000000000000000000815260040161079a90612a60565b60405180910390fd5b600860009054906101000a900473ffffffffffffffffffffffffffffffffffffffff1673ffffffffffffffffffffffffffffffffffffffff16636352211e826040518263ffffffff1660e01b81526004016107fe9190612b80565b60206040518083038186803b15801561081657600080fd5b505afa15801561082a573d6000803e3d6000fd5b505050506040513d601f19601f8201168201806040525081019061084e919061244f565b73ffffffffffffffffffffffffffffffffffffffff163373ffffffffffffffffffffffffffffffffffffffff16146108bb576040517f08c379a00000000000000000000000000000000000000000000000000000000081526004016108b290612b60565b60405180910390fd5b600954600760009054906101000a900473ffffffffffffffffffffffffffffffffffffffff1673ffffffffffffffffffffffffffffffffffffffff166370a08231336040518263ffffffff1660e01b81526004016109199190612860565b60206040518083038186803b15801561093157600080fd5b505afa158015610945573d6000803e3d6000fd5b505050506040513d601f19601f820116820180604052508101906109699190612506565b10156109aa576040517f08c379a00000000000000000000000000000000000000000000000000000000081526004016109a190612a40565b60405180910390fd5b6109b26119b9565b6109c6826004611aaa90919063ffffffff16565b506000600860009054906101000a900473ffffffffffffffffffffffffffffffffffffffff1673ffffffffffffffffffffffffffffffffffffffff16636352211e846040518263ffffffff1660e01b8152600401610a249190612b80565b60206040518083038186803b158015610a3c57600080fd5b505afa158015610a50573d6000803e3d6000fd5b505050506040513d601f19601f82011682018060405250810190610a74919061244f565b9050806003600085815260200190815260200160002060000160006101000a81548173ffffffffffffffffffffffffffffffffffffffff021916908373ffffffffffffffffffffffffffffffffffffffff1602179055507f66d0ee9ee580464eb06bb7adef164c593ad3173da5b9937511307bb4646d392e83604051610afa9190612b80565b60405180910390a1505050565b60008060009054906101000a900473ffffffffffffffffffffffffffffffffffffffff16905090565b600060149054906101000a900460ff1681565b6001544210158015610b56575060025442105b610b95576040517f08c379a0000000000000000000000000000000000000000000000000000000008152600401610b8c90612a80565b60405180910390fd5b8181610bab82600461199f90919063ffffffff16565b610bea576040517f08c379a0000000000000000000000000000000000000000000000000000000008152600401610be190612aa0565b60405180910390fd5b610c123360036000858152602001908152602001600020600201611ac490919063ffffffff16565b15610c52576040517f08c379a0000000000000000000000000000000000000000000000000000000008152600401610c4990612ac0565b60405180910390fd5b600860009054906101000a900473ffffffffffffffffffffffffffffffffffffffff1673ffffffffffffffffffffffffffffffffffffffff16636352211e836040518263ffffffff1660e01b8152600401610cad9190612b80565b60206040518083038186803b158015610cc557600080fd5b505afa158015610cd9573d6000803e3d6000fd5b505050506040513d601f19601f82011682018060405250810190610cfd919061244f565b73ffffffffffffffffffffffffffffffffffffffff163373ffffffffffffffffffffffffffffffffffffffff161415610d6b576040517f08c379a0000000000000000000000000000000000000000000000000000000008152600401610d6290612b00565b60405180910390fd5b600660003373ffffffffffffffffffffffffffffffffffffffff1673ffffffffffffffffffffffffffffffffffffffff168152602001908152602001600020600083815260200190815260200160002060009054906101000a900460ff16610e08576040517f08c379a0000000000000000000000000000000000000000000000000000000008152600401610dff90612b40565b60405180910390fd5b6000600660003373ffffffffffffffffffffffffffffffffffffffff1673ffffffffffffffffffffffffffffffffffffffff168152602001908152602001600020600086815260200190815260200160002060006101000a81548160ff02191690831515021790555082600360008681526020019081526020016000206001016000828254610e979190612c68565b92505081905550610ec63360036000878152602001908152602001600020600201611af490919063ffffffff16565b507fea66f58e474bc09f580000e81f31b334d171db387d0c6098ba47bd897741679b338585604051610efa9392919061293c565b60405180910390a150505050565b610f10611687565b73ffffffffffffffffffffffffffffffffffffffff16610f2e610b07565b73ffffffffffffffffffffffffffffffffffffffff1614610f84576040517f08c379a0000000000000000000000000000000000000000000000000000000008152600401610f7b90612ae0565b60405180910390fd5b600254421015610fc9576040517f08c379a0000000000000000000000000000000000000000000000000000000008152600401610fc090612a00565b60405180910390fd5b60003090506000600760009054906101000a900473ffffffffffffffffffffffffffffffffffffffff1673ffffffffffffffffffffffffffffffffffffffff166370a08231836040518263ffffffff1660e01b815260040161102b9190612860565b60206040518083038186803b15801561104357600080fd5b505afa158015611057573d6000803e3d6000fd5b505050506040513d601f19601f8201168201806040525081019061107b9190612506565b905060008273ffffffffffffffffffffffffffffffffffffffff16319050600760009054906101000a900473ffffffffffffffffffffffffffffffffffffffff1673ffffffffffffffffffffffffffffffffffffffff1663a9059cbb6110df610b07565b846040518363ffffffff1660e01b81526004016110fd9291906128b2565b602060405180830381600087803b15801561111757600080fd5b505af115801561112b573d6000803e3d6000fd5b505050506040513d601f19601f8201168201806040525081019061114f91906124b4565b50611158610b07565b73ffffffffffffffffffffffffffffffffffffffff166108fc829081150290604051600060405180830381858888f1935050505015801561119d573d6000803e3d6000fd5b507f6f73b7b8d37df32ea60a45eadc8fc3d2d716d705ee099bd506817482ce84731682826040516111cf929190612bf5565b60405180910390a1505050565b60015481565b60025481565b6111f0611687565b73ffffffffffffffffffffffffffffffffffffffff1661120e610b07565b73ffffffffffffffffffffffffffffffffffffffff1614611264576040517f08c379a000000000000000000000000000000000000000000000000000000000815260040161125b90612ae0565b60405180910390fd5b600073ffffffffffffffffffffffffffffffffffffffff168173ffffffffffffffffffffffffffffffffffffffff1614156112d4576040517f08c379a00000000000000000000000000000000000000000000000000000000081526004016112cb90612a20565b60405180910390fd5b8073ffffffffffffffffffffffffffffffffffffffff1660008054906101000a900473ffffffffffffffffffffffffffffffffffffffff1673ffffffffffffffffffffffffffffffffffffffff167f8be0079c531659141344cd1fd0a4f28419497f9722a3daafe3b4186f6b6457e060405160405180910390a3806000806101000a81548173ffffffffffffffffffffffffffffffffffffffff021916908373ffffffffffffffffffffffffffffffffffffffff16021790555050565b611399611687565b73ffffffffffffffffffffffffffffffffffffffff166113b7610b07565b73ffffffffffffffffffffffffffffffffffffffff161461140d576040517f08c379a000000000000000000000000000000000000000000000000000000000815260040161140490612ae0565b60405180910390fd5b61142181600461199f90919063ffffffff16565b611460576040517f08c379a000000000000000000000000000000000000000000000000000000000815260040161145790612aa0565b60405180910390fd5b6114888260036000848152602001908152602001600020600201611ac490919063ffffffff16565b156114c8576040517f08c379a00000000000000000000000000000000000000000000000000000000081526004016114bf90612ac0565b60405180910390fd5b600860009054906101000a900473ffffffffffffffffffffffffffffffffffffffff1673ffffffffffffffffffffffffffffffffffffffff16636352211e826040518263ffffffff1660e01b81526004016115239190612b80565b60206040518083038186803b15801561153b57600080fd5b505afa15801561154f573d6000803e3d6000fd5b505050506040513d601f19601f82011682018060405250810190611573919061244f565b73ffffffffffffffffffffffffffffffffffffffff168273ffffffffffffffffffffffffffffffffffffffff1614156115e1576040517f08c379a00000000000000000000000000000000000000000000000000000000081526004016115d890612b00565b60405180910390fd5b6001600660008473ffffffffffffffffffffffffffffffffffffffff1673ffffffffffffffffffffffffffffffffffffffff168152602001908152602001600020600083815260200190815260200160002060006101000a81548160ff0219169083151502179055507f4e2e04c36358ba7cead661f7bca3e9720fdb6fffdc49d3342a1dd0b5a1d3183a828260405161167b9291906128b2565b60405180910390a15050565b600033905090565b6001600060146101000a81548160ff0219169083151502179055507f6823b073d48d6e3a7d385eeb601452d680e74bb46afe3255a7d778f3a9b1768160405160405180910390a1565b6116e06123a3565b6116e86123a3565b6116f06123a3565b6116f86123a3565b6000805b6117066004611b24565b81101561179457611721816004611b3990919063ffffffff16565b91506117576040518060400160405280848152602001600360008681526020019081526020016000206001015481525087611b53565b80975081945050506117698386611b53565b809650819450505061177b8385611b53565b905080945050808061178c90612e08565b9150506116fc565b5060003090506000600760009054906101000a900473ffffffffffffffffffffffffffffffffffffffff1673ffffffffffffffffffffffffffffffffffffffff166370a08231836040518263ffffffff1660e01b81526004016117f79190612860565b60206040518083038186803b15801561180f57600080fd5b505afa158015611823573d6000803e3d6000fd5b505050506040513d601f19601f820116820180604052508101906118479190612506565b905060008061185860018a85611b8c565b9150915060008061186b60028b87611b8c565b9150915060008061187e60038c89611b8c565b915091506118938d6000015186886001611c2b565b6118a48c6000015184866002611c2b565b6118b58b6000015182846003611c2b565b600760009054906101000a900473ffffffffffffffffffffffffffffffffffffffff1673ffffffffffffffffffffffffffffffffffffffff166342966c68836040518263ffffffff1660e01b81526004016119109190612b80565b600060405180830381600087803b15801561192a57600080fd5b505af115801561193e573d6000803e3d6000fd5b5050505060006002836119519190612cbe565b9050600047905060006002836119679190612cbe565b905061197281611d25565b600082476119809190612d49565b905061198c82826120ac565b5050505050505050505050505050505050565b60006119b1836000018360001b612265565b905092915050565b600760009054906101000a900473ffffffffffffffffffffffffffffffffffffffff1673ffffffffffffffffffffffffffffffffffffffff166323b872dd33306009546040518463ffffffff1660e01b8152600401611a1a9392919061287b565b602060405180830381600087803b158015611a3457600080fd5b505af1158015611a48573d6000803e3d6000fd5b505050506040513d601f19601f82011682018060405250810190611a6c91906124b4565b507f2899dc8c12def1caa9accb64257cf2fd9f960f21bb27a560a757eae3c2ec43c133600954604051611aa09291906128b2565b60405180910390a1565b6000611abc836000018360001b612288565b905092915050565b6000611aec836000018373ffffffffffffffffffffffffffffffffffffffff1660001b612265565b905092915050565b6000611b1c836000018373ffffffffffffffffffffffffffffffffffffffff1660001b612288565b905092915050565b6000611b32826000016122f8565b9050919050565b6000611b488360000183612309565b60001c905092915050565b611b5b6123a3565b611b636123a3565b826020015184602001511115611b7e57828491509150611b85565b8383915091505b9250929050565b60008060006103e860018760ff1614611bb95760028760ff1614611bb1576001611bb4565b60025b611bbc565b60035b60ff16607d86611bcc9190612cef565b611bd69190612cef565b611be09190612cbe565b905080600360008760000151815260200190815260200160002060000160009054906101000a900473ffffffffffffffffffffffffffffffffffffffff169250925050935093915050565b60008414611d1f57600760009054906101000a900473ffffffffffffffffffffffffffffffffffffffff1673ffffffffffffffffffffffffffffffffffffffff1663a9059cbb84846040518363ffffffff1660e01b8152600401611c909291906128b2565b602060405180830381600087803b158015611caa57600080fd5b505af1158015611cbe573d6000803e3d6000fd5b505050506040513d601f19601f82011682018060405250810190611ce291906124b4565b507fb2621353d34e1ffdf580271ba22561cf19321217d27aed3a76d75a6bd58d58b5838383604051611d1693929190612973565b60405180910390a15b50505050565b6000600267ffffffffffffffff811115611d68577f4e487b7100000000000000000000000000000000000000000000000000000000600052604160045260246000fd5b604051908082528060200260200182016040528015611d965781602001602082028036833780820191505090505b509050600760009054906101000a900473ffffffffffffffffffffffffffffffffffffffff1681600081518110611df6577f4e487b7100000000000000000000000000000000000000000000000000000000600052603260045260246000fd5b602002602001019073ffffffffffffffffffffffffffffffffffffffff16908173ffffffffffffffffffffffffffffffffffffffff16815250507f000000000000000000000000000000000000000000000000000000000000000073ffffffffffffffffffffffffffffffffffffffff1663ad5c46486040518163ffffffff1660e01b815260040160206040518083038186803b158015611e9657600080fd5b505afa158015611eaa573d6000803e3d6000fd5b505050506040513d601f19601f82011682018060405250810190611ece919061244f565b81600181518110611f08577f4e487b7100000000000000000000000000000000000000000000000000000000600052603260045260246000fd5b602002602001019073ffffffffffffffffffffffffffffffffffffffff16908173ffffffffffffffffffffffffffffffffffffffff1681525050600760009054906101000a900473ffffffffffffffffffffffffffffffffffffffff1673ffffffffffffffffffffffffffffffffffffffff166352ec8529307f0000000000000000000000000000000000000000000000000000000000000000856040518463ffffffff1660e01b8152600401611fc19392919061287b565b602060405180830381600087803b158015611fdb57600080fd5b505af1158015611fef573d6000803e3d6000fd5b505050506040513d601f19601f8201168201806040525081019061201391906124b4565b507f000000000000000000000000000000000000000000000000000000000000000073ffffffffffffffffffffffffffffffffffffffff1663791ac9478360008430426040518663ffffffff1660e01b8152600401612076959493929190612b9b565b600060405180830381600087803b15801561209057600080fd5b505af11580156120a4573d6000803e3d6000fd5b505050505050565b600760009054906101000a900473ffffffffffffffffffffffffffffffffffffffff1673ffffffffffffffffffffffffffffffffffffffff166352ec8529307f0000000000000000000000000000000000000000000000000000000000000000856040518463ffffffff1660e01b815260040161212b9392919061287b565b602060405180830381600087803b15801561214557600080fd5b505af1158015612159573d6000803e3d6000fd5b505050506040513d601f19601f8201168201806040525081019061217d91906124b4565b507f000000000000000000000000000000000000000000000000000000000000000073ffffffffffffffffffffffffffffffffffffffff1663f305d71982600760009054906101000a900473ffffffffffffffffffffffffffffffffffffffff16856000806121ea610b07565b426040518863ffffffff1660e01b815260040161220c969594939291906128db565b6060604051808303818588803b15801561222557600080fd5b505af1158015612239573d6000803e3d6000fd5b50505050506040513d601f19601f8201168201806040525081019061225e919061256b565b5050505050565b600080836001016000848152602001908152602001600020541415905092915050565b60006122948383612265565b6122ed5782600001829080600181540180825580915050600190039060005260206000200160009091909190915055826000018054905083600101600084815260200190815260200160002081905550600190506122f2565b600090505b92915050565b600081600001805490509050919050565b600081836000018054905011612354576040517f08c379a000000000000000000000000000000000000000000000000000000000815260040161234b906129e0565b60405180910390fd5b826000018281548110612390577f4e487b7100000000000000000000000000000000000000000000000000000000600052603260045260246000fd5b9060005260206000200154905092915050565b604051806040016040528060008152602001600081525090565b6000813590506123cc816131ce565b92915050565b6000815190506123e1816131ce565b92915050565b6000815190506123f6816131e5565b92915050565b60008135905061240b816131fc565b92915050565b600081519050612420816131fc565b92915050565b60006020828403121561243857600080fd5b6000612446848285016123bd565b91505092915050565b60006020828403121561246157600080fd5b600061246f848285016123d2565b91505092915050565b6000806040838503121561248b57600080fd5b6000612499858286016123bd565b92505060206124aa858286016123fc565b9150509250929050565b6000602082840312156124c657600080fd5b60006124d4848285016123e7565b91505092915050565b6000602082840312156124ef57600080fd5b60006124fd848285016123fc565b91505092915050565b60006020828403121561251857600080fd5b600061252684828501612411565b91505092915050565b6000806040838503121561254257600080fd5b6000612550858286016123fc565b9250506020612561858286016123fc565b9150509250929050565b60008060006060848603121561258057600080fd5b600061258e86828701612411565b935050602061259f86828701612411565b92505060406125b086828701612411565b9150509250925092565b60006125c683836125d2565b60208301905092915050565b6125db81612d7d565b82525050565b6125ea81612d7d565b82525050565b60006125fb82612c2e565b6126058185612c46565b935061261083612c1e565b8060005b8381101561264157815161262888826125ba565b975061263383612c39565b925050600181019050612614565b5085935050505092915050565b61265781612d8f565b82525050565b61266681612dd2565b82525050565b61267581612df6565b82525050565b6000612688602283612c57565b915061269382612eaf565b604082019050919050565b60006126ab601783612c57565b91506126b682612efe565b602082019050919050565b60006126ce602683612c57565b91506126d982612f27565b604082019050919050565b60006126f1602f83612c57565b91506126fc82612f76565b604082019050919050565b6000612714602683612c57565b915061271f82612fc5565b604082019050919050565b6000612737601483612c57565b915061274282613014565b602082019050919050565b600061275a602a83612c57565b91506127658261303d565b604082019050919050565b600061277d601383612c57565b91506127888261308c565b602082019050919050565b60006127a0602083612c57565b91506127ab826130b5565b602082019050919050565b60006127c3601a83612c57565b91506127ce826130de565b602082019050919050565b60006127e6601483612c57565b91506127f182613107565b602082019050919050565b6000612809602183612c57565b915061281482613130565b604082019050919050565b600061282c602183612c57565b91506128378261317f565b604082019050919050565b61284b81612dbb565b82525050565b61285a81612dc5565b82525050565b600060208201905061287560008301846125e1565b92915050565b600060608201905061289060008301866125e1565b61289d60208301856125e1565b6128aa6040830184612842565b949350505050565b60006040820190506128c760008301856125e1565b6128d46020830184612842565b9392505050565b600060c0820190506128f060008301896125e1565b6128fd6020830188612842565b61290a604083018761266c565b612917606083018661266c565b61292460808301856125e1565b61293160a0830184612842565b979650505050505050565b600060608201905061295160008301866125e1565b61295e6020830185612842565b61296b6040830184612842565b949350505050565b600060608201905061298860008301866125e1565b6129956020830185612842565b6129a26040830184612851565b949350505050565b60006020820190506129bf600083018461264e565b92915050565b60006020820190506129da600083018461265d565b92915050565b600060208201905081810360008301526129f98161267b565b9050919050565b60006020820190508181036000830152612a198161269e565b9050919050565b60006020820190508181036000830152612a39816126c1565b9050919050565b60006020820190508181036000830152612a59816126e4565b9050919050565b60006020820190508181036000830152612a7981612707565b9050919050565b60006020820190508181036000830152612a998161272a565b9050919050565b60006020820190508181036000830152612ab98161274d565b9050919050565b60006020820190508181036000830152612ad981612770565b9050919050565b60006020820190508181036000830152612af981612793565b9050919050565b60006020820190508181036000830152612b19816127b6565b9050919050565b60006020820190508181036000830152612b39816127d9565b9050919050565b60006020820190508181036000830152612b59816127fc565b9050919050565b60006020820190508181036000830152612b798161281f565b9050919050565b6000602082019050612b956000830184612842565b92915050565b600060a082019050612bb06000830188612842565b612bbd602083018761266c565b8181036040830152612bcf81866125f0565b9050612bde60608301856125e1565b612beb6080830184612842565b9695505050505050565b6000604082019050612c0a6000830185612842565b612c176020830184612842565b9392505050565b6000819050602082019050919050565b600081519050919050565b6000602082019050919050565b600082825260208201905092915050565b600082825260208201905092915050565b6000612c7382612dbb565b9150612c7e83612dbb565b9250827fffffffffffffffffffffffffffffffffffffffffffffffffffffffffffffffff03821115612cb357612cb2612e51565b5b828201905092915050565b6000612cc982612dbb565b9150612cd483612dbb565b925082612ce457612ce3612e80565b5b828204905092915050565b6000612cfa82612dbb565b9150612d0583612dbb565b9250817fffffffffffffffffffffffffffffffffffffffffffffffffffffffffffffffff0483118215151615612d3e57612d3d612e51565b5b828202905092915050565b6000612d5482612dbb565b9150612d5f83612dbb565b925082821015612d7257612d71612e51565b5b828203905092915050565b6000612d8882612d9b565b9050919050565b60008115159050919050565b600073ffffffffffffffffffffffffffffffffffffffff82169050919050565b6000819050919050565b600060ff82169050919050565b6000612ddd82612de4565b9050919050565b6000612def82612d9b565b9050919050565b6000612e0182612dbb565b9050919050565b6000612e1382612dbb565b91507fffffffffffffffffffffffffffffffffffffffffffffffffffffffffffffffff821415612e4657612e45612e51565b5b600182019050919050565b7f4e487b7100000000000000000000000000000000000000000000000000000000600052601160045260246000fd5b7f4e487b7100000000000000000000000000000000000000000000000000000000600052601260045260246000fd5b7f456e756d657261626c655365743a20696e646578206f7574206f6620626f756e60008201527f6473000000000000000000000000000000000000000000000000000000000000602082015250565b7f436f6e7472616374206e6f742079657420636c6f736564000000000000000000600082015250565b7f4f776e61626c653a206e6577206f776e657220697320746865207a65726f206160008201527f6464726573730000000000000000000000000000000000000000000000000000602082015250565b7f4e6f7420656e6f7567682066756e647320746f2070617274696369706174652060008201527f77697468207468697320747261636b0000000000000000000000000000000000602082015250565b7f547261636b20616c7265616479206d61726b656420666f72207061727469636960008201527f706174696f6e0000000000000000000000000000000000000000000000000000602082015250565b7f436f6e7472616374206e6f742072756e6e696e67000000000000000000000000600082015250565b7f547261636b206973206e6f742070617274696369706174696e6720746f20746860008201527f6520656c656374696f6e00000000000000000000000000000000000000000000602082015250565b7f547261636b20616c726561647920766f74656400000000000000000000000000600082015250565b7f4f776e61626c653a2063616c6c6572206973206e6f7420746865206f776e6572600082015250565b7f43616e6e6f7420766f746520796f7572206f776e20747261636b000000000000600082015250565b7f547261636b20646f6573206e6f74206578697374000000000000000000000000600082015250565b7f547261636b206c697374656e696e67206e6f7420636f6d706c6574656420796560008201527f7400000000000000000000000000000000000000000000000000000000000000602082015250565b7f596f752063616e207265676973746572206f6e6c7920796f757220747261636b60008201527f7300000000000000000000000000000000000000000000000000000000000000602082015250565b6131d781612d7d565b81146131e257600080fd5b50565b6131ee81612d8f565b81146131f957600080fd5b50565b61320581612dbb565b811461321057600080fd5b5056fea26469706673582212204f62322e814a1e1d265add9d069468439908dd178fbe95598ee3229b8765401464736f6c63430008010033",
  "immutableReferences": {
    "817": [
      {
        "length": 32,
        "start": 811
      },
      {
        "length": 32,
        "start": 7730
      },
      {
        "length": 32,
        "start": 8067
      },
      {
        "length": 32,
        "start": 8214
      },
      {
        "length": 32,
        "start": 8429
      },
      {
        "length": 32,
        "start": 8576
      }
    ],
    "819": [
      {
        "length": 32,
        "start": 847
      }
    ]
  },
  "source": "// SPDX-License-Identifier: MIT\npragma solidity ^0.8.0;\n\nimport \"./Melody.sol\";\nimport \"./CommonModifier.sol\";\nimport \"./Track.sol\";\nimport \"@openzeppelin/contracts/utils/math/SafeMath.sol\";\nimport \"@openzeppelin/contracts/access/Ownable.sol\";\nimport \"@openzeppelin/contracts/utils/structs/EnumerableSet.sol\";\nimport \"./interfaces/IUniswapV2Factory.sol\";\nimport \"./interfaces/IUniswapV2Pair.sol\";\nimport \"./interfaces/IUniswapV2Router01.sol\";\nimport \"./interfaces/IUniswapV2Router02.sol\";\n\ncontract TrackChallenge is Ownable, CommonModifier {\n    using SafeMath for uint256;\n\tusing EnumerableSet for EnumerableSet.AddressSet;\n\tusing EnumerableSet for EnumerableSet.UintSet;\n\n\tevent Voted(address voter, uint256 track_id, uint256 half_stars);\n\tevent FeePayed(address payer, uint256 fee);\n\tevent Redeemed(uint256 token_amount, uint256 eth_amount);\n\tevent PrizeForMusician(address musician, uint256 prize, uint8 position);\n\tevent AllPrizesDistributed();\n\tevent NewParticipant(uint256 track_id);\n\tevent VoteAllowed(address voter, uint256 nft);\n\n\tstruct Song {\n\t\taddress owner;\n\t\tuint256 votes;\n\t\tEnumerableSet.AddressSet voters;\n\t}\n\n\tstruct Ranking {\n\t\tuint256 track_id;\n\t\tuint256 votes;\n\t}\n\n\t// track => { owner, votes, voters }\n\tmapping(uint256 => Song) internal participants;\n\tEnumerableSet.UintSet internal participating_tracks;\n\n\t// address -> nft_id -> allowance, allowed will be set to true by the contract owner\n\t// once a track is completely listened\n\tmapping(address => mapping(uint256 => bool)) internal allowed_vote;\n\n\n\tMelody internal token;\n\tTrack internal track;\n\tuint256 internal participation_fee;\n\tIUniswapV2Router02 public immutable uniswapV2Router;\n    address public immutable uniswapV2Pair;\n\n\tmodifier canVote(uint256 track_id, uint256 half_stars) {\n\t\trequire(participating_tracks.contains(track_id), \"Track is not participating to the challenge\");\n\t\trequire(!participants[track_id].voters.contains(msg.sender), \"Track already voted\");\n\t\trequire(msg.sender != track.ownerOf(track_id), \"Cannot vote your own track\");\n\t\trequire(allowed_vote[msg.sender][track_id], \"Track listening not completed yet\");\n\t\t_;\n\t}\n\n\tmodifier canParticipate(uint256 track_id) {\n\t\trequire(track.exists(track_id), \"Track does not exist\");\n\t\trequire(!participating_tracks.contains(track_id), \"Track already marked for participation\");\n\t\trequire(msg.sender == track.ownerOf(track_id), \"You can register only your tracks\");\n\t\trequire(token.balanceOf(msg.sender) >= participation_fee, \"Not enough funds to participate with this track\");\n\t\t_;\n\t}\n\n\tconstructor(\n\t\tuint256 _start, \n\t\tuint256 _end, \n\t\tMelody _token, \n\t\tTrack _track, \n\t\tuint256 _participation_fee\n\t) {\n\t\ttoken = _token;\n\t\tstart = _start;\n\t\tend = _end;\n\t\ttrack = _track;\n\t\tparticipation_fee = _participation_fee * 1 ether;\n\n\t\t// Swap and append to PancakeSwap LP\n\n\t\t// PancakeSwap TestNet router: 0xD99D1c33F9fC3444f8101754aBC46c52416550D1\n\t\t// PancakeSwap MainNet router: 0x05fF2B0DB69458A0750badebc4f9e13aDd608C7F\n\t\tIUniswapV2Router02 _uniswapV2Router = IUniswapV2Router02(0xD99D1c33F9fC3444f8101754aBC46c52416550D1);\n\n         // Create a uniswap pair for this new token\n        uniswapV2Pair = IUniswapV2Factory(_uniswapV2Router.factory())\n            .createPair(address(token), _uniswapV2Router.WETH());\n\n        // set the rest of the contract variables\n        uniswapV2Router = _uniswapV2Router;\n\t}\n\n\tfunction payVoteFee(uint256 vote_value) internal {}\n\n\tfunction payParticipationFee() internal {\n\t\ttoken.transferFrom(msg.sender, address(this), participation_fee);\n\n\t\temit FeePayed(msg.sender, participation_fee);\n\t}\n\n\tfunction participate(uint256 track_id) public canParticipate(track_id) {\n\t\tpayParticipationFee();\n\n\t\tparticipating_tracks.add(track_id);\n\n\t\t// Check if the track owner is changed or if it null and update it\n\t\taddress track_owner = track.ownerOf(track_id);\n\t\t// Avoid checking for difference to reduce gas fee\n\t\tparticipants[track_id].owner = track_owner;\n\n\t\temit NewParticipant(track_id);\n\t}\n\n\tfunction vote(uint256 track_id, uint256 half_stars) public whenRunning canVote(track_id, half_stars) payable {\t\n\t\t// state change first\n\t\tallowed_vote[msg.sender][track_id] = false;\n\n\t\tparticipants[track_id].votes += half_stars;\n\n\t\t// Add the address of the voter to the set of voters if not yet present\n\t\tparticipants[track_id].voters.add(msg.sender);\n\n\t\t// The logic for the song completion check will be done on the backend\n\t\t// and the tokens will be issued by a backend call, the backend will proxy this call only\n\t\t// if the song was listened completely, in that case msg.sender will receive 20 MELD \n\n\t\temit Voted(msg.sender, track_id, half_stars);\n\t} \n\n\tfunction getBalance() public view returns(uint256) { return address(this).balance; }\n\tfunction getTokenBalance() public view returns(uint256) { return token.balanceOf(address(this)); }\n\n\tfunction allowToVote(address voter, uint256 nft) public onlyOwner {\n\t\trequire(participating_tracks.contains(nft), \"Track is not participating to the challenge\");\n\t\trequire(!participants[nft].voters.contains(voter), \"Track already voted\");\n\t\trequire(voter != track.ownerOf(nft), \"Cannot vote your own track\");\n\n\t\tallowed_vote[voter][nft] = true;\n\t\temit VoteAllowed(voter, nft);\n\t}\n\n\tfunction finalize() public onlyOwner whenClosed {\n\t\t_finalize();\n\t\t_distribute();\n\n\t\temit AllPrizesDistributed();\n\n\t\tredeem();\n\t}\n\n\tfunction _swapTrack(Ranking memory new_ranking, Ranking memory old_ranking) internal pure returns(Ranking memory, Ranking memory) {\n\t\tif(new_ranking.votes > old_ranking.votes) {\n\t\t\treturn (old_ranking, new_ranking);\n\t\t}\n\t\treturn (new_ranking, old_ranking);\n\t}\n\n\tfunction _distribute() internal {       \n\t\tRanking memory first_place;\n\t\tRanking memory second_place;\n\t\tRanking memory third_place;\n\t\tRanking memory old;\n\n\t\tuint256 track_id;\n\n\t\tfor(uint256 i; i < participating_tracks.length(); i++) {\n\t\t\t// caches the current track_id\n\t\t\ttrack_id = participating_tracks.at(i);\n\n\t\t\t// Check if current track has more votes than the first one, in case swap them\n\t\t\t(old, first_place) = _swapTrack(\n\t\t\t\tRanking({\n\t\t\t\t\tvotes: participants[track_id].votes, \n\t\t\t\t\ttrack_id: track_id\n\t\t\t\t}), \n\t\t\t\tfirst_place\n\t\t\t);\n\n\t\t\t// Check if the track with less votes in the previous step has more votes than \n\t\t\t// the one marked as second, in case swap them\n\t\t\t(old, second_place) = _swapTrack(old, second_place);\n\n\t\t\t// Check if the track with less votes in the previous step has more votes than \n\t\t\t// the one marked as third, in case swap them, the one with less votes is simply\n\t\t\t// trashed\n\t\t\t(, third_place) = _swapTrack(old, third_place);\n\t\t}\n\n\t\taddress addr = address(this);\n\t\tuint256 balance = token.balanceOf(addr);\n\t\t(uint256 first_place_prize, address first_place_address) = _computeMusicianPrize(1, first_place, balance);\n\t\t(uint256 second_place_prize, address second_place_address) = _computeMusicianPrize(2, second_place, balance);\n\t\t(uint256 third_place_prize, address third_place_address) = _computeMusicianPrize(3, third_place, balance);\n\n\t\t// Send the prizes to the winners and investors\n\t\t_sendPrize(first_place.track_id, first_place_address, first_place_prize, 1);\n\t\t_sendPrize(second_place.track_id, second_place_address, second_place_prize, 2);\n\t\t_sendPrize(third_place.track_id, third_place_address, third_place_prize, 3);\n\n\t\t// burn 12.5% of the remaining prize (equal to the one of the 3rd classified)\n\t\ttoken.burn(third_place_prize);\n\t\t\n\t\t// 12.5% => 50% platform fee, 50% LP\n\t\tuint256 half = third_place_prize / 2;\n\t\t// NOTE: half is left on the contract as after the call to _distribute there is an automated call to\n\t\t// NOTE: redeem\n\n\t\t// Handle the transfer to the LP (PanckakeSwap)\n\t\t// NOTE: Some liquidity must be added to the platform before running this function!!!!\n\t\tuint256 initialBalance = address(this).balance;\n\t\tuint256 change = half / 2;\n\t\t// Swap 50% of the left amount in ETH so that can be added to the LP\n\t\tswap(change);\n\t\tuint256 newBalance = address(this).balance - initialBalance;\n\t\taddToLP(change, newBalance);\n\t}\n\n\tfunction _computeMusicianPrize(uint8 position, Ranking memory ranking, uint256 balance) internal view returns(uint256, address) {\n\t\t// Compute the price for the chosen position\n\t\t// 1 --> 37.5%\n\t\t// 2 --> 25.0%\n\t\t// 3 --> 12.5%\n\t\tuint256 prize = (balance * 125 * (position == 1 ? 3 : (position == 2 ? 2 : 1))) / 1000;\n\n\t\treturn (prize, participants[ranking.track_id].owner);\n\t}\n\n\tfunction _sendPrize(\n\t\tuint256 track_id, \n\t\taddress addr, \n\t\tuint256 prize, \n\t\tuint8 position\n\t) internal {\n\t\t// Track id = 0 will never exist so if it is null the position is not filled\n\t\tif(track_id != 0) {\n\t\t\t// send prize to the winner\n\t\t\ttoken.transfer(addr, prize);\n\n\t\t\temit PrizeForMusician(addr, prize, position);\n\t\t}\n\t}\n\n\tfunction redeem() public onlyOwner whenClosed {\n\t\taddress addr = address(this);\n\t\tuint256 token_amount = token.balanceOf(addr);\n\t\tuint256 eth_amount = addr.balance;\n\n\t\t// Transfer all the tokens (and ether if someone sent it) to the owner\n\t\ttoken.transfer(owner(), token_amount);\n\t\tpayable(owner()).transfer(eth_amount);\n\n\t\temit Redeemed(token_amount, eth_amount);\n\t}\n\n\tfunction swap(uint256 amount) internal {\n\t\t// generate the uniswap pair path of token -> weth\n        address[] memory path = new address[](2);\n        path[0] = address(token);\n        path[1] = uniswapV2Router.WETH();\n\n\t\t// approve token transfer to cover all possible scenarios\n\t\ttoken.approveFrom(address(this), address(uniswapV2Router), amount);\n\n\t\t// make the swap\n        uniswapV2Router.swapExactTokensForETHSupportingFeeOnTransferTokens(\n            amount,\n            0, // accept any amount of ETH\n            path,\n            address(this),\n            block.timestamp\n        );\n\t}\n\n\tfunction addToLP(uint256 tk_amount, uint256 eth_amount) internal {\n\t\t// approve token transfer to cover all possible scenarios\n\t\ttoken.approveFrom(address(this), address(uniswapV2Router), tk_amount);\n\n\t\t// add the liquidity\n        uniswapV2Router.addLiquidityETH{value: eth_amount}(\n            address(token),\n            tk_amount,\n            0, // slippage is unavoidable\n            0, // slippage is unavoidable\n            owner(),\n            block.timestamp\n        );\n\t}\n}",
  "sourcePath": "/home/ebalo/Desktop/Projects/blockchain/block-chain/contracts/TrackChallenge.sol",
  "compiler": {
    "name": "solc",
    "version": "0.8.1+commit.df193b15.Emscripten.clang"
  },
  "schemaVersion": "3.4.1",
  "updatedAt": "2021-05-26T15:55:24.001Z",
  "networkType": "ethereum",
  "devdoc": {
    "kind": "dev",
    "methods": {
      "owner()": {
        "details": "Returns the address of the current owner."
      },
      "renounceOwnership()": {
        "details": "Leaves the contract without owner. It will not be possible to call `onlyOwner` functions anymore. Can only be called by the current owner. NOTE: Renouncing ownership will leave the contract without an owner, thereby removing any functionality that is only available to the owner."
      },
      "transferOwnership(address)": {
        "details": "Transfers ownership of the contract to a new account (`newOwner`). Can only be called by the current owner."
      }
    },
    "version": 1
  },
  "userdoc": {
    "kind": "user",
    "methods": {},
    "version": 1
  }
}